{
  "contractName": "MyToken",
  "abi": [
    {
      "inputs": [],
      "stateMutability": "nonpayable",
      "type": "constructor"
    },
    {
      "anonymous": false,
      "inputs": [
        {
          "indexed": true,
          "internalType": "address",
          "name": "owner",
          "type": "address"
        },
        {
          "indexed": true,
          "internalType": "address",
          "name": "approved",
          "type": "address"
        },
        {
          "indexed": true,
          "internalType": "uint256",
          "name": "tokenId",
          "type": "uint256"
        }
      ],
      "name": "Approval",
      "type": "event"
    },
    {
      "anonymous": false,
      "inputs": [
        {
          "indexed": true,
          "internalType": "address",
          "name": "owner",
          "type": "address"
        },
        {
          "indexed": true,
          "internalType": "address",
          "name": "operator",
          "type": "address"
        },
        {
          "indexed": false,
          "internalType": "bool",
          "name": "approved",
          "type": "bool"
        }
      ],
      "name": "ApprovalForAll",
      "type": "event"
    },
    {
      "anonymous": false,
      "inputs": [
        {
          "indexed": true,
          "internalType": "address",
          "name": "previousOwner",
          "type": "address"
        },
        {
          "indexed": true,
          "internalType": "address",
          "name": "newOwner",
          "type": "address"
        }
      ],
      "name": "OwnershipTransferred",
      "type": "event"
    },
    {
      "anonymous": false,
      "inputs": [
        {
          "indexed": true,
          "internalType": "address",
          "name": "from",
          "type": "address"
        },
        {
          "indexed": true,
          "internalType": "address",
          "name": "to",
          "type": "address"
        },
        {
          "indexed": true,
          "internalType": "uint256",
          "name": "tokenId",
          "type": "uint256"
        }
      ],
      "name": "Transfer",
      "type": "event"
    },
    {
      "inputs": [
        {
          "internalType": "address",
          "name": "to",
          "type": "address"
        },
        {
          "internalType": "uint256",
          "name": "tokenId",
          "type": "uint256"
        }
      ],
      "name": "approve",
      "outputs": [],
      "stateMutability": "nonpayable",
      "type": "function"
    },
    {
      "inputs": [
        {
          "internalType": "address",
          "name": "owner",
          "type": "address"
        }
      ],
      "name": "balanceOf",
      "outputs": [
        {
          "internalType": "uint256",
          "name": "",
          "type": "uint256"
        }
      ],
      "stateMutability": "view",
      "type": "function"
    },
    {
      "inputs": [
        {
          "internalType": "uint256",
          "name": "tokenId",
          "type": "uint256"
        }
      ],
      "name": "getApproved",
      "outputs": [
        {
          "internalType": "address",
          "name": "",
          "type": "address"
        }
      ],
      "stateMutability": "view",
      "type": "function"
    },
    {
      "inputs": [
        {
          "internalType": "address",
          "name": "owner",
          "type": "address"
        },
        {
          "internalType": "address",
          "name": "operator",
          "type": "address"
        }
      ],
      "name": "isApprovedForAll",
      "outputs": [
        {
          "internalType": "bool",
          "name": "",
          "type": "bool"
        }
      ],
      "stateMutability": "view",
      "type": "function"
    },
    {
      "inputs": [],
      "name": "name",
      "outputs": [
        {
          "internalType": "string",
          "name": "",
          "type": "string"
        }
      ],
      "stateMutability": "view",
      "type": "function"
    },
    {
      "inputs": [],
      "name": "owner",
      "outputs": [
        {
          "internalType": "address",
          "name": "",
          "type": "address"
        }
      ],
      "stateMutability": "view",
      "type": "function"
    },
    {
      "inputs": [
        {
          "internalType": "uint256",
          "name": "tokenId",
          "type": "uint256"
        }
      ],
      "name": "ownerOf",
      "outputs": [
        {
          "internalType": "address",
          "name": "",
          "type": "address"
        }
      ],
      "stateMutability": "view",
      "type": "function"
    },
    {
      "inputs": [],
      "name": "renounceOwnership",
      "outputs": [],
      "stateMutability": "nonpayable",
      "type": "function"
    },
    {
      "inputs": [
        {
          "internalType": "address",
          "name": "from",
          "type": "address"
        },
        {
          "internalType": "address",
          "name": "to",
          "type": "address"
        },
        {
          "internalType": "uint256",
          "name": "tokenId",
          "type": "uint256"
        }
      ],
      "name": "safeTransferFrom",
      "outputs": [],
      "stateMutability": "nonpayable",
      "type": "function"
    },
    {
      "inputs": [
        {
          "internalType": "address",
          "name": "from",
          "type": "address"
        },
        {
          "internalType": "address",
          "name": "to",
          "type": "address"
        },
        {
          "internalType": "uint256",
          "name": "tokenId",
          "type": "uint256"
        },
        {
          "internalType": "bytes",
          "name": "_data",
          "type": "bytes"
        }
      ],
      "name": "safeTransferFrom",
      "outputs": [],
      "stateMutability": "nonpayable",
      "type": "function"
    },
    {
      "inputs": [
        {
          "internalType": "address",
          "name": "operator",
          "type": "address"
        },
        {
          "internalType": "bool",
          "name": "approved",
          "type": "bool"
        }
      ],
      "name": "setApprovalForAll",
      "outputs": [],
      "stateMutability": "nonpayable",
      "type": "function"
    },
    {
      "inputs": [],
      "name": "symbol",
      "outputs": [
        {
          "internalType": "string",
          "name": "",
          "type": "string"
        }
      ],
      "stateMutability": "view",
      "type": "function"
    },
    {
      "inputs": [
        {
          "internalType": "uint256",
          "name": "index",
          "type": "uint256"
        }
      ],
      "name": "tokenByIndex",
      "outputs": [
        {
          "internalType": "uint256",
          "name": "",
          "type": "uint256"
        }
      ],
      "stateMutability": "view",
      "type": "function"
    },
    {
      "inputs": [
        {
          "internalType": "address",
          "name": "owner",
          "type": "address"
        },
        {
          "internalType": "uint256",
          "name": "index",
          "type": "uint256"
        }
      ],
      "name": "tokenOfOwnerByIndex",
      "outputs": [
        {
          "internalType": "uint256",
          "name": "",
          "type": "uint256"
        }
      ],
      "stateMutability": "view",
      "type": "function"
    },
    {
      "inputs": [
        {
          "internalType": "uint256",
          "name": "tokenId",
          "type": "uint256"
        }
      ],
      "name": "tokenURI",
      "outputs": [
        {
          "internalType": "string",
          "name": "",
          "type": "string"
        }
      ],
      "stateMutability": "view",
      "type": "function"
    },
    {
      "inputs": [],
      "name": "tokensCount",
      "outputs": [
        {
          "internalType": "uint256",
          "name": "",
          "type": "uint256"
        }
      ],
      "stateMutability": "view",
      "type": "function"
    },
    {
      "inputs": [],
      "name": "totalSupply",
      "outputs": [
        {
          "internalType": "uint256",
          "name": "",
          "type": "uint256"
        }
      ],
      "stateMutability": "view",
      "type": "function"
    },
    {
      "inputs": [
        {
          "internalType": "address",
          "name": "from",
          "type": "address"
        },
        {
          "internalType": "address",
          "name": "to",
          "type": "address"
        },
        {
          "internalType": "uint256",
          "name": "tokenId",
          "type": "uint256"
        }
      ],
      "name": "transferFrom",
      "outputs": [],
      "stateMutability": "nonpayable",
      "type": "function"
    },
    {
      "inputs": [
        {
          "internalType": "address",
          "name": "newOwner",
          "type": "address"
        }
      ],
      "name": "transferOwnership",
      "outputs": [],
      "stateMutability": "nonpayable",
      "type": "function"
    },
    {
      "inputs": [
        {
          "internalType": "string",
          "name": "baseURI",
          "type": "string"
        }
      ],
      "name": "setBaseURI",
      "outputs": [],
      "stateMutability": "nonpayable",
      "type": "function"
    },
    {
      "inputs": [
        {
          "internalType": "string",
          "name": "text",
          "type": "string"
        }
      ],
      "name": "mint",
      "outputs": [],
      "stateMutability": "nonpayable",
      "type": "function"
    },
    {
      "inputs": [
        {
          "internalType": "uint256",
          "name": "_tokenId",
          "type": "uint256"
        }
      ],
      "name": "getNftText",
      "outputs": [
        {
          "internalType": "string",
          "name": "",
          "type": "string"
        }
      ],
      "stateMutability": "view",
      "type": "function"
    },
    {
      "inputs": [],
      "name": "getOwnedNfts",
      "outputs": [
        {
          "internalType": "uint256[]",
          "name": "",
          "type": "uint256[]"
        }
      ],
      "stateMutability": "view",
      "type": "function"
    },
    {
      "inputs": [
        {
          "internalType": "bytes4",
          "name": "interfaceId",
          "type": "bytes4"
        }
      ],
      "name": "supportsInterface",
      "outputs": [
        {
          "internalType": "bool",
          "name": "",
          "type": "bool"
        }
      ],
      "stateMutability": "view",
      "type": "function"
    }
  ],
  "bytecode": "0x60806040523480156200001157600080fd5b506040518060400160405280600681526020017f4d7946696c6500000000000000000000000000000000000000000000000000008152506040518060400160405280600381526020017f46494c00000000000000000000000000000000000000000000000000000000008152506200009e62000092620000d860201b60201c565b620000e060201b60201c565b8160019080519060200190620000b6929190620001a4565b508060029080519060200190620000cf929190620001a4565b505050620002b9565b600033905090565b60008060009054906101000a900473ffffffffffffffffffffffffffffffffffffffff169050816000806101000a81548173ffffffffffffffffffffffffffffffffffffffff021916908373ffffffffffffffffffffffffffffffffffffffff1602179055508173ffffffffffffffffffffffffffffffffffffffff168173ffffffffffffffffffffffffffffffffffffffff167f8be0079c531659141344cd1fd0a4f28419497f9722a3daafe3b4186f6b6457e060405160405180910390a35050565b828054620001b29062000283565b90600052602060002090601f016020900481019282620001d6576000855562000222565b82601f10620001f157805160ff191683800117855562000222565b8280016001018555821562000222579182015b828111156200022157825182559160200191906001019062000204565b5b50905062000231919062000235565b5090565b5b808211156200025057600081600090555060010162000236565b5090565b7f4e487b7100000000000000000000000000000000000000000000000000000000600052602260045260246000fd5b600060028204905060018216806200029c57607f821691505b60208210811415620002b357620002b262000254565b5b50919050565b6139b180620002c96000396000f3fe608060405234801561001057600080fd5b50600436106101585760003560e01c806370cbcb43116100c3578063b88d4fde1161007c578063b88d4fde146103c7578063c87b56dd146103e3578063d85d3d2714610413578063e985e9c51461042f578063f2fde38b1461045f578063fcf368511461047b57610158565b806370cbcb4314610329578063715018a6146103475780638da5cb5b1461035157806395d89b411461036f578063a22cb4651461038d578063a64ed8ba146103a957610158565b80632f745c59116101155780632f745c591461023157806342842e0e146102615780634f6ccce71461027d57806355f804b3146102ad5780636352211e146102c957806370a08231146102f957610158565b806301ffc9a71461015d57806306fdde031461018d578063081812fc146101ab578063095ea7b3146101db57806318160ddd146101f757806323b872dd14610215575b600080fd5b61017760048036038101906101729190612519565b6104ab565b6040516101849190612561565b60405180910390f35b6101956104bd565b6040516101a29190612615565b60405180910390f35b6101c560048036038101906101c0919061266d565b61054f565b6040516101d291906126db565b60405180910390f35b6101f560048036038101906101f09190612722565b6105d4565b005b6101ff6106ec565b60405161020c9190612771565b60405180910390f35b61022f600480360381019061022a919061278c565b6106f9565b005b61024b60048036038101906102469190612722565b610759565b6040516102589190612771565b60405180910390f35b61027b6004803603810190610276919061278c565b6107fe565b005b6102976004803603810190610292919061266d565b61081e565b6040516102a49190612771565b60405180910390f35b6102c760048036038101906102c29190612914565b61088f565b005b6102e360048036038101906102de919061266d565b610925565b6040516102f091906126db565b60405180910390f35b610313600480360381019061030e919061295d565b6109d7565b6040516103209190612771565b60405180910390f35b610331610a8f565b60405161033e9190612a48565b60405180910390f35b61034f610b41565b005b610359610bc9565b60405161036691906126db565b60405180910390f35b610377610bf2565b6040516103849190612615565b60405180910390f35b6103a760048036038101906103a29190612a96565b610c84565b005b6103b1610e05565b6040516103be9190612771565b60405180910390f35b6103e160048036038101906103dc9190612b77565b610e0b565b005b6103fd60048036038101906103f8919061266d565b610e6d565b60405161040a9190612615565b60405180910390f35b61042d60048036038101906104289190612914565b610f14565b005b61044960048036038101906104449190612bfa565b61106f565b6040516104569190612561565b60405180910390f35b6104796004803603810190610474919061295d565b611103565b005b6104956004803603810190610490919061266d565b6111fb565b6040516104a29190612615565b60405180910390f35b60006104b6826112a3565b9050919050565b6060600180546104cc90612c69565b80601f01602080910402602001604051908101604052809291908181526020018280546104f890612c69565b80156105455780601f1061051a57610100808354040283529160200191610545565b820191906000526020600020905b81548152906001019060200180831161052857829003601f168201915b5050505050905090565b600061055a8261131d565b610599576040517f08c379a000000000000000000000000000000000000000000000000000000000815260040161059090612d0d565b60405180910390fd5b6005600083815260200190815260200160002060009054906101000a900473ffffffffffffffffffffffffffffffffffffffff169050919050565b60006105df82610925565b90508073ffffffffffffffffffffffffffffffffffffffff168373ffffffffffffffffffffffffffffffffffffffff161415610650576040517f08c379a000000000000000000000000000000000000000000000000000000000815260040161064790612d9f565b60405180910390fd5b8073ffffffffffffffffffffffffffffffffffffffff1661066f611389565b73ffffffffffffffffffffffffffffffffffffffff16148061069e575061069d81610698611389565b61106f565b5b6106dd576040517f08c379a00000000000000000000000000000000000000000000000000000000081526004016106d490612e31565b60405180910390fd5b6106e78383611391565b505050565b6000600980549050905090565b61070a610704611389565b8261144a565b610749576040517f08c379a000000000000000000000000000000000000000000000000000000000815260040161074090612ec3565b60405180910390fd5b610754838383611528565b505050565b6000610764836109d7565b82106107a5576040517f08c379a000000000000000000000000000000000000000000000000000000000815260040161079c90612f55565b60405180910390fd5b600760008473ffffffffffffffffffffffffffffffffffffffff1673ffffffffffffffffffffffffffffffffffffffff168152602001908152602001600020600083815260200190815260200160002054905092915050565b61081983838360405180602001604052806000815250610e0b565b505050565b60006108286106ec565b8210610869576040517f08c379a000000000000000000000000000000000000000000000000000000000815260040161086090612fe7565b60405180910390fd5b6009828154811061087d5761087c613007565b5b90600052602060002001549050919050565b610897611389565b73ffffffffffffffffffffffffffffffffffffffff166108b5610bc9565b73ffffffffffffffffffffffffffffffffffffffff161461090b576040517f08c379a000000000000000000000000000000000000000000000000000000000815260040161090290613082565b60405180910390fd5b80600e908051906020019061092192919061240a565b5050565b6000806003600084815260200190815260200160002060009054906101000a900473ffffffffffffffffffffffffffffffffffffffff169050600073ffffffffffffffffffffffffffffffffffffffff168173ffffffffffffffffffffffffffffffffffffffff1614156109ce576040517f08c379a00000000000000000000000000000000000000000000000000000000081526004016109c590613114565b60405180910390fd5b80915050919050565b60008073ffffffffffffffffffffffffffffffffffffffff168273ffffffffffffffffffffffffffffffffffffffff161415610a48576040517f08c379a0000000000000000000000000000000000000000000000000000000008152600401610a3f906131a6565b60405180910390fd5b600460008373ffffffffffffffffffffffffffffffffffffffff1673ffffffffffffffffffffffffffffffffffffffff168152602001908152602001600020549050919050565b60606000610a9c336109d7565b905060008167ffffffffffffffff811115610aba57610ab96127e9565b5b604051908082528060200260200182016040528015610ae85781602001602082028036833780820191505090505b50905060005b82811015610b38576000610b023383610759565b905080838381518110610b1857610b17613007565b5b602002602001018181525050508080610b30906131f5565b915050610aee565b50809250505090565b610b49611389565b73ffffffffffffffffffffffffffffffffffffffff16610b67610bc9565b73ffffffffffffffffffffffffffffffffffffffff1614610bbd576040517f08c379a0000000000000000000000000000000000000000000000000000000008152600401610bb490613082565b60405180910390fd5b610bc76000611784565b565b60008060009054906101000a900473ffffffffffffffffffffffffffffffffffffffff16905090565b606060028054610c0190612c69565b80601f0160208091040260200160405190810160405280929190818152602001828054610c2d90612c69565b8015610c7a5780601f10610c4f57610100808354040283529160200191610c7a565b820191906000526020600020905b815481529060010190602001808311610c5d57829003601f168201915b5050505050905090565b610c8c611389565b73ffffffffffffffffffffffffffffffffffffffff168273ffffffffffffffffffffffffffffffffffffffff161415610cfa576040517f08c379a0000000000000000000000000000000000000000000000000000000008152600401610cf19061328a565b60405180910390fd5b8060066000610d07611389565b73ffffffffffffffffffffffffffffffffffffffff1673ffffffffffffffffffffffffffffffffffffffff16815260200190815260200160002060008473ffffffffffffffffffffffffffffffffffffffff1673ffffffffffffffffffffffffffffffffffffffff16815260200190815260200160002060006101000a81548160ff0219169083151502179055508173ffffffffffffffffffffffffffffffffffffffff16610db4611389565b73ffffffffffffffffffffffffffffffffffffffff167f17307eab39ab6107e8899845ad3d59bd9653f200f220920489ca2b5937696c3183604051610df99190612561565b60405180910390a35050565b600d5481565b610e1c610e16611389565b8361144a565b610e5b576040517f08c379a0000000000000000000000000000000000000000000000000000000008152600401610e5290612ec3565b60405180910390fd5b610e6784848484611848565b50505050565b6060610e788261131d565b610eb7576040517f08c379a0000000000000000000000000000000000000000000000000000000008152600401610eae9061331c565b60405180910390fd5b6000610ec16118a4565b90506000815111610ee15760405180602001604052806000815250610f0c565b80610eeb84611936565b604051602001610efc929190613378565b6040516020818303038152906040525b915050919050565b6000600d6000815480929190610f29906131f5565b919050559050610f826001600c60003373ffffffffffffffffffffffffffffffffffffffff1673ffffffffffffffffffffffffffffffffffffffff16815260200190815260200160002054611a9790919063ffffffff16565b600c60003373ffffffffffffffffffffffffffffffffffffffff1673ffffffffffffffffffffffffffffffffffffffff16815260200190815260200160002081905550604051806020016040528083815250600b6000838152602001908152602001600020600082015181600001908051906020019061100392919061240a565b50905050604051806020016040528083815250600b6000838152602001908152602001600020600082015181600001908051906020019061104592919061240a565b50905050600d600081548092919061105c906131f5565b919050555061106b3382611aad565b5050565b6000600660008473ffffffffffffffffffffffffffffffffffffffff1673ffffffffffffffffffffffffffffffffffffffff16815260200190815260200160002060008373ffffffffffffffffffffffffffffffffffffffff1673ffffffffffffffffffffffffffffffffffffffff16815260200190815260200160002060009054906101000a900460ff16905092915050565b61110b611389565b73ffffffffffffffffffffffffffffffffffffffff16611129610bc9565b73ffffffffffffffffffffffffffffffffffffffff161461117f576040517f08c379a000000000000000000000000000000000000000000000000000000000815260040161117690613082565b60405180910390fd5b600073ffffffffffffffffffffffffffffffffffffffff168173ffffffffffffffffffffffffffffffffffffffff1614156111ef576040517f08c379a00000000000000000000000000000000000000000000000000000000081526004016111e69061340e565b60405180910390fd5b6111f881611784565b50565b6060600b6000838152602001908152602001600020600001805461121e90612c69565b80601f016020809104026020016040519081016040528092919081815260200182805461124a90612c69565b80156112975780601f1061126c57610100808354040283529160200191611297565b820191906000526020600020905b81548152906001019060200180831161127a57829003601f168201915b50505050509050919050565b60007f780e9d63000000000000000000000000000000000000000000000000000000007bffffffffffffffffffffffffffffffffffffffffffffffffffffffff1916827bffffffffffffffffffffffffffffffffffffffffffffffffffffffff19161480611316575061131582611acb565b5b9050919050565b60008073ffffffffffffffffffffffffffffffffffffffff166003600084815260200190815260200160002060009054906101000a900473ffffffffffffffffffffffffffffffffffffffff1673ffffffffffffffffffffffffffffffffffffffff1614159050919050565b600033905090565b816005600083815260200190815260200160002060006101000a81548173ffffffffffffffffffffffffffffffffffffffff021916908373ffffffffffffffffffffffffffffffffffffffff160217905550808273ffffffffffffffffffffffffffffffffffffffff1661140483610925565b73ffffffffffffffffffffffffffffffffffffffff167f8c5be1e5ebec7d5bd14f71427d1e84f3dd0314c0f7b2291e5b200ac8c7c3b92560405160405180910390a45050565b60006114558261131d565b611494576040517f08c379a000000000000000000000000000000000000000000000000000000000815260040161148b906134a0565b60405180910390fd5b600061149f83610925565b90508073ffffffffffffffffffffffffffffffffffffffff168473ffffffffffffffffffffffffffffffffffffffff16148061150e57508373ffffffffffffffffffffffffffffffffffffffff166114f68461054f565b73ffffffffffffffffffffffffffffffffffffffff16145b8061151f575061151e818561106f565b5b91505092915050565b8273ffffffffffffffffffffffffffffffffffffffff1661154882610925565b73ffffffffffffffffffffffffffffffffffffffff161461159e576040517f08c379a000000000000000000000000000000000000000000000000000000000815260040161159590613532565b60405180910390fd5b600073ffffffffffffffffffffffffffffffffffffffff168273ffffffffffffffffffffffffffffffffffffffff16141561160e576040517f08c379a0000000000000000000000000000000000000000000000000000000008152600401611605906135c4565b60405180910390fd5b611619838383611bad565b611624600082611391565b6001600460008573ffffffffffffffffffffffffffffffffffffffff1673ffffffffffffffffffffffffffffffffffffffff168152602001908152602001600020600082825461167491906135e4565b925050819055506001600460008473ffffffffffffffffffffffffffffffffffffffff1673ffffffffffffffffffffffffffffffffffffffff16815260200190815260200160002060008282546116cb9190613618565b92505081905550816003600083815260200190815260200160002060006101000a81548173ffffffffffffffffffffffffffffffffffffffff021916908373ffffffffffffffffffffffffffffffffffffffff160217905550808273ffffffffffffffffffffffffffffffffffffffff168473ffffffffffffffffffffffffffffffffffffffff167fddf252ad1be2c89b69c2b068fc378daa952ba7f163c4a11628f55a4df523b3ef60405160405180910390a4505050565b60008060009054906101000a900473ffffffffffffffffffffffffffffffffffffffff169050816000806101000a81548173ffffffffffffffffffffffffffffffffffffffff021916908373ffffffffffffffffffffffffffffffffffffffff1602179055508173ffffffffffffffffffffffffffffffffffffffff168173ffffffffffffffffffffffffffffffffffffffff167f8be0079c531659141344cd1fd0a4f28419497f9722a3daafe3b4186f6b6457e060405160405180910390a35050565b611853848484611528565b61185f84848484611bbd565b61189e576040517f08c379a0000000000000000000000000000000000000000000000000000000008152600401611895906136e0565b60405180910390fd5b50505050565b6060600e80546118b390612c69565b80601f01602080910402602001604051908101604052809291908181526020018280546118df90612c69565b801561192c5780601f106119015761010080835404028352916020019161192c565b820191906000526020600020905b81548152906001019060200180831161190f57829003601f168201915b5050505050905090565b6060600082141561197e576040518060400160405280600181526020017f30000000000000000000000000000000000000000000000000000000000000008152509050611a92565b600082905060005b600082146119b0578080611999906131f5565b915050600a826119a9919061372f565b9150611986565b60008167ffffffffffffffff8111156119cc576119cb6127e9565b5b6040519080825280601f01601f1916602001820160405280156119fe5781602001600182028036833780820191505090505b5090505b60008514611a8b57600182611a1791906135e4565b9150600a85611a269190613760565b6030611a329190613618565b60f81b818381518110611a4857611a47613007565b5b60200101907effffffffffffffffffffffffffffffffffffffffffffffffffffffffffffff1916908160001a905350600a85611a84919061372f565b9450611a02565b8093505050505b919050565b60008183611aa59190613618565b905092915050565b611ac7828260405180602001604052806000815250611d45565b5050565b60007f80ac58cd000000000000000000000000000000000000000000000000000000007bffffffffffffffffffffffffffffffffffffffffffffffffffffffff1916827bffffffffffffffffffffffffffffffffffffffffffffffffffffffff19161480611b9657507f5b5e139f000000000000000000000000000000000000000000000000000000007bffffffffffffffffffffffffffffffffffffffffffffffffffffffff1916827bffffffffffffffffffffffffffffffffffffffffffffffffffffffff1916145b80611ba65750611ba582611da0565b5b9050919050565b611bb8838383611e0a565b505050565b6000611bde8473ffffffffffffffffffffffffffffffffffffffff16611f1e565b15611d38578373ffffffffffffffffffffffffffffffffffffffff1663150b7a02611c07611389565b8786866040518563ffffffff1660e01b8152600401611c2994939291906137e6565b6020604051808303816000875af1925050508015611c6557506040513d601f19601f82011682018060405250810190611c629190613847565b60015b611ce8573d8060008114611c95576040519150601f19603f3d011682016040523d82523d6000602084013e611c9a565b606091505b50600081511415611ce0576040517f08c379a0000000000000000000000000000000000000000000000000000000008152600401611cd7906136e0565b60405180910390fd5b805181602001fd5b63150b7a0260e01b7bffffffffffffffffffffffffffffffffffffffffffffffffffffffff1916817bffffffffffffffffffffffffffffffffffffffffffffffffffffffff191614915050611d3d565b600190505b949350505050565b611d4f8383611f31565b611d5c6000848484611bbd565b611d9b576040517f08c379a0000000000000000000000000000000000000000000000000000000008152600401611d92906136e0565b60405180910390fd5b505050565b60007f01ffc9a7000000000000000000000000000000000000000000000000000000007bffffffffffffffffffffffffffffffffffffffffffffffffffffffff1916827bffffffffffffffffffffffffffffffffffffffffffffffffffffffff1916149050919050565b611e158383836120ff565b600073ffffffffffffffffffffffffffffffffffffffff168373ffffffffffffffffffffffffffffffffffffffff161415611e5857611e5381612104565b611e97565b8173ffffffffffffffffffffffffffffffffffffffff168373ffffffffffffffffffffffffffffffffffffffff1614611e9657611e95838261214d565b5b5b600073ffffffffffffffffffffffffffffffffffffffff168273ffffffffffffffffffffffffffffffffffffffff161415611eda57611ed5816122ba565b611f19565b8273ffffffffffffffffffffffffffffffffffffffff168273ffffffffffffffffffffffffffffffffffffffff1614611f1857611f17828261238b565b5b5b505050565b600080823b905060008111915050919050565b600073ffffffffffffffffffffffffffffffffffffffff168273ffffffffffffffffffffffffffffffffffffffff161415611fa1576040517f08c379a0000000000000000000000000000000000000000000000000000000008152600401611f98906138c0565b60405180910390fd5b611faa8161131d565b15611fea576040517f08c379a0000000000000000000000000000000000000000000000000000000008152600401611fe19061392c565b60405180910390fd5b611ff660008383611bad565b6001600460008473ffffffffffffffffffffffffffffffffffffffff1673ffffffffffffffffffffffffffffffffffffffff16815260200190815260200160002060008282546120469190613618565b92505081905550816003600083815260200190815260200160002060006101000a81548173ffffffffffffffffffffffffffffffffffffffff021916908373ffffffffffffffffffffffffffffffffffffffff160217905550808273ffffffffffffffffffffffffffffffffffffffff16600073ffffffffffffffffffffffffffffffffffffffff167fddf252ad1be2c89b69c2b068fc378daa952ba7f163c4a11628f55a4df523b3ef60405160405180910390a45050565b505050565b600980549050600a600083815260200190815260200160002081905550600981908060018154018082558091505060019003906000526020600020016000909190919091505550565b6000600161215a846109d7565b61216491906135e4565b9050600060086000848152602001908152602001600020549050818114612249576000600760008673ffffffffffffffffffffffffffffffffffffffff1673ffffffffffffffffffffffffffffffffffffffff168152602001908152602001600020600084815260200190815260200160002054905080600760008773ffffffffffffffffffffffffffffffffffffffff1673ffffffffffffffffffffffffffffffffffffffff168152602001908152602001600020600084815260200190815260200160002081905550816008600083815260200190815260200160002081905550505b6008600084815260200190815260200160002060009055600760008573ffffffffffffffffffffffffffffffffffffffff1673ffffffffffffffffffffffffffffffffffffffff16815260200190815260200160002060008381526020019081526020016000206000905550505050565b600060016009805490506122ce91906135e4565b90506000600a60008481526020019081526020016000205490506000600983815481106122fe576122fd613007565b5b9060005260206000200154905080600983815481106123205761231f613007565b5b906000526020600020018190555081600a600083815260200190815260200160002081905550600a600085815260200190815260200160002060009055600980548061236f5761236e61394c565b5b6001900381819060005260206000200160009055905550505050565b6000612396836109d7565b905081600760008573ffffffffffffffffffffffffffffffffffffffff1673ffffffffffffffffffffffffffffffffffffffff168152602001908152602001600020600083815260200190815260200160002081905550806008600084815260200190815260200160002081905550505050565b82805461241690612c69565b90600052602060002090601f016020900481019282612438576000855561247f565b82601f1061245157805160ff191683800117855561247f565b8280016001018555821561247f579182015b8281111561247e578251825591602001919060010190612463565b5b50905061248c9190612490565b5090565b5b808211156124a9576000816000905550600101612491565b5090565b6000604051905090565b600080fd5b600080fd5b60007fffffffff0000000000000000000000000000000000000000000000000000000082169050919050565b6124f6816124c1565b811461250157600080fd5b50565b600081359050612513816124ed565b92915050565b60006020828403121561252f5761252e6124b7565b5b600061253d84828501612504565b91505092915050565b60008115159050919050565b61255b81612546565b82525050565b60006020820190506125766000830184612552565b92915050565b600081519050919050565b600082825260208201905092915050565b60005b838110156125b657808201518184015260208101905061259b565b838111156125c5576000848401525b50505050565b6000601f19601f8301169050919050565b60006125e78261257c565b6125f18185612587565b9350612601818560208601612598565b61260a816125cb565b840191505092915050565b6000602082019050818103600083015261262f81846125dc565b905092915050565b6000819050919050565b61264a81612637565b811461265557600080fd5b50565b60008135905061266781612641565b92915050565b600060208284031215612683576126826124b7565b5b600061269184828501612658565b91505092915050565b600073ffffffffffffffffffffffffffffffffffffffff82169050919050565b60006126c58261269a565b9050919050565b6126d5816126ba565b82525050565b60006020820190506126f060008301846126cc565b92915050565b6126ff816126ba565b811461270a57600080fd5b50565b60008135905061271c816126f6565b92915050565b60008060408385031215612739576127386124b7565b5b60006127478582860161270d565b925050602061275885828601612658565b9150509250929050565b61276b81612637565b82525050565b60006020820190506127866000830184612762565b92915050565b6000806000606084860312156127a5576127a46124b7565b5b60006127b38682870161270d565b93505060206127c48682870161270d565b92505060406127d586828701612658565b9150509250925092565b600080fd5b600080fd5b7f4e487b7100000000000000000000000000000000000000000000000000000000600052604160045260246000fd5b612821826125cb565b810181811067ffffffffffffffff821117156128405761283f6127e9565b5b80604052505050565b60006128536124ad565b905061285f8282612818565b919050565b600067ffffffffffffffff82111561287f5761287e6127e9565b5b612888826125cb565b9050602081019050919050565b82818337600083830152505050565b60006128b76128b284612864565b612849565b9050828152602081018484840111156128d3576128d26127e4565b5b6128de848285612895565b509392505050565b600082601f8301126128fb576128fa6127df565b5b813561290b8482602086016128a4565b91505092915050565b60006020828403121561292a576129296124b7565b5b600082013567ffffffffffffffff811115612948576129476124bc565b5b612954848285016128e6565b91505092915050565b600060208284031215612973576129726124b7565b5b60006129818482850161270d565b91505092915050565b600081519050919050565b600082825260208201905092915050565b6000819050602082019050919050565b6129bf81612637565b82525050565b60006129d183836129b6565b60208301905092915050565b6000602082019050919050565b60006129f58261298a565b6129ff8185612995565b9350612a0a836129a6565b8060005b83811015612a3b578151612a2288826129c5565b9750612a2d836129dd565b925050600181019050612a0e565b5085935050505092915050565b60006020820190508181036000830152612a6281846129ea565b905092915050565b612a7381612546565b8114612a7e57600080fd5b50565b600081359050612a9081612a6a565b92915050565b60008060408385031215612aad57612aac6124b7565b5b6000612abb8582860161270d565b9250506020612acc85828601612a81565b9150509250929050565b600067ffffffffffffffff821115612af157612af06127e9565b5b612afa826125cb565b9050602081019050919050565b6000612b1a612b1584612ad6565b612849565b905082815260208101848484011115612b3657612b356127e4565b5b612b41848285612895565b509392505050565b600082601f830112612b5e57612b5d6127df565b5b8135612b6e848260208601612b07565b91505092915050565b60008060008060808587031215612b9157612b906124b7565b5b6000612b9f8782880161270d565b9450506020612bb08782880161270d565b9350506040612bc187828801612658565b925050606085013567ffffffffffffffff811115612be257612be16124bc565b5b612bee87828801612b49565b91505092959194509250565b60008060408385031215612c1157612c106124b7565b5b6000612c1f8582860161270d565b9250506020612c308582860161270d565b9150509250929050565b7f4e487b7100000000000000000000000000000000000000000000000000000000600052602260045260246000fd5b60006002820490506001821680612c8157607f821691505b60208210811415612c9557612c94612c3a565b5b50919050565b7f4552433732313a20617070726f76656420717565727920666f72206e6f6e657860008201527f697374656e7420746f6b656e0000000000000000000000000000000000000000602082015250565b6000612cf7602c83612587565b9150612d0282612c9b565b604082019050919050565b60006020820190508181036000830152612d2681612cea565b9050919050565b7f4552433732313a20617070726f76616c20746f2063757272656e74206f776e6560008201527f7200000000000000000000000000000000000000000000000000000000000000602082015250565b6000612d89602183612587565b9150612d9482612d2d565b604082019050919050565b60006020820190508181036000830152612db881612d7c565b9050919050565b7f4552433732313a20617070726f76652063616c6c6572206973206e6f74206f7760008201527f6e6572206e6f7220617070726f76656420666f7220616c6c0000000000000000602082015250565b6000612e1b603883612587565b9150612e2682612dbf565b604082019050919050565b60006020820190508181036000830152612e4a81612e0e565b9050919050565b7f4552433732313a207472616e736665722063616c6c6572206973206e6f74206f60008201527f776e6572206e6f7220617070726f766564000000000000000000000000000000602082015250565b6000612ead603183612587565b9150612eb882612e51565b604082019050919050565b60006020820190508181036000830152612edc81612ea0565b9050919050565b7f455243373231456e756d657261626c653a206f776e657220696e646578206f7560008201527f74206f6620626f756e6473000000000000000000000000000000000000000000602082015250565b6000612f3f602b83612587565b9150612f4a82612ee3565b604082019050919050565b60006020820190508181036000830152612f6e81612f32565b9050919050565b7f455243373231456e756d657261626c653a20676c6f62616c20696e646578206f60008201527f7574206f6620626f756e64730000000000000000000000000000000000000000602082015250565b6000612fd1602c83612587565b9150612fdc82612f75565b604082019050919050565b6000602082019050818103600083015261300081612fc4565b9050919050565b7f4e487b7100000000000000000000000000000000000000000000000000000000600052603260045260246000fd5b7f4f776e61626c653a2063616c6c6572206973206e6f7420746865206f776e6572600082015250565b600061306c602083612587565b915061307782613036565b602082019050919050565b6000602082019050818103600083015261309b8161305f565b9050919050565b7f4552433732313a206f776e657220717565727920666f72206e6f6e657869737460008201527f656e7420746f6b656e0000000000000000000000000000000000000000000000602082015250565b60006130fe602983612587565b9150613109826130a2565b604082019050919050565b6000602082019050818103600083015261312d816130f1565b9050919050565b7f4552433732313a2062616c616e636520717565727920666f7220746865207a6560008201527f726f206164647265737300000000000000000000000000000000000000000000602082015250565b6000613190602a83612587565b915061319b82613134565b604082019050919050565b600060208201905081810360008301526131bf81613183565b9050919050565b7f4e487b7100000000000000000000000000000000000000000000000000000000600052601160045260246000fd5b600061320082612637565b91507fffffffffffffffffffffffffffffffffffffffffffffffffffffffffffffffff821415613233576132326131c6565b5b600182019050919050565b7f4552433732313a20617070726f766520746f2063616c6c657200000000000000600082015250565b6000613274601983612587565b915061327f8261323e565b602082019050919050565b600060208201905081810360008301526132a381613267565b9050919050565b7f4552433732314d657461646174613a2055524920717565727920666f72206e6f60008201527f6e6578697374656e7420746f6b656e0000000000000000000000000000000000602082015250565b6000613306602f83612587565b9150613311826132aa565b604082019050919050565b60006020820190508181036000830152613335816132f9565b9050919050565b600081905092915050565b60006133528261257c565b61335c818561333c565b935061336c818560208601612598565b80840191505092915050565b60006133848285613347565b91506133908284613347565b91508190509392505050565b7f4f776e61626c653a206e6577206f776e657220697320746865207a65726f206160008201527f6464726573730000000000000000000000000000000000000000000000000000602082015250565b60006133f8602683612587565b91506134038261339c565b604082019050919050565b60006020820190508181036000830152613427816133eb565b9050919050565b7f4552433732313a206f70657261746f7220717565727920666f72206e6f6e657860008201527f697374656e7420746f6b656e0000000000000000000000000000000000000000602082015250565b600061348a602c83612587565b91506134958261342e565b604082019050919050565b600060208201905081810360008301526134b98161347d565b9050919050565b7f4552433732313a207472616e73666572206f6620746f6b656e2074686174206960008201527f73206e6f74206f776e0000000000000000000000000000000000000000000000602082015250565b600061351c602983612587565b9150613527826134c0565b604082019050919050565b6000602082019050818103600083015261354b8161350f565b9050919050565b7f4552433732313a207472616e7366657220746f20746865207a65726f2061646460008201527f7265737300000000000000000000000000000000000000000000000000000000602082015250565b60006135ae602483612587565b91506135b982613552565b604082019050919050565b600060208201905081810360008301526135dd816135a1565b9050919050565b60006135ef82612637565b91506135fa83612637565b92508282101561360d5761360c6131c6565b5b828203905092915050565b600061362382612637565b915061362e83612637565b9250827fffffffffffffffffffffffffffffffffffffffffffffffffffffffffffffffff03821115613663576136626131c6565b5b828201905092915050565b7f4552433732313a207472616e7366657220746f206e6f6e20455243373231526560008201527f63656976657220696d706c656d656e7465720000000000000000000000000000602082015250565b60006136ca603283612587565b91506136d58261366e565b604082019050919050565b600060208201905081810360008301526136f9816136bd565b9050919050565b7f4e487b7100000000000000000000000000000000000000000000000000000000600052601260045260246000fd5b600061373a82612637565b915061374583612637565b92508261375557613754613700565b5b828204905092915050565b600061376b82612637565b915061377683612637565b92508261378657613785613700565b5b828206905092915050565b600081519050919050565b600082825260208201905092915050565b60006137b882613791565b6137c2818561379c565b93506137d2818560208601612598565b6137db816125cb565b840191505092915050565b60006080820190506137fb60008301876126cc565b61380860208301866126cc565b6138156040830185612762565b818103606083015261382781846137ad565b905095945050505050565b600081519050613841816124ed565b92915050565b60006020828403121561385d5761385c6124b7565b5b600061386b84828501613832565b91505092915050565b7f4552433732313a206d696e7420746f20746865207a65726f2061646472657373600082015250565b60006138aa602083612587565b91506138b582613874565b602082019050919050565b600060208201905081810360008301526138d98161389d565b9050919050565b7f4552433732313a20746f6b656e20616c7265616479206d696e74656400000000600082015250565b6000613916601c83612587565b9150613921826138e0565b602082019050919050565b6000602082019050818103600083015261394581613909565b9050919050565b7f4e487b7100000000000000000000000000000000000000000000000000000000600052603160045260246000fdfea2646970667358221220e0fdd6dba62c6db0b00cb338391cf9cc7ef91c72efc6e241baf6b09aecfb71bb64736f6c634300080a0033",
  "immutableReferences": {},
  "source": "// SPDX-License-Identifier: MIT\r\npragma solidity ^0.8.9;\r\n\r\nimport \"@openzeppelin/contracts/token/ERC721/ERC721.sol\";\r\n\r\nimport \"@openzeppelin/contracts/access/Ownable.sol\";\r\n\r\nimport \"@openzeppelin/contracts/utils/math/SafeMath.sol\";\r\n\r\nimport \"@openzeppelin/contracts/token/ERC721/extensions/ERC721Enumerable.sol\";\r\n\r\ncontract MyToken is Ownable, ERC721, ERC721Enumerable{\r\n\r\n     using SafeMath for uint256;\r\n\r\n    constructor() ERC721(\"MyFile\",\"FIL\"){}\r\n\r\n    struct Metadata{\r\n        string text;\r\n    }\r\n\r\n    mapping (uint256 => Metadata) id_to_text;\r\n\r\n    mapping (address => uint) ownerNftCount;\r\n\r\n   // mapping (address => uint256[]) nftsOwned;\r\n\r\n    uint public tokensCount;\r\n\r\n    string private _currentBaseURI;\r\n\r\n    function setBaseURI(string memory baseURI) public onlyOwner {\r\n        _currentBaseURI = baseURI;\r\n    }\r\n\r\n    function _baseURI() internal view virtual override returns (string memory) {\r\n        return _currentBaseURI;\r\n    }\r\n\r\n    function mint(string memory text) external {\r\n\r\n        uint256 tokenId = tokensCount++;\r\n\r\n        ownerNftCount[msg.sender] = ownerNftCount[msg.sender].add(1);\r\n\r\n        id_to_text[tokenId] = Metadata(text);\r\n        \r\n        //increases array length\r\n       // nftsOwned[msg.sender].length.add(1);\r\n\r\n       // uint256 arrLength = nftsOwned[msg.sender].length;\r\n\r\n        //adds token to array of tokens of curr address\r\n        //nftsOwned[msg.sender][arrLength - 1] = tokenId;\r\n\r\n        id_to_text[tokenId] = Metadata(text);\r\n        tokensCount++;\r\n        _safeMint(msg.sender, tokenId);\r\n\r\n    }\r\n\r\n    function getNftText(uint _tokenId) public view returns (string memory){\r\n        return id_to_text[_tokenId].text;\r\n    }\r\n\r\n    function getOwnedNfts() public view returns(uint[] memory){\r\n\r\n        uint userBalance = balanceOf(msg.sender);\r\n        uint[] memory tokenIds = new uint[](userBalance);\r\n        for(uint i = 0; i < userBalance; i++){\r\n          uint currTokenId = tokenOfOwnerByIndex(msg.sender,i);\r\n          tokenIds[i] = currTokenId;\r\n        }\r\n\r\n        return tokenIds; \r\n    }\r\n\r\n     function supportsInterface(bytes4 interfaceId) public view virtual override(ERC721,ERC721Enumerable) returns (bool) {\r\n        return super.supportsInterface(interfaceId);\r\n    }\r\n\r\n    function _beforeTokenTransfer(address from, address to, uint256 tokenId) internal virtual override(ERC721,ERC721Enumerable) {\r\n        super._beforeTokenTransfer(from, to, tokenId);\r\n    }\r\n}\r\n\r\n",
  "sourcePath": "C:\\Users\\pedro\\OneDrive\\Ambiente de Trabalho\\newDapp\\Editor\\contracts\\MyToken.sol",
  "compiler": {
    "name": "solc",
    "version": "0.8.10+commit.fc410830.Emscripten.clang"
  },
  "schemaVersion": "3.4.3",
  "updatedAt": "2021-11-21T17:18:23.918Z",
  "devdoc": {
    "kind": "dev",
    "methods": {
      "approve(address,uint256)": {
        "details": "See {IERC721-approve}."
      },
      "balanceOf(address)": {
        "details": "See {IERC721-balanceOf}."
      },
      "getApproved(uint256)": {
        "details": "See {IERC721-getApproved}."
      },
      "isApprovedForAll(address,address)": {
        "details": "See {IERC721-isApprovedForAll}."
      },
      "name()": {
        "details": "See {IERC721Metadata-name}."
      },
      "owner()": {
        "details": "Returns the address of the current owner."
      },
      "ownerOf(uint256)": {
        "details": "See {IERC721-ownerOf}."
      },
      "renounceOwnership()": {
        "details": "Leaves the contract without owner. It will not be possible to call `onlyOwner` functions anymore. Can only be called by the current owner. NOTE: Renouncing ownership will leave the contract without an owner, thereby removing any functionality that is only available to the owner."
      },
      "safeTransferFrom(address,address,uint256)": {
        "details": "See {IERC721-safeTransferFrom}."
      },
      "safeTransferFrom(address,address,uint256,bytes)": {
        "details": "See {IERC721-safeTransferFrom}."
      },
      "setApprovalForAll(address,bool)": {
        "details": "See {IERC721-setApprovalForAll}."
      },
      "symbol()": {
        "details": "See {IERC721Metadata-symbol}."
      },
      "tokenByIndex(uint256)": {
        "details": "See {IERC721Enumerable-tokenByIndex}."
      },
      "tokenOfOwnerByIndex(address,uint256)": {
        "details": "See {IERC721Enumerable-tokenOfOwnerByIndex}."
      },
      "tokenURI(uint256)": {
        "details": "See {IERC721Metadata-tokenURI}."
      },
      "totalSupply()": {
        "details": "See {IERC721Enumerable-totalSupply}."
      },
      "transferFrom(address,address,uint256)": {
        "details": "See {IERC721-transferFrom}."
      },
      "transferOwnership(address)": {
        "details": "Transfers ownership of the contract to a new account (`newOwner`). Can only be called by the current owner."
      }
    },
    "version": 1
  },
  "userdoc": {
    "kind": "user",
    "methods": {},
    "version": 1
  }
}