{
  "contractName": "MyToken",
  "abi": [
    {
      "inputs": [],
      "stateMutability": "nonpayable",
      "type": "constructor"
    },
    {
      "anonymous": false,
      "inputs": [
        {
          "indexed": true,
          "internalType": "address",
          "name": "owner",
          "type": "address"
        },
        {
          "indexed": true,
          "internalType": "address",
          "name": "approved",
          "type": "address"
        },
        {
          "indexed": true,
          "internalType": "uint256",
          "name": "tokenId",
          "type": "uint256"
        }
      ],
      "name": "Approval",
      "type": "event"
    },
    {
      "anonymous": false,
      "inputs": [
        {
          "indexed": true,
          "internalType": "address",
          "name": "owner",
          "type": "address"
        },
        {
          "indexed": true,
          "internalType": "address",
          "name": "operator",
          "type": "address"
        },
        {
          "indexed": false,
          "internalType": "bool",
          "name": "approved",
          "type": "bool"
        }
      ],
      "name": "ApprovalForAll",
      "type": "event"
    },
    {
      "anonymous": false,
      "inputs": [
        {
          "indexed": true,
          "internalType": "address",
          "name": "previousOwner",
          "type": "address"
        },
        {
          "indexed": true,
          "internalType": "address",
          "name": "newOwner",
          "type": "address"
        }
      ],
      "name": "OwnershipTransferred",
      "type": "event"
    },
    {
      "anonymous": false,
      "inputs": [
        {
          "indexed": true,
          "internalType": "address",
          "name": "from",
          "type": "address"
        },
        {
          "indexed": true,
          "internalType": "address",
          "name": "to",
          "type": "address"
        },
        {
          "indexed": true,
          "internalType": "uint256",
          "name": "tokenId",
          "type": "uint256"
        }
      ],
      "name": "Transfer",
      "type": "event"
    },
    {
      "inputs": [
        {
          "internalType": "address",
          "name": "to",
          "type": "address"
        },
        {
          "internalType": "uint256",
          "name": "tokenId",
          "type": "uint256"
        }
      ],
      "name": "approve",
      "outputs": [],
      "stateMutability": "nonpayable",
      "type": "function"
    },
    {
      "inputs": [
        {
          "internalType": "address",
          "name": "owner",
          "type": "address"
        }
      ],
      "name": "balanceOf",
      "outputs": [
        {
          "internalType": "uint256",
          "name": "",
          "type": "uint256"
        }
      ],
      "stateMutability": "view",
      "type": "function",
      "constant": true
    },
    {
      "inputs": [
        {
          "internalType": "uint256",
          "name": "tokenId",
          "type": "uint256"
        }
      ],
      "name": "getApproved",
      "outputs": [
        {
          "internalType": "address",
          "name": "",
          "type": "address"
        }
      ],
      "stateMutability": "view",
      "type": "function",
      "constant": true
    },
    {
      "inputs": [
        {
          "internalType": "address",
          "name": "owner",
          "type": "address"
        },
        {
          "internalType": "address",
          "name": "operator",
          "type": "address"
        }
      ],
      "name": "isApprovedForAll",
      "outputs": [
        {
          "internalType": "bool",
          "name": "",
          "type": "bool"
        }
      ],
      "stateMutability": "view",
      "type": "function",
      "constant": true
    },
    {
      "inputs": [],
      "name": "name",
      "outputs": [
        {
          "internalType": "string",
          "name": "",
          "type": "string"
        }
      ],
      "stateMutability": "view",
      "type": "function",
      "constant": true
    },
    {
      "inputs": [],
      "name": "owner",
      "outputs": [
        {
          "internalType": "address",
          "name": "",
          "type": "address"
        }
      ],
      "stateMutability": "view",
      "type": "function",
      "constant": true
    },
    {
      "inputs": [
        {
          "internalType": "uint256",
          "name": "tokenId",
          "type": "uint256"
        }
      ],
      "name": "ownerOf",
      "outputs": [
        {
          "internalType": "address",
          "name": "",
          "type": "address"
        }
      ],
      "stateMutability": "view",
      "type": "function",
      "constant": true
    },
    {
      "inputs": [],
      "name": "renounceOwnership",
      "outputs": [],
      "stateMutability": "nonpayable",
      "type": "function"
    },
    {
      "inputs": [
        {
          "internalType": "address",
          "name": "from",
          "type": "address"
        },
        {
          "internalType": "address",
          "name": "to",
          "type": "address"
        },
        {
          "internalType": "uint256",
          "name": "tokenId",
          "type": "uint256"
        }
      ],
      "name": "safeTransferFrom",
      "outputs": [],
      "stateMutability": "nonpayable",
      "type": "function"
    },
    {
      "inputs": [
        {
          "internalType": "address",
          "name": "from",
          "type": "address"
        },
        {
          "internalType": "address",
          "name": "to",
          "type": "address"
        },
        {
          "internalType": "uint256",
          "name": "tokenId",
          "type": "uint256"
        },
        {
          "internalType": "bytes",
          "name": "_data",
          "type": "bytes"
        }
      ],
      "name": "safeTransferFrom",
      "outputs": [],
      "stateMutability": "nonpayable",
      "type": "function"
    },
    {
      "inputs": [
        {
          "internalType": "address",
          "name": "operator",
          "type": "address"
        },
        {
          "internalType": "bool",
          "name": "approved",
          "type": "bool"
        }
      ],
      "name": "setApprovalForAll",
      "outputs": [],
      "stateMutability": "nonpayable",
      "type": "function"
    },
    {
      "inputs": [],
      "name": "symbol",
      "outputs": [
        {
          "internalType": "string",
          "name": "",
          "type": "string"
        }
      ],
      "stateMutability": "view",
      "type": "function",
      "constant": true
    },
    {
      "inputs": [
        {
          "internalType": "uint256",
          "name": "index",
          "type": "uint256"
        }
      ],
      "name": "tokenByIndex",
      "outputs": [
        {
          "internalType": "uint256",
          "name": "",
          "type": "uint256"
        }
      ],
      "stateMutability": "view",
      "type": "function",
      "constant": true
    },
    {
      "inputs": [
        {
          "internalType": "address",
          "name": "owner",
          "type": "address"
        },
        {
          "internalType": "uint256",
          "name": "index",
          "type": "uint256"
        }
      ],
      "name": "tokenOfOwnerByIndex",
      "outputs": [
        {
          "internalType": "uint256",
          "name": "",
          "type": "uint256"
        }
      ],
      "stateMutability": "view",
      "type": "function",
      "constant": true
    },
    {
      "inputs": [],
      "name": "tokensCount",
      "outputs": [
        {
          "internalType": "uint256",
          "name": "",
          "type": "uint256"
        }
      ],
      "stateMutability": "view",
      "type": "function",
      "constant": true
    },
    {
      "inputs": [],
      "name": "totalSupply",
      "outputs": [
        {
          "internalType": "uint256",
          "name": "",
          "type": "uint256"
        }
      ],
      "stateMutability": "view",
      "type": "function",
      "constant": true
    },
    {
      "inputs": [
        {
          "internalType": "address",
          "name": "from",
          "type": "address"
        },
        {
          "internalType": "address",
          "name": "to",
          "type": "address"
        },
        {
          "internalType": "uint256",
          "name": "tokenId",
          "type": "uint256"
        }
      ],
      "name": "transferFrom",
      "outputs": [],
      "stateMutability": "nonpayable",
      "type": "function"
    },
    {
      "inputs": [
        {
          "internalType": "address",
          "name": "newOwner",
          "type": "address"
        }
      ],
      "name": "transferOwnership",
      "outputs": [],
      "stateMutability": "nonpayable",
      "type": "function"
    },
    {
      "inputs": [
        {
          "internalType": "string",
          "name": "hash",
          "type": "string"
        },
        {
          "internalType": "string",
          "name": "metadata",
          "type": "string"
        }
      ],
      "name": "mint",
      "outputs": [],
      "stateMutability": "nonpayable",
      "type": "function"
    },
    {
      "inputs": [
        {
          "internalType": "uint256",
          "name": "_tokenId",
          "type": "uint256"
        }
      ],
      "name": "getNftText",
      "outputs": [
        {
          "internalType": "string",
          "name": "",
          "type": "string"
        }
      ],
      "stateMutability": "view",
      "type": "function",
      "constant": true
    },
    {
      "inputs": [],
      "name": "getOwnedNfts",
      "outputs": [
        {
          "internalType": "uint256[]",
          "name": "",
          "type": "uint256[]"
        }
      ],
      "stateMutability": "view",
      "type": "function",
      "constant": true
    },
    {
      "inputs": [
        {
          "internalType": "address",
          "name": "to",
          "type": "address"
        },
        {
          "internalType": "uint256",
          "name": "tokenId",
          "type": "uint256"
        }
      ],
      "name": "sendNft",
      "outputs": [],
      "stateMutability": "nonpayable",
      "type": "function"
    },
    {
      "inputs": [
        {
          "internalType": "bytes4",
          "name": "interfaceId",
          "type": "bytes4"
        }
      ],
      "name": "supportsInterface",
      "outputs": [
        {
          "internalType": "bool",
          "name": "",
          "type": "bool"
        }
      ],
      "stateMutability": "view",
      "type": "function",
      "constant": true
    },
    {
      "inputs": [
        {
          "internalType": "uint256",
          "name": "tokenId",
          "type": "uint256"
        }
      ],
      "name": "tokenURI",
      "outputs": [
        {
          "internalType": "string",
          "name": "",
          "type": "string"
        }
      ],
      "stateMutability": "view",
      "type": "function",
      "constant": true
    }
  ],
  "bytecode": "0x60806040523480156200001157600080fd5b506040518060400160405280600681526020017f4d7946696c6500000000000000000000000000000000000000000000000000008152506040518060400160405280600381526020017f46494c00000000000000000000000000000000000000000000000000000000008152506200009e62000092620000d860201b60201c565b620000e060201b60201c565b8160019080519060200190620000b6929190620001a4565b508060029080519060200190620000cf929190620001a4565b505050620002b9565b600033905090565b60008060009054906101000a900473ffffffffffffffffffffffffffffffffffffffff169050816000806101000a81548173ffffffffffffffffffffffffffffffffffffffff021916908373ffffffffffffffffffffffffffffffffffffffff1602179055508173ffffffffffffffffffffffffffffffffffffffff168173ffffffffffffffffffffffffffffffffffffffff167f8be0079c531659141344cd1fd0a4f28419497f9722a3daafe3b4186f6b6457e060405160405180910390a35050565b828054620001b29062000283565b90600052602060002090601f016020900481019282620001d6576000855562000222565b82601f10620001f157805160ff191683800117855562000222565b8280016001018555821562000222579182015b828111156200022157825182559160200191906001019062000204565b5b50905062000231919062000235565b5090565b5b808211156200025057600081600090555060010162000236565b5090565b7f4e487b7100000000000000000000000000000000000000000000000000000000600052602260045260246000fd5b600060028204905060018216806200029c57607f821691505b60208210811415620002b357620002b262000254565b5b50919050565b613da380620002c96000396000f3fe608060405234801561001057600080fd5b50600436106101585760003560e01c806370cbcb43116100c3578063a64ed8ba1161007c578063a64ed8ba146103c5578063b88d4fde146103e3578063c87b56dd146103ff578063e985e9c51461042f578063f2fde38b1461045f578063fcf368511461047b57610158565b806370cbcb4314610329578063715018a6146103475780638aa0fdad146103515780638da5cb5b1461036d57806395d89b411461038b578063a22cb465146103a957610158565b806323b872dd1161011557806323b872dd146102315780632f745c591461024d57806342842e0e1461027d5780634f6ccce7146102995780636352211e146102c957806370a08231146102f957610158565b806301ffc9a71461015d57806306fdde031461018d578063081812fc146101ab578063095ea7b3146101db5780630f156837146101f757806318160ddd14610213575b600080fd5b610177600480360381019061017291906127a1565b6104ab565b60405161018491906127e9565b60405180910390f35b6101956104bd565b6040516101a2919061289d565b60405180910390f35b6101c560048036038101906101c091906128f5565b61054f565b6040516101d29190612963565b60405180910390f35b6101f560048036038101906101f091906129aa565b6105d4565b005b610211600480360381019061020c91906129aa565b6106ec565b005b61021b610872565b60405161022891906129f9565b60405180910390f35b61024b60048036038101906102469190612a14565b61087f565b005b610267600480360381019061026291906129aa565b6108df565b60405161027491906129f9565b60405180910390f35b61029760048036038101906102929190612a14565b610984565b005b6102b360048036038101906102ae91906128f5565b6109a4565b6040516102c091906129f9565b60405180910390f35b6102e360048036038101906102de91906128f5565b610a15565b6040516102f09190612963565b60405180910390f35b610313600480360381019061030e9190612a67565b610ac7565b60405161032091906129f9565b60405180910390f35b610331610b7f565b60405161033e9190612b52565b60405180910390f35b61034f610c31565b005b61036b60048036038101906103669190612ca9565b610cb9565b005b610375610e39565b6040516103829190612963565b60405180910390f35b610393610e62565b6040516103a0919061289d565b60405180910390f35b6103c360048036038101906103be9190612d4d565b610ef4565b005b6103cd611075565b6040516103da91906129f9565b60405180910390f35b6103fd60048036038101906103f89190612e2e565b61107b565b005b610419600480360381019061041491906128f5565b6110dd565b604051610426919061289d565b60405180910390f35b61044960048036038101906104449190612eb1565b6110ef565b60405161045691906127e9565b60405180910390f35b61047960048036038101906104749190612a67565b611183565b005b610495600480360381019061049091906128f5565b61127b565b6040516104a2919061289d565b60405180910390f35b60006104b682611323565b9050919050565b6060600180546104cc90612f20565b80601f01602080910402602001604051908101604052809291908181526020018280546104f890612f20565b80156105455780601f1061051a57610100808354040283529160200191610545565b820191906000526020600020905b81548152906001019060200180831161052857829003601f168201915b5050505050905090565b600061055a8261139d565b610599576040517f08c379a000000000000000000000000000000000000000000000000000000000815260040161059090612fc4565b60405180910390fd5b6005600083815260200190815260200160002060009054906101000a900473ffffffffffffffffffffffffffffffffffffffff169050919050565b60006105df82610a15565b90508073ffffffffffffffffffffffffffffffffffffffff168373ffffffffffffffffffffffffffffffffffffffff161415610650576040517f08c379a000000000000000000000000000000000000000000000000000000000815260040161064790613056565b60405180910390fd5b8073ffffffffffffffffffffffffffffffffffffffff1661066f611409565b73ffffffffffffffffffffffffffffffffffffffff16148061069e575061069d81610698611409565b6110ef565b5b6106dd576040517f08c379a00000000000000000000000000000000000000000000000000000000081526004016106d4906130e8565b60405180910390fd5b6106e78383611411565b505050565b3373ffffffffffffffffffffffffffffffffffffffff1661070c82610a15565b73ffffffffffffffffffffffffffffffffffffffff161461072c57600080fd5b61077f6001600d60003373ffffffffffffffffffffffffffffffffffffffff1673ffffffffffffffffffffffffffffffffffffffff168152602001908152602001600020546114ca90919063ffffffff16565b600d60003373ffffffffffffffffffffffffffffffffffffffff1673ffffffffffffffffffffffffffffffffffffffff168152602001908152602001600020819055506108156001600d60008573ffffffffffffffffffffffffffffffffffffffff1673ffffffffffffffffffffffffffffffffffffffff168152602001908152602001600020546114e090919063ffffffff16565b600d60008473ffffffffffffffffffffffffffffffffffffffff1673ffffffffffffffffffffffffffffffffffffffff168152602001908152602001600020819055506108633383836114f6565b61086e33838361087f565b5050565b6000600980549050905090565b61089061088a611409565b82611506565b6108cf576040517f08c379a00000000000000000000000000000000000000000000000000000000081526004016108c69061317a565b60405180910390fd5b6108da8383836115e4565b505050565b60006108ea83610ac7565b821061092b576040517f08c379a00000000000000000000000000000000000000000000000000000000081526004016109229061320c565b60405180910390fd5b600760008473ffffffffffffffffffffffffffffffffffffffff1673ffffffffffffffffffffffffffffffffffffffff168152602001908152602001600020600083815260200190815260200160002054905092915050565b61099f8383836040518060200160405280600081525061107b565b505050565b60006109ae610872565b82106109ef576040517f08c379a00000000000000000000000000000000000000000000000000000000081526004016109e69061329e565b60405180910390fd5b60098281548110610a0357610a026132be565b5b90600052602060002001549050919050565b6000806003600084815260200190815260200160002060009054906101000a900473ffffffffffffffffffffffffffffffffffffffff169050600073ffffffffffffffffffffffffffffffffffffffff168173ffffffffffffffffffffffffffffffffffffffff161415610abe576040517f08c379a0000000000000000000000000000000000000000000000000000000008152600401610ab59061335f565b60405180910390fd5b80915050919050565b60008073ffffffffffffffffffffffffffffffffffffffff168273ffffffffffffffffffffffffffffffffffffffff161415610b38576040517f08c379a0000000000000000000000000000000000000000000000000000000008152600401610b2f906133f1565b60405180910390fd5b600460008373ffffffffffffffffffffffffffffffffffffffff1673ffffffffffffffffffffffffffffffffffffffff168152602001908152602001600020549050919050565b60606000610b8c33610ac7565b905060008167ffffffffffffffff811115610baa57610ba9612b7e565b5b604051908082528060200260200182016040528015610bd85781602001602082028036833780820191505090505b50905060005b82811015610c28576000610bf233836108df565b905080838381518110610c0857610c076132be565b5b602002602001018181525050508080610c2090613440565b915050610bde565b50809250505090565b610c39611409565b73ffffffffffffffffffffffffffffffffffffffff16610c57610e39565b73ffffffffffffffffffffffffffffffffffffffff1614610cad576040517f08c379a0000000000000000000000000000000000000000000000000000000008152600401610ca4906134d5565b60405180910390fd5b610cb76000611840565b565b6001600e83604051610ccb9190613531565b908152602001604051809103902060009054906101000a900460ff1660ff161415610cf557600080fd5b6000600f6000815480929190610d0a90613440565b9190505590506001600e84604051610d229190613531565b908152602001604051809103902060006101000a81548160ff021916908360ff160217905550610d9b6001600d60003373ffffffffffffffffffffffffffffffffffffffff1673ffffffffffffffffffffffffffffffffffffffff168152602001908152602001600020546114e090919063ffffffff16565b600d60003373ffffffffffffffffffffffffffffffffffffffff1673ffffffffffffffffffffffffffffffffffffffff16815260200190815260200160002081905550604051806020016040528083815250600c60008381526020019081526020016000206000820151816000019080519060200190610e1c929190612692565b50905050610e2a3382611904565b610e348183611922565b505050565b60008060009054906101000a900473ffffffffffffffffffffffffffffffffffffffff16905090565b606060028054610e7190612f20565b80601f0160208091040260200160405190810160405280929190818152602001828054610e9d90612f20565b8015610eea5780601f10610ebf57610100808354040283529160200191610eea565b820191906000526020600020905b815481529060010190602001808311610ecd57829003601f168201915b5050505050905090565b610efc611409565b73ffffffffffffffffffffffffffffffffffffffff168273ffffffffffffffffffffffffffffffffffffffff161415610f6a576040517f08c379a0000000000000000000000000000000000000000000000000000000008152600401610f6190613594565b60405180910390fd5b8060066000610f77611409565b73ffffffffffffffffffffffffffffffffffffffff1673ffffffffffffffffffffffffffffffffffffffff16815260200190815260200160002060008473ffffffffffffffffffffffffffffffffffffffff1673ffffffffffffffffffffffffffffffffffffffff16815260200190815260200160002060006101000a81548160ff0219169083151502179055508173ffffffffffffffffffffffffffffffffffffffff16611024611409565b73ffffffffffffffffffffffffffffffffffffffff167f17307eab39ab6107e8899845ad3d59bd9653f200f220920489ca2b5937696c318360405161106991906127e9565b60405180910390a35050565b600f5481565b61108c611086611409565b83611506565b6110cb576040517f08c379a00000000000000000000000000000000000000000000000000000000081526004016110c29061317a565b60405180910390fd5b6110d784848484611996565b50505050565b60606110e8826119f2565b9050919050565b6000600660008473ffffffffffffffffffffffffffffffffffffffff1673ffffffffffffffffffffffffffffffffffffffff16815260200190815260200160002060008373ffffffffffffffffffffffffffffffffffffffff1673ffffffffffffffffffffffffffffffffffffffff16815260200190815260200160002060009054906101000a900460ff16905092915050565b61118b611409565b73ffffffffffffffffffffffffffffffffffffffff166111a9610e39565b73ffffffffffffffffffffffffffffffffffffffff16146111ff576040517f08c379a00000000000000000000000000000000000000000000000000000000081526004016111f6906134d5565b60405180910390fd5b600073ffffffffffffffffffffffffffffffffffffffff168173ffffffffffffffffffffffffffffffffffffffff16141561126f576040517f08c379a000000000000000000000000000000000000000000000000000000000815260040161126690613626565b60405180910390fd5b61127881611840565b50565b6060600c6000838152602001908152602001600020600001805461129e90612f20565b80601f01602080910402602001604051908101604052809291908181526020018280546112ca90612f20565b80156113175780601f106112ec57610100808354040283529160200191611317565b820191906000526020600020905b8154815290600101906020018083116112fa57829003601f168201915b50505050509050919050565b60007f780e9d63000000000000000000000000000000000000000000000000000000007bffffffffffffffffffffffffffffffffffffffffffffffffffffffff1916827bffffffffffffffffffffffffffffffffffffffffffffffffffffffff19161480611396575061139582611b44565b5b9050919050565b60008073ffffffffffffffffffffffffffffffffffffffff166003600084815260200190815260200160002060009054906101000a900473ffffffffffffffffffffffffffffffffffffffff1673ffffffffffffffffffffffffffffffffffffffff1614159050919050565b600033905090565b816005600083815260200190815260200160002060006101000a81548173ffffffffffffffffffffffffffffffffffffffff021916908373ffffffffffffffffffffffffffffffffffffffff160217905550808273ffffffffffffffffffffffffffffffffffffffff1661148483610a15565b73ffffffffffffffffffffffffffffffffffffffff167f8c5be1e5ebec7d5bd14f71427d1e84f3dd0314c0f7b2291e5b200ac8c7c3b92560405160405180910390a45050565b600081836114d89190613646565b905092915050565b600081836114ee919061367a565b905092915050565b611501838383611c26565b505050565b60006115118261139d565b611550576040517f08c379a000000000000000000000000000000000000000000000000000000000815260040161154790613742565b60405180910390fd5b600061155b83610a15565b90508073ffffffffffffffffffffffffffffffffffffffff168473ffffffffffffffffffffffffffffffffffffffff1614806115ca57508373ffffffffffffffffffffffffffffffffffffffff166115b28461054f565b73ffffffffffffffffffffffffffffffffffffffff16145b806115db57506115da81856110ef565b5b91505092915050565b8273ffffffffffffffffffffffffffffffffffffffff1661160482610a15565b73ffffffffffffffffffffffffffffffffffffffff161461165a576040517f08c379a0000000000000000000000000000000000000000000000000000000008152600401611651906137d4565b60405180910390fd5b600073ffffffffffffffffffffffffffffffffffffffff168273ffffffffffffffffffffffffffffffffffffffff1614156116ca576040517f08c379a00000000000000000000000000000000000000000000000000000000081526004016116c190613866565b60405180910390fd5b6116d58383836114f6565b6116e0600082611411565b6001600460008573ffffffffffffffffffffffffffffffffffffffff1673ffffffffffffffffffffffffffffffffffffffff16815260200190815260200160002060008282546117309190613646565b925050819055506001600460008473ffffffffffffffffffffffffffffffffffffffff1673ffffffffffffffffffffffffffffffffffffffff1681526020019081526020016000206000828254611787919061367a565b92505081905550816003600083815260200190815260200160002060006101000a81548173ffffffffffffffffffffffffffffffffffffffff021916908373ffffffffffffffffffffffffffffffffffffffff160217905550808273ffffffffffffffffffffffffffffffffffffffff168473ffffffffffffffffffffffffffffffffffffffff167fddf252ad1be2c89b69c2b068fc378daa952ba7f163c4a11628f55a4df523b3ef60405160405180910390a4505050565b60008060009054906101000a900473ffffffffffffffffffffffffffffffffffffffff169050816000806101000a81548173ffffffffffffffffffffffffffffffffffffffff021916908373ffffffffffffffffffffffffffffffffffffffff1602179055508173ffffffffffffffffffffffffffffffffffffffff168173ffffffffffffffffffffffffffffffffffffffff167f8be0079c531659141344cd1fd0a4f28419497f9722a3daafe3b4186f6b6457e060405160405180910390a35050565b61191e828260405180602001604052806000815250611d3a565b5050565b61192b8261139d565b61196a576040517f08c379a0000000000000000000000000000000000000000000000000000000008152600401611961906138f8565b60405180910390fd5b80600b60008481526020019081526020016000209080519060200190611991929190612692565b505050565b6119a18484846115e4565b6119ad84848484611d95565b6119ec576040517f08c379a00000000000000000000000000000000000000000000000000000000081526004016119e39061398a565b60405180910390fd5b50505050565b60606119fd8261139d565b611a3c576040517f08c379a0000000000000000000000000000000000000000000000000000000008152600401611a3390613a1c565b60405180910390fd5b6000600b60008481526020019081526020016000208054611a5c90612f20565b80601f0160208091040260200160405190810160405280929190818152602001828054611a8890612f20565b8015611ad55780601f10611aaa57610100808354040283529160200191611ad5565b820191906000526020600020905b815481529060010190602001808311611ab857829003601f168201915b505050505090506000611ae6611f1d565b9050600081511415611afc578192505050611b3f565b600082511115611b31578082604051602001611b19929190613a3c565b60405160208183030381529060405292505050611b3f565b611b3a84611f34565b925050505b919050565b60007f80ac58cd000000000000000000000000000000000000000000000000000000007bffffffffffffffffffffffffffffffffffffffffffffffffffffffff1916827bffffffffffffffffffffffffffffffffffffffffffffffffffffffff19161480611c0f57507f5b5e139f000000000000000000000000000000000000000000000000000000007bffffffffffffffffffffffffffffffffffffffffffffffffffffffff1916827bffffffffffffffffffffffffffffffffffffffffffffffffffffffff1916145b80611c1f5750611c1e82611fdb565b5b9050919050565b611c31838383612045565b600073ffffffffffffffffffffffffffffffffffffffff168373ffffffffffffffffffffffffffffffffffffffff161415611c7457611c6f8161204a565b611cb3565b8173ffffffffffffffffffffffffffffffffffffffff168373ffffffffffffffffffffffffffffffffffffffff1614611cb257611cb18382612093565b5b5b600073ffffffffffffffffffffffffffffffffffffffff168273ffffffffffffffffffffffffffffffffffffffff161415611cf657611cf181612200565b611d35565b8273ffffffffffffffffffffffffffffffffffffffff168273ffffffffffffffffffffffffffffffffffffffff1614611d3457611d3382826122d1565b5b5b505050565b611d448383612350565b611d516000848484611d95565b611d90576040517f08c379a0000000000000000000000000000000000000000000000000000000008152600401611d879061398a565b60405180910390fd5b505050565b6000611db68473ffffffffffffffffffffffffffffffffffffffff1661251e565b15611f10578373ffffffffffffffffffffffffffffffffffffffff1663150b7a02611ddf611409565b8786866040518563ffffffff1660e01b8152600401611e019493929190613ab5565b6020604051808303816000875af1925050508015611e3d57506040513d601f19601f82011682018060405250810190611e3a9190613b16565b60015b611ec0573d8060008114611e6d576040519150601f19603f3d011682016040523d82523d6000602084013e611e72565b606091505b50600081511415611eb8576040517f08c379a0000000000000000000000000000000000000000000000000000000008152600401611eaf9061398a565b60405180910390fd5b805181602001fd5b63150b7a0260e01b7bffffffffffffffffffffffffffffffffffffffffffffffffffffffff1916817bffffffffffffffffffffffffffffffffffffffffffffffffffffffff191614915050611f15565b600190505b949350505050565b606060405180602001604052806000815250905090565b6060611f3f8261139d565b611f7e576040517f08c379a0000000000000000000000000000000000000000000000000000000008152600401611f7590613bb5565b60405180910390fd5b6000611f88611f1d565b90506000815111611fa85760405180602001604052806000815250611fd3565b80611fb284612531565b604051602001611fc3929190613a3c565b6040516020818303038152906040525b915050919050565b60007f01ffc9a7000000000000000000000000000000000000000000000000000000007bffffffffffffffffffffffffffffffffffffffffffffffffffffffff1916827bffffffffffffffffffffffffffffffffffffffffffffffffffffffff1916149050919050565b505050565b600980549050600a600083815260200190815260200160002081905550600981908060018154018082558091505060019003906000526020600020016000909190919091505550565b600060016120a084610ac7565b6120aa9190613646565b905060006008600084815260200190815260200160002054905081811461218f576000600760008673ffffffffffffffffffffffffffffffffffffffff1673ffffffffffffffffffffffffffffffffffffffff168152602001908152602001600020600084815260200190815260200160002054905080600760008773ffffffffffffffffffffffffffffffffffffffff1673ffffffffffffffffffffffffffffffffffffffff168152602001908152602001600020600084815260200190815260200160002081905550816008600083815260200190815260200160002081905550505b6008600084815260200190815260200160002060009055600760008573ffffffffffffffffffffffffffffffffffffffff1673ffffffffffffffffffffffffffffffffffffffff16815260200190815260200160002060008381526020019081526020016000206000905550505050565b600060016009805490506122149190613646565b90506000600a6000848152602001908152602001600020549050600060098381548110612244576122436132be565b5b906000526020600020015490508060098381548110612266576122656132be565b5b906000526020600020018190555081600a600083815260200190815260200160002081905550600a60008581526020019081526020016000206000905560098054806122b5576122b4613bd5565b5b6001900381819060005260206000200160009055905550505050565b60006122dc83610ac7565b905081600760008573ffffffffffffffffffffffffffffffffffffffff1673ffffffffffffffffffffffffffffffffffffffff168152602001908152602001600020600083815260200190815260200160002081905550806008600084815260200190815260200160002081905550505050565b600073ffffffffffffffffffffffffffffffffffffffff168273ffffffffffffffffffffffffffffffffffffffff1614156123c0576040517f08c379a00000000000000000000000000000000000000000000000000000000081526004016123b790613c50565b60405180910390fd5b6123c98161139d565b15612409576040517f08c379a000000000000000000000000000000000000000000000000000000000815260040161240090613cbc565b60405180910390fd5b612415600083836114f6565b6001600460008473ffffffffffffffffffffffffffffffffffffffff1673ffffffffffffffffffffffffffffffffffffffff1681526020019081526020016000206000828254612465919061367a565b92505081905550816003600083815260200190815260200160002060006101000a81548173ffffffffffffffffffffffffffffffffffffffff021916908373ffffffffffffffffffffffffffffffffffffffff160217905550808273ffffffffffffffffffffffffffffffffffffffff16600073ffffffffffffffffffffffffffffffffffffffff167fddf252ad1be2c89b69c2b068fc378daa952ba7f163c4a11628f55a4df523b3ef60405160405180910390a45050565b600080823b905060008111915050919050565b60606000821415612579576040518060400160405280600181526020017f3000000000000000000000000000000000000000000000000000000000000000815250905061268d565b600082905060005b600082146125ab57808061259490613440565b915050600a826125a49190613d0b565b9150612581565b60008167ffffffffffffffff8111156125c7576125c6612b7e565b5b6040519080825280601f01601f1916602001820160405280156125f95781602001600182028036833780820191505090505b5090505b60008514612686576001826126129190613646565b9150600a856126219190613d3c565b603061262d919061367a565b60f81b818381518110612643576126426132be565b5b60200101907effffffffffffffffffffffffffffffffffffffffffffffffffffffffffffff1916908160001a905350600a8561267f9190613d0b565b94506125fd565b8093505050505b919050565b82805461269e90612f20565b90600052602060002090601f0160209004810192826126c05760008555612707565b82601f106126d957805160ff1916838001178555612707565b82800160010185558215612707579182015b828111156127065782518255916020019190600101906126eb565b5b5090506127149190612718565b5090565b5b80821115612731576000816000905550600101612719565b5090565b6000604051905090565b600080fd5b600080fd5b60007fffffffff0000000000000000000000000000000000000000000000000000000082169050919050565b61277e81612749565b811461278957600080fd5b50565b60008135905061279b81612775565b92915050565b6000602082840312156127b7576127b661273f565b5b60006127c58482850161278c565b91505092915050565b60008115159050919050565b6127e3816127ce565b82525050565b60006020820190506127fe60008301846127da565b92915050565b600081519050919050565b600082825260208201905092915050565b60005b8381101561283e578082015181840152602081019050612823565b8381111561284d576000848401525b50505050565b6000601f19601f8301169050919050565b600061286f82612804565b612879818561280f565b9350612889818560208601612820565b61289281612853565b840191505092915050565b600060208201905081810360008301526128b78184612864565b905092915050565b6000819050919050565b6128d2816128bf565b81146128dd57600080fd5b50565b6000813590506128ef816128c9565b92915050565b60006020828403121561290b5761290a61273f565b5b6000612919848285016128e0565b91505092915050565b600073ffffffffffffffffffffffffffffffffffffffff82169050919050565b600061294d82612922565b9050919050565b61295d81612942565b82525050565b60006020820190506129786000830184612954565b92915050565b61298781612942565b811461299257600080fd5b50565b6000813590506129a48161297e565b92915050565b600080604083850312156129c1576129c061273f565b5b60006129cf85828601612995565b92505060206129e0858286016128e0565b9150509250929050565b6129f3816128bf565b82525050565b6000602082019050612a0e60008301846129ea565b92915050565b600080600060608486031215612a2d57612a2c61273f565b5b6000612a3b86828701612995565b9350506020612a4c86828701612995565b9250506040612a5d868287016128e0565b9150509250925092565b600060208284031215612a7d57612a7c61273f565b5b6000612a8b84828501612995565b91505092915050565b600081519050919050565b600082825260208201905092915050565b6000819050602082019050919050565b612ac9816128bf565b82525050565b6000612adb8383612ac0565b60208301905092915050565b6000602082019050919050565b6000612aff82612a94565b612b098185612a9f565b9350612b1483612ab0565b8060005b83811015612b45578151612b2c8882612acf565b9750612b3783612ae7565b925050600181019050612b18565b5085935050505092915050565b60006020820190508181036000830152612b6c8184612af4565b905092915050565b600080fd5b600080fd5b7f4e487b7100000000000000000000000000000000000000000000000000000000600052604160045260246000fd5b612bb682612853565b810181811067ffffffffffffffff82111715612bd557612bd4612b7e565b5b80604052505050565b6000612be8612735565b9050612bf48282612bad565b919050565b600067ffffffffffffffff821115612c1457612c13612b7e565b5b612c1d82612853565b9050602081019050919050565b82818337600083830152505050565b6000612c4c612c4784612bf9565b612bde565b905082815260208101848484011115612c6857612c67612b79565b5b612c73848285612c2a565b509392505050565b600082601f830112612c9057612c8f612b74565b5b8135612ca0848260208601612c39565b91505092915050565b60008060408385031215612cc057612cbf61273f565b5b600083013567ffffffffffffffff811115612cde57612cdd612744565b5b612cea85828601612c7b565b925050602083013567ffffffffffffffff811115612d0b57612d0a612744565b5b612d1785828601612c7b565b9150509250929050565b612d2a816127ce565b8114612d3557600080fd5b50565b600081359050612d4781612d21565b92915050565b60008060408385031215612d6457612d6361273f565b5b6000612d7285828601612995565b9250506020612d8385828601612d38565b9150509250929050565b600067ffffffffffffffff821115612da857612da7612b7e565b5b612db182612853565b9050602081019050919050565b6000612dd1612dcc84612d8d565b612bde565b905082815260208101848484011115612ded57612dec612b79565b5b612df8848285612c2a565b509392505050565b600082601f830112612e1557612e14612b74565b5b8135612e25848260208601612dbe565b91505092915050565b60008060008060808587031215612e4857612e4761273f565b5b6000612e5687828801612995565b9450506020612e6787828801612995565b9350506040612e78878288016128e0565b925050606085013567ffffffffffffffff811115612e9957612e98612744565b5b612ea587828801612e00565b91505092959194509250565b60008060408385031215612ec857612ec761273f565b5b6000612ed685828601612995565b9250506020612ee785828601612995565b9150509250929050565b7f4e487b7100000000000000000000000000000000000000000000000000000000600052602260045260246000fd5b60006002820490506001821680612f3857607f821691505b60208210811415612f4c57612f4b612ef1565b5b50919050565b7f4552433732313a20617070726f76656420717565727920666f72206e6f6e657860008201527f697374656e7420746f6b656e0000000000000000000000000000000000000000602082015250565b6000612fae602c8361280f565b9150612fb982612f52565b604082019050919050565b60006020820190508181036000830152612fdd81612fa1565b9050919050565b7f4552433732313a20617070726f76616c20746f2063757272656e74206f776e6560008201527f7200000000000000000000000000000000000000000000000000000000000000602082015250565b600061304060218361280f565b915061304b82612fe4565b604082019050919050565b6000602082019050818103600083015261306f81613033565b9050919050565b7f4552433732313a20617070726f76652063616c6c6572206973206e6f74206f7760008201527f6e6572206e6f7220617070726f76656420666f7220616c6c0000000000000000602082015250565b60006130d260388361280f565b91506130dd82613076565b604082019050919050565b60006020820190508181036000830152613101816130c5565b9050919050565b7f4552433732313a207472616e736665722063616c6c6572206973206e6f74206f60008201527f776e6572206e6f7220617070726f766564000000000000000000000000000000602082015250565b600061316460318361280f565b915061316f82613108565b604082019050919050565b6000602082019050818103600083015261319381613157565b9050919050565b7f455243373231456e756d657261626c653a206f776e657220696e646578206f7560008201527f74206f6620626f756e6473000000000000000000000000000000000000000000602082015250565b60006131f6602b8361280f565b91506132018261319a565b604082019050919050565b60006020820190508181036000830152613225816131e9565b9050919050565b7f455243373231456e756d657261626c653a20676c6f62616c20696e646578206f60008201527f7574206f6620626f756e64730000000000000000000000000000000000000000602082015250565b6000613288602c8361280f565b91506132938261322c565b604082019050919050565b600060208201905081810360008301526132b78161327b565b9050919050565b7f4e487b7100000000000000000000000000000000000000000000000000000000600052603260045260246000fd5b7f4552433732313a206f776e657220717565727920666f72206e6f6e657869737460008201527f656e7420746f6b656e0000000000000000000000000000000000000000000000602082015250565b600061334960298361280f565b9150613354826132ed565b604082019050919050565b600060208201905081810360008301526133788161333c565b9050919050565b7f4552433732313a2062616c616e636520717565727920666f7220746865207a6560008201527f726f206164647265737300000000000000000000000000000000000000000000602082015250565b60006133db602a8361280f565b91506133e68261337f565b604082019050919050565b6000602082019050818103600083015261340a816133ce565b9050919050565b7f4e487b7100000000000000000000000000000000000000000000000000000000600052601160045260246000fd5b600061344b826128bf565b91507fffffffffffffffffffffffffffffffffffffffffffffffffffffffffffffffff82141561347e5761347d613411565b5b600182019050919050565b7f4f776e61626c653a2063616c6c6572206973206e6f7420746865206f776e6572600082015250565b60006134bf60208361280f565b91506134ca82613489565b602082019050919050565b600060208201905081810360008301526134ee816134b2565b9050919050565b600081905092915050565b600061350b82612804565b61351581856134f5565b9350613525818560208601612820565b80840191505092915050565b600061353d8284613500565b915081905092915050565b7f4552433732313a20617070726f766520746f2063616c6c657200000000000000600082015250565b600061357e60198361280f565b915061358982613548565b602082019050919050565b600060208201905081810360008301526135ad81613571565b9050919050565b7f4f776e61626c653a206e6577206f776e657220697320746865207a65726f206160008201527f6464726573730000000000000000000000000000000000000000000000000000602082015250565b600061361060268361280f565b915061361b826135b4565b604082019050919050565b6000602082019050818103600083015261363f81613603565b9050919050565b6000613651826128bf565b915061365c836128bf565b92508282101561366f5761366e613411565b5b828203905092915050565b6000613685826128bf565b9150613690836128bf565b9250827fffffffffffffffffffffffffffffffffffffffffffffffffffffffffffffffff038211156136c5576136c4613411565b5b828201905092915050565b7f4552433732313a206f70657261746f7220717565727920666f72206e6f6e657860008201527f697374656e7420746f6b656e0000000000000000000000000000000000000000602082015250565b600061372c602c8361280f565b9150613737826136d0565b604082019050919050565b6000602082019050818103600083015261375b8161371f565b9050919050565b7f4552433732313a207472616e73666572206f6620746f6b656e2074686174206960008201527f73206e6f74206f776e0000000000000000000000000000000000000000000000602082015250565b60006137be60298361280f565b91506137c982613762565b604082019050919050565b600060208201905081810360008301526137ed816137b1565b9050919050565b7f4552433732313a207472616e7366657220746f20746865207a65726f2061646460008201527f7265737300000000000000000000000000000000000000000000000000000000602082015250565b600061385060248361280f565b915061385b826137f4565b604082019050919050565b6000602082019050818103600083015261387f81613843565b9050919050565b7f45524337323155524953746f726167653a2055524920736574206f66206e6f6e60008201527f6578697374656e7420746f6b656e000000000000000000000000000000000000602082015250565b60006138e2602e8361280f565b91506138ed82613886565b604082019050919050565b60006020820190508181036000830152613911816138d5565b9050919050565b7f4552433732313a207472616e7366657220746f206e6f6e20455243373231526560008201527f63656976657220696d706c656d656e7465720000000000000000000000000000602082015250565b600061397460328361280f565b915061397f82613918565b604082019050919050565b600060208201905081810360008301526139a381613967565b9050919050565b7f45524337323155524953746f726167653a2055524920717565727920666f722060008201527f6e6f6e6578697374656e7420746f6b656e000000000000000000000000000000602082015250565b6000613a0660318361280f565b9150613a11826139aa565b604082019050919050565b60006020820190508181036000830152613a35816139f9565b9050919050565b6000613a488285613500565b9150613a548284613500565b91508190509392505050565b600081519050919050565b600082825260208201905092915050565b6000613a8782613a60565b613a918185613a6b565b9350613aa1818560208601612820565b613aaa81612853565b840191505092915050565b6000608082019050613aca6000830187612954565b613ad76020830186612954565b613ae460408301856129ea565b8181036060830152613af68184613a7c565b905095945050505050565b600081519050613b1081612775565b92915050565b600060208284031215613b2c57613b2b61273f565b5b6000613b3a84828501613b01565b91505092915050565b7f4552433732314d657461646174613a2055524920717565727920666f72206e6f60008201527f6e6578697374656e7420746f6b656e0000000000000000000000000000000000602082015250565b6000613b9f602f8361280f565b9150613baa82613b43565b604082019050919050565b60006020820190508181036000830152613bce81613b92565b9050919050565b7f4e487b7100000000000000000000000000000000000000000000000000000000600052603160045260246000fd5b7f4552433732313a206d696e7420746f20746865207a65726f2061646472657373600082015250565b6000613c3a60208361280f565b9150613c4582613c04565b602082019050919050565b60006020820190508181036000830152613c6981613c2d565b9050919050565b7f4552433732313a20746f6b656e20616c7265616479206d696e74656400000000600082015250565b6000613ca6601c8361280f565b9150613cb182613c70565b602082019050919050565b60006020820190508181036000830152613cd581613c99565b9050919050565b7f4e487b7100000000000000000000000000000000000000000000000000000000600052601260045260246000fd5b6000613d16826128bf565b9150613d21836128bf565b925082613d3157613d30613cdc565b5b828204905092915050565b6000613d47826128bf565b9150613d52836128bf565b925082613d6257613d61613cdc565b5b82820690509291505056fea26469706673582212201c2081a8eeeee49fab6ecc19e6e112032acb2241ec519e32fad5dbc42c4c6fcc64736f6c634300080b0033",
  "immutableReferences": {},
  "source": "// SPDX-License-Identifier: MIT\r\npragma solidity ^0.8.9;\r\n\r\nimport \"@openzeppelin/contracts/token/ERC721/ERC721.sol\";\r\n\r\nimport \"@openzeppelin/contracts/access/Ownable.sol\";\r\n\r\nimport \"@openzeppelin/contracts/utils/math/SafeMath.sol\";\r\n\r\nimport \"@openzeppelin/contracts/token/ERC721/extensions/ERC721Enumerable.sol\";\r\n\r\nimport \"@openzeppelin/contracts/token/ERC721/extensions/ERC721URIStorage.sol\";\r\n\r\ncontract MyToken is Ownable, ERC721, ERC721Enumerable, ERC721URIStorage{\r\n\r\n     using SafeMath for uint256;\r\n\r\n    constructor() ERC721(\"MyFile\",\"FIL\"){}\r\n\r\n    struct Metadata{\r\n        string text;\r\n    }\r\n\r\n    mapping (uint256 => Metadata) id_to_text;\r\n\r\n    mapping (address => uint) ownerNftCount;\r\n\r\n   mapping(string => uint8) hashes;\r\n\r\n    uint public tokensCount;\r\n\r\n    string private _currentBaseURI;\r\n\r\n\r\n    function mint(string memory hash, string memory metadata) external {\r\n        require(hashes[hash] != 1);\r\n\r\n        uint256 tokenId = tokensCount++;\r\n\r\n        hashes[hash] = 1;\r\n\r\n        ownerNftCount[msg.sender] = ownerNftCount[msg.sender].add(1);\r\n\r\n        id_to_text[tokenId] = Metadata(metadata);\r\n\r\n        _safeMint(msg.sender, tokenId);\r\n\r\n         _setTokenURI(tokenId,metadata);\r\n\r\n    }\r\n\r\n    function getNftText(uint _tokenId) public view returns (string memory){\r\n        return id_to_text[_tokenId].text;\r\n    }\r\n\r\n    function getOwnedNfts() public view returns(uint[] memory){\r\n\r\n        uint userBalance = balanceOf(msg.sender);\r\n        uint[] memory tokenIds = new uint[](userBalance);\r\n        for(uint i = 0; i < userBalance; i++){\r\n          uint currTokenId = tokenOfOwnerByIndex(msg.sender,i);\r\n          tokenIds[i] = currTokenId;\r\n        }\r\n\r\n        return tokenIds; \r\n    }\r\n\r\n    function sendNft(address to, uint tokenId) public{\r\n        require(ownerOf(tokenId) == msg.sender);\r\n        ownerNftCount[msg.sender] = ownerNftCount[msg.sender].sub(1);\r\n        ownerNftCount[to] = ownerNftCount[to].add(1);\r\n        _beforeTokenTransfer(msg.sender, to, tokenId);\r\n        transferFrom(msg.sender,to,tokenId);\r\n\r\n    }\r\n\r\n     function supportsInterface(bytes4 interfaceId) public view virtual override(ERC721,ERC721Enumerable) returns (bool) {\r\n        return super.supportsInterface(interfaceId);\r\n    }\r\n\r\n    function _beforeTokenTransfer(address from, address to, uint256 tokenId) internal virtual override(ERC721,ERC721Enumerable) {\r\n        super._beforeTokenTransfer(from, to, tokenId);\r\n    }\r\n\r\n     function tokenURI(uint256 tokenId) public view virtual override(ERC721,ERC721URIStorage) returns (string memory) {\r\n        return super.tokenURI(tokenId);\r\n    }\r\n\r\n      function _burn(uint256 tokenId) internal virtual override(ERC721,ERC721URIStorage) {\r\n          super._burn(tokenId);\r\n      }\r\n\r\n}\r\n\r\n",
  "sourcePath": "C:\\Users\\Acer\\OneDrive\\Ambiente de Trabalho\\NftCreator\\Editor\\contracts\\MyToken.sol",
  "compiler": {
    "name": "solc",
    "version": "0.8.11+commit.d7f03943.Emscripten.clang"
  },
  "schemaVersion": "3.4.4",
  "updatedAt": "2022-02-06T17:01:57.455Z",
  "networkType": "ethereum",
  "devdoc": {
    "kind": "dev",
    "methods": {
      "approve(address,uint256)": {
        "details": "See {IERC721-approve}."
      },
      "balanceOf(address)": {
        "details": "See {IERC721-balanceOf}."
      },
      "getApproved(uint256)": {
        "details": "See {IERC721-getApproved}."
      },
      "isApprovedForAll(address,address)": {
        "details": "See {IERC721-isApprovedForAll}."
      },
      "name()": {
        "details": "See {IERC721Metadata-name}."
      },
      "owner()": {
        "details": "Returns the address of the current owner."
      },
      "ownerOf(uint256)": {
        "details": "See {IERC721-ownerOf}."
      },
      "renounceOwnership()": {
        "details": "Leaves the contract without owner. It will not be possible to call `onlyOwner` functions anymore. Can only be called by the current owner. NOTE: Renouncing ownership will leave the contract without an owner, thereby removing any functionality that is only available to the owner."
      },
      "safeTransferFrom(address,address,uint256)": {
        "details": "See {IERC721-safeTransferFrom}."
      },
      "safeTransferFrom(address,address,uint256,bytes)": {
        "details": "See {IERC721-safeTransferFrom}."
      },
      "setApprovalForAll(address,bool)": {
        "details": "See {IERC721-setApprovalForAll}."
      },
      "symbol()": {
        "details": "See {IERC721Metadata-symbol}."
      },
      "tokenByIndex(uint256)": {
        "details": "See {IERC721Enumerable-tokenByIndex}."
      },
      "tokenOfOwnerByIndex(address,uint256)": {
        "details": "See {IERC721Enumerable-tokenOfOwnerByIndex}."
      },
      "totalSupply()": {
        "details": "See {IERC721Enumerable-totalSupply}."
      },
      "transferFrom(address,address,uint256)": {
        "details": "See {IERC721-transferFrom}."
      },
      "transferOwnership(address)": {
        "details": "Transfers ownership of the contract to a new account (`newOwner`). Can only be called by the current owner."
      }
    },
    "version": 1
  },
  "userdoc": {
    "kind": "user",
    "methods": {},
    "version": 1
  }
}