{
  "contractName": "Marketplace",
  "abi": [
    {
      "inputs": [],
      "stateMutability": "nonpayable",
      "type": "constructor"
    },
    {
      "anonymous": false,
      "inputs": [
        {
          "indexed": true,
          "internalType": "address",
          "name": "nftContract",
          "type": "address"
        },
        {
          "indexed": true,
          "internalType": "uint256",
          "name": "tokenId",
          "type": "uint256"
        },
        {
          "indexed": false,
          "internalType": "uint256",
          "name": "itemId",
          "type": "uint256"
        }
      ],
      "name": "ItemBuy",
      "type": "event"
    },
    {
      "anonymous": false,
      "inputs": [
        {
          "indexed": true,
          "internalType": "address",
          "name": "nftContract",
          "type": "address"
        },
        {
          "indexed": true,
          "internalType": "uint256",
          "name": "tokenId",
          "type": "uint256"
        },
        {
          "indexed": false,
          "internalType": "uint256",
          "name": "itemId",
          "type": "uint256"
        }
      ],
      "name": "ItemCancelled",
      "type": "event"
    },
    {
      "anonymous": false,
      "inputs": [
        {
          "indexed": true,
          "internalType": "address",
          "name": "nftContract",
          "type": "address"
        },
        {
          "indexed": true,
          "internalType": "uint256",
          "name": "tokenId",
          "type": "uint256"
        },
        {
          "indexed": false,
          "internalType": "uint256",
          "name": "price",
          "type": "uint256"
        }
      ],
      "name": "ItemPriceChanged",
      "type": "event"
    },
    {
      "anonymous": false,
      "inputs": [
        {
          "indexed": true,
          "internalType": "uint256",
          "name": "itemId",
          "type": "uint256"
        },
        {
          "indexed": true,
          "internalType": "address",
          "name": "nftContract",
          "type": "address"
        },
        {
          "indexed": true,
          "internalType": "uint256",
          "name": "tokenId",
          "type": "uint256"
        },
        {
          "indexed": false,
          "internalType": "address",
          "name": "seller",
          "type": "address"
        },
        {
          "indexed": false,
          "internalType": "address",
          "name": "owner",
          "type": "address"
        },
        {
          "indexed": false,
          "internalType": "uint256",
          "name": "price",
          "type": "uint256"
        }
      ],
      "name": "MarketItemCreated",
      "type": "event"
    },
    {
      "inputs": [
        {
          "internalType": "address",
          "name": "",
          "type": "address"
        },
        {
          "internalType": "address",
          "name": "",
          "type": "address"
        },
        {
          "internalType": "uint256",
          "name": "",
          "type": "uint256"
        },
        {
          "internalType": "bytes",
          "name": "",
          "type": "bytes"
        }
      ],
      "name": "onERC721Received",
      "outputs": [
        {
          "internalType": "bytes4",
          "name": "",
          "type": "bytes4"
        }
      ],
      "stateMutability": "nonpayable",
      "type": "function"
    },
    {
      "inputs": [
        {
          "internalType": "address",
          "name": "nftContract",
          "type": "address"
        },
        {
          "internalType": "uint256",
          "name": "tokenId",
          "type": "uint256"
        },
        {
          "internalType": "uint256",
          "name": "price",
          "type": "uint256"
        }
      ],
      "name": "createMarketItem",
      "outputs": [],
      "stateMutability": "payable",
      "type": "function",
      "payable": true
    },
    {
      "inputs": [
        {
          "internalType": "address",
          "name": "nftContract",
          "type": "address"
        },
        {
          "internalType": "uint256",
          "name": "itemId",
          "type": "uint256"
        }
      ],
      "name": "sellMarketItem",
      "outputs": [],
      "stateMutability": "payable",
      "type": "function",
      "payable": true
    },
    {
      "inputs": [],
      "name": "fetchMarketItems",
      "outputs": [
        {
          "components": [
            {
              "internalType": "uint256",
              "name": "itemId",
              "type": "uint256"
            },
            {
              "internalType": "address",
              "name": "nftContract",
              "type": "address"
            },
            {
              "internalType": "uint256",
              "name": "tokenId",
              "type": "uint256"
            },
            {
              "internalType": "address payable",
              "name": "seller",
              "type": "address"
            },
            {
              "internalType": "address payable",
              "name": "owner",
              "type": "address"
            },
            {
              "internalType": "uint256",
              "name": "price",
              "type": "uint256"
            },
            {
              "internalType": "bool",
              "name": "isCancelled",
              "type": "bool"
            }
          ],
          "internalType": "struct Marketplace.MarketItem[]",
          "name": "",
          "type": "tuple[]"
        }
      ],
      "stateMutability": "view",
      "type": "function",
      "constant": true
    },
    {
      "inputs": [],
      "name": "getListedItemsBySeller",
      "outputs": [
        {
          "components": [
            {
              "internalType": "uint256",
              "name": "itemId",
              "type": "uint256"
            },
            {
              "internalType": "address",
              "name": "nftContract",
              "type": "address"
            },
            {
              "internalType": "uint256",
              "name": "tokenId",
              "type": "uint256"
            },
            {
              "internalType": "address payable",
              "name": "seller",
              "type": "address"
            },
            {
              "internalType": "address payable",
              "name": "owner",
              "type": "address"
            },
            {
              "internalType": "uint256",
              "name": "price",
              "type": "uint256"
            },
            {
              "internalType": "bool",
              "name": "isCancelled",
              "type": "bool"
            }
          ],
          "internalType": "struct Marketplace.MarketItem[]",
          "name": "",
          "type": "tuple[]"
        }
      ],
      "stateMutability": "view",
      "type": "function",
      "constant": true
    },
    {
      "inputs": [
        {
          "internalType": "address",
          "name": "nftContract",
          "type": "address"
        },
        {
          "internalType": "uint256",
          "name": "marketItemId",
          "type": "uint256"
        }
      ],
      "name": "cancelListing",
      "outputs": [],
      "stateMutability": "nonpayable",
      "type": "function"
    },
    {
      "inputs": [
        {
          "internalType": "uint256",
          "name": "marketItemId",
          "type": "uint256"
        },
        {
          "internalType": "uint256",
          "name": "price",
          "type": "uint256"
        }
      ],
      "name": "changeItemPrice",
      "outputs": [],
      "stateMutability": "nonpayable",
      "type": "function"
    },
    {
      "inputs": [],
      "name": "getListingPrice",
      "outputs": [
        {
          "internalType": "uint256",
          "name": "",
          "type": "uint256"
        }
      ],
      "stateMutability": "view",
      "type": "function",
      "constant": true
    }
  ],
  "bytecode": "0x608060405266038d7ea4c6800060055534801561001b57600080fd5b50600160008190555033600460006101000a81548173ffffffffffffffffffffffffffffffffffffffff021916908373ffffffffffffffffffffffffffffffffffffffff16021790555061215a806100746000396000f3fe60806040526004361061007b5760003560e01c806358eb2df51161004e57806358eb2df51461013e578063a7b194241461015a578063b0916feb14610183578063b2ddee061461019f5761007b565b80630134478a146100805780630f08efe0146100ab57806312e85585146100d6578063150b7a0214610101575b600080fd5b34801561008c57600080fd5b506100956101c8565b6040516100a29190611743565b60405180910390f35b3480156100b757600080fd5b506100c061069e565b6040516100cd9190611743565b60405180910390f35b3480156100e257600080fd5b506100eb6109c8565b6040516100f89190611774565b60405180910390f35b34801561010d57600080fd5b5061012860048036038101906101239190611941565b6109d2565b60405161013591906119ff565b60405180910390f35b61015860048036038101906101539190611a1a565b6109e6565b005b34801561016657600080fd5b50610181600480360381019061017c9190611a6d565b610d46565b005b61019d60048036038101906101989190611aad565b610ea4565b005b3480156101ab57600080fd5b506101c660048036038101906101c19190611aad565b611296565b005b606060006101d660016114cb565b905060008060005b83811015610338573373ffffffffffffffffffffffffffffffffffffffff166006600060018461020e9190611b1c565b815260200190815260200160002060030160009054906101000a900473ffffffffffffffffffffffffffffffffffffffff1673ffffffffffffffffffffffffffffffffffffffff16148015610296575060001515600660006001846102739190611b1c565b815260200190815260200160002060060160009054906101000a900460ff161515145b80156103105750600073ffffffffffffffffffffffffffffffffffffffff16600660006001846102c69190611b1c565b815260200190815260200160002060040160009054906101000a900473ffffffffffffffffffffffffffffffffffffffff1673ffffffffffffffffffffffffffffffffffffffff16145b15610325576001836103229190611b1c565b92505b808061033090611b72565b9150506101de565b5060008267ffffffffffffffff81111561035557610354611816565b5b60405190808252806020026020018201604052801561038e57816020015b61037b6114ef565b8152602001906001900390816103735790505b50905060005b84811015610693573373ffffffffffffffffffffffffffffffffffffffff16600660006001846103c49190611b1c565b815260200190815260200160002060030160009054906101000a900473ffffffffffffffffffffffffffffffffffffffff1673ffffffffffffffffffffffffffffffffffffffff1614801561044c575060001515600660006001846104299190611b1c565b815260200190815260200160002060060160009054906101000a900460ff161515145b80156104c65750600073ffffffffffffffffffffffffffffffffffffffff166006600060018461047c9190611b1c565b815260200190815260200160002060040160009054906101000a900473ffffffffffffffffffffffffffffffffffffffff1673ffffffffffffffffffffffffffffffffffffffff16145b15610680576000600660006001846104de9190611b1c565b81526020019081526020016000206000015490506000600660008381526020019081526020016000206040518060e0016040529081600082015481526020016001820160009054906101000a900473ffffffffffffffffffffffffffffffffffffffff1673ffffffffffffffffffffffffffffffffffffffff1673ffffffffffffffffffffffffffffffffffffffff168152602001600282015481526020016003820160009054906101000a900473ffffffffffffffffffffffffffffffffffffffff1673ffffffffffffffffffffffffffffffffffffffff1673ffffffffffffffffffffffffffffffffffffffff1681526020016004820160009054906101000a900473ffffffffffffffffffffffffffffffffffffffff1673ffffffffffffffffffffffffffffffffffffffff1673ffffffffffffffffffffffffffffffffffffffff168152602001600582015481526020016006820160009054906101000a900460ff16151515158152505090508084868151811061066357610662611bba565b5b602002602001018190525060018561067b9190611b1c565b945050505b808061068b90611b72565b915050610394565b508094505050505090565b606060006106ac60016114cb565b905060006106ba60036114cb565b6106c460026114cb565b836106cf9190611be9565b6106d99190611be9565b90506000808267ffffffffffffffff8111156106f8576106f7611816565b5b60405190808252806020026020018201604052801561073157816020015b61071e6114ef565b8152602001906001900390816107165790505b50905060005b848110156109bd57600073ffffffffffffffffffffffffffffffffffffffff16600660006001846107689190611b1c565b815260200190815260200160002060040160009054906101000a900473ffffffffffffffffffffffffffffffffffffffff1673ffffffffffffffffffffffffffffffffffffffff161480156107f0575060001515600660006001846107cd9190611b1c565b815260200190815260200160002060060160009054906101000a900460ff161515145b156109aa576000600660006001846108089190611b1c565b81526020019081526020016000206000015490506000600660008381526020019081526020016000206040518060e0016040529081600082015481526020016001820160009054906101000a900473ffffffffffffffffffffffffffffffffffffffff1673ffffffffffffffffffffffffffffffffffffffff1673ffffffffffffffffffffffffffffffffffffffff168152602001600282015481526020016003820160009054906101000a900473ffffffffffffffffffffffffffffffffffffffff1673ffffffffffffffffffffffffffffffffffffffff1673ffffffffffffffffffffffffffffffffffffffff1681526020016004820160009054906101000a900473ffffffffffffffffffffffffffffffffffffffff1673ffffffffffffffffffffffffffffffffffffffff1673ffffffffffffffffffffffffffffffffffffffff168152602001600582015481526020016006820160009054906101000a900460ff16151515158152505090508084868151811061098d5761098c611bba565b5b60200260200101819052506001856109a59190611b1c565b945050505b80806109b590611b72565b915050610737565b508094505050505090565b6000600554905090565b600063150b7a0260e01b9050949350505050565b600260005403610a2b576040517f08c379a0000000000000000000000000000000000000000000000000000000008152600401610a2290611c7a565b60405180910390fd5b600260008190555060008111610a76576040517f08c379a0000000000000000000000000000000000000000000000000000000008152600401610a6d90611ce6565b60405180910390fd5b6005543414610aba576040517f08c379a0000000000000000000000000000000000000000000000000000000008152600401610ab190611d9e565b60405180910390fd5b610ac460016114d9565b6000610ad060016114cb565b90506040518060e001604052808281526020018573ffffffffffffffffffffffffffffffffffffffff1681526020018481526020013373ffffffffffffffffffffffffffffffffffffffff168152602001600073ffffffffffffffffffffffffffffffffffffffff16815260200183815260200160001515815250600660008381526020019081526020016000206000820151816000015560208201518160010160006101000a81548173ffffffffffffffffffffffffffffffffffffffff021916908373ffffffffffffffffffffffffffffffffffffffff1602179055506040820151816002015560608201518160030160006101000a81548173ffffffffffffffffffffffffffffffffffffffff021916908373ffffffffffffffffffffffffffffffffffffffff16021790555060808201518160040160006101000a81548173ffffffffffffffffffffffffffffffffffffffff021916908373ffffffffffffffffffffffffffffffffffffffff16021790555060a0820151816005015560c08201518160060160006101000a81548160ff0219169083151502179055509050508373ffffffffffffffffffffffffffffffffffffffff166323b872dd3330866040518463ffffffff1660e01b8152600401610cb193929190611dcd565b600060405180830381600087803b158015610ccb57600080fd5b505af1158015610cdf573d6000803e3d6000fd5b50505050828473ffffffffffffffffffffffffffffffffffffffff16827f2ad024d53a0dc50c130967f8d4941927ee087ea31394cebb2b9599d3706c9c0033600087604051610d3093929190611dcd565b60405180910390a4506001600081905550505050565b3373ffffffffffffffffffffffffffffffffffffffff166006600084815260200190815260200160002060030160009054906101000a900473ffffffffffffffffffffffffffffffffffffffff1673ffffffffffffffffffffffffffffffffffffffff1614610dea576040517f08c379a0000000000000000000000000000000000000000000000000000000008152600401610de190611e76565b60405180910390fd5b80600660008481526020019081526020016000206005018190555060066000838152602001908152602001600020600201546006600084815260200190815260200160002060010160009054906101000a900473ffffffffffffffffffffffffffffffffffffffff1673ffffffffffffffffffffffffffffffffffffffff167f0106cf262f2b010f561264cb98247ad955f802740430e5c7542b54cc335b492c83604051610e989190611774565b60405180910390a35050565b600260005403610ee9576040517f08c379a0000000000000000000000000000000000000000000000000000000008152600401610ee090611c7a565b60405180910390fd5b600260008190555060006006600083815260200190815260200160002060050154905060006006600084815260200190815260200160002060020154905060006006600085815260200190815260200160002060060160009054906101000a900460ff16905060006006600086815260200190815260200160002060030160009054906101000a900473ffffffffffffffffffffffffffffffffffffffff169050833414610fcc576040517f08c379a0000000000000000000000000000000000000000000000000000000008152600401610fc390611f08565b60405180910390fd5b6000151582151514611013576040517f08c379a000000000000000000000000000000000000000000000000000000000815260040161100a90611f74565b60405180910390fd5b8073ffffffffffffffffffffffffffffffffffffffff163373ffffffffffffffffffffffffffffffffffffffff1603611081576040517f08c379a000000000000000000000000000000000000000000000000000000000815260040161107890611fe0565b60405180910390fd5b6006600086815260200190815260200160002060030160009054906101000a900473ffffffffffffffffffffffffffffffffffffffff1673ffffffffffffffffffffffffffffffffffffffff166108fc349081150290604051600060405180830381858888f193505050501580156110fd573d6000803e3d6000fd5b508573ffffffffffffffffffffffffffffffffffffffff166323b872dd3033866040518463ffffffff1660e01b815260040161113b93929190611dcd565b600060405180830381600087803b15801561115557600080fd5b505af1158015611169573d6000803e3d6000fd5b50505050336006600087815260200190815260200160002060040160006101000a81548173ffffffffffffffffffffffffffffffffffffffff021916908373ffffffffffffffffffffffffffffffffffffffff1602179055506111cc60026114d9565b600460009054906101000a900473ffffffffffffffffffffffffffffffffffffffff1673ffffffffffffffffffffffffffffffffffffffff166108fc6005549081150290604051600060405180830381858888f19350505050158015611236573d6000803e3d6000fd5b50828673ffffffffffffffffffffffffffffffffffffffff167f29dbd470cd045142b11d3d9e3ab08b096906299d308c341652df7c6d7fcb31748760405161127e9190611774565b60405180910390a35050505060016000819055505050565b3373ffffffffffffffffffffffffffffffffffffffff166006600083815260200190815260200160002060030160009054906101000a900473ffffffffffffffffffffffffffffffffffffffff1673ffffffffffffffffffffffffffffffffffffffff161461133a576040517f08c379a000000000000000000000000000000000000000000000000000000000815260040161133190612072565b60405180910390fd5b600015156006600083815260200190815260200160002060060160009054906101000a900460ff161515146113a4576040517f08c379a000000000000000000000000000000000000000000000000000000000815260040161139b90612104565b60405180910390fd5b8173ffffffffffffffffffffffffffffffffffffffff166323b872dd303360066000868152602001908152602001600020600201546040518463ffffffff1660e01b81526004016113f793929190611dcd565b600060405180830381600087803b15801561141157600080fd5b505af1158015611425573d6000803e3d6000fd5b5050505060016006600083815260200190815260200160002060060160006101000a81548160ff02191690831515021790555061146260036114d9565b60066000828152602001908152602001600020600201548273ffffffffffffffffffffffffffffffffffffffff167f4c7508125d75cb2f32abba78ae1f4fdcd743533ba34f257dd4d4d9a7f8522dd3836040516114bf9190611774565b60405180910390a35050565b600081600001549050919050565b6001816000016000828254019250508190555050565b6040518060e0016040528060008152602001600073ffffffffffffffffffffffffffffffffffffffff16815260200160008152602001600073ffffffffffffffffffffffffffffffffffffffff168152602001600073ffffffffffffffffffffffffffffffffffffffff168152602001600081526020016000151581525090565b600081519050919050565b600082825260208201905092915050565b6000819050602082019050919050565b6000819050919050565b6115af8161159c565b82525050565b600073ffffffffffffffffffffffffffffffffffffffff82169050919050565b60006115e0826115b5565b9050919050565b6115f0816115d5565b82525050565b6000611601826115b5565b9050919050565b611611816115f6565b82525050565b60008115159050919050565b61162c81611617565b82525050565b60e08201600082015161164860008501826115a6565b50602082015161165b60208501826115e7565b50604082015161166e60408501826115a6565b5060608201516116816060850182611608565b5060808201516116946080850182611608565b5060a08201516116a760a08501826115a6565b5060c08201516116ba60c0850182611623565b50505050565b60006116cc8383611632565b60e08301905092915050565b6000602082019050919050565b60006116f082611570565b6116fa818561157b565b93506117058361158c565b8060005b8381101561173657815161171d88826116c0565b9750611728836116d8565b925050600181019050611709565b5085935050505092915050565b6000602082019050818103600083015261175d81846116e5565b905092915050565b61176e8161159c565b82525050565b60006020820190506117896000830184611765565b92915050565b6000604051905090565b600080fd5b600080fd5b6117ac816115d5565b81146117b757600080fd5b50565b6000813590506117c9816117a3565b92915050565b6117d88161159c565b81146117e357600080fd5b50565b6000813590506117f5816117cf565b92915050565b600080fd5b600080fd5b6000601f19601f8301169050919050565b7f4e487b7100000000000000000000000000000000000000000000000000000000600052604160045260246000fd5b61184e82611805565b810181811067ffffffffffffffff8211171561186d5761186c611816565b5b80604052505050565b600061188061178f565b905061188c8282611845565b919050565b600067ffffffffffffffff8211156118ac576118ab611816565b5b6118b582611805565b9050602081019050919050565b82818337600083830152505050565b60006118e46118df84611891565b611876565b905082815260208101848484011115611900576118ff611800565b5b61190b8482856118c2565b509392505050565b600082601f830112611928576119276117fb565b5b81356119388482602086016118d1565b91505092915050565b6000806000806080858703121561195b5761195a611799565b5b6000611969878288016117ba565b945050602061197a878288016117ba565b935050604061198b878288016117e6565b925050606085013567ffffffffffffffff8111156119ac576119ab61179e565b5b6119b887828801611913565b91505092959194509250565b60007fffffffff0000000000000000000000000000000000000000000000000000000082169050919050565b6119f9816119c4565b82525050565b6000602082019050611a1460008301846119f0565b92915050565b600080600060608486031215611a3357611a32611799565b5b6000611a41868287016117ba565b9350506020611a52868287016117e6565b9250506040611a63868287016117e6565b9150509250925092565b60008060408385031215611a8457611a83611799565b5b6000611a92858286016117e6565b9250506020611aa3858286016117e6565b9150509250929050565b60008060408385031215611ac457611ac3611799565b5b6000611ad2858286016117ba565b9250506020611ae3858286016117e6565b9150509250929050565b7f4e487b7100000000000000000000000000000000000000000000000000000000600052601160045260246000fd5b6000611b278261159c565b9150611b328361159c565b9250827fffffffffffffffffffffffffffffffffffffffffffffffffffffffffffffffff03821115611b6757611b66611aed565b5b828201905092915050565b6000611b7d8261159c565b91507fffffffffffffffffffffffffffffffffffffffffffffffffffffffffffffffff8203611baf57611bae611aed565b5b600182019050919050565b7f4e487b7100000000000000000000000000000000000000000000000000000000600052603260045260246000fd5b6000611bf48261159c565b9150611bff8361159c565b925082821015611c1257611c11611aed565b5b828203905092915050565b600082825260208201905092915050565b7f5265656e7472616e637947756172643a207265656e7472616e742063616c6c00600082015250565b6000611c64601f83611c1d565b9150611c6f82611c2e565b602082019050919050565b60006020820190508181036000830152611c9381611c57565b9050919050565b7f5072696365206d757374206265206174206c6561737420312077656900000000600082015250565b6000611cd0601c83611c1d565b9150611cdb82611c9a565b602082019050919050565b60006020820190508181036000830152611cff81611cc3565b9050919050565b7f596f75206d7573742073656e6420746865206c697374696e672070726963652060008201527f616d6f756e7420696e206f7264657220746f2063726561746520612073616c6560208201527f2e00000000000000000000000000000000000000000000000000000000000000604082015250565b6000611d88604183611c1d565b9150611d9382611d06565b606082019050919050565b60006020820190508181036000830152611db781611d7b565b9050919050565b611dc7816115d5565b82525050565b6000606082019050611de26000830186611dbe565b611def6020830185611dbe565b611dfc6040830184611765565b949350505050565b7f596f75206d757374206265207468652073656c6c657220696e206f726465722060008201527f746f2063616e63656c20746865206c697374696e670000000000000000000000602082015250565b6000611e60603583611c1d565b9150611e6b82611e04565b604082019050919050565b60006020820190508181036000830152611e8f81611e53565b9050919050565b7f506c65617365207375626d6974207468652061736b696e67207072696365206960008201527f6e206f7264657220746f20636f6d706c65746520746865207075726368617365602082015250565b6000611ef2604083611c1d565b9150611efd82611e96565b604082019050919050565b60006020820190508181036000830152611f2181611ee5565b9050919050565b7f54686973206c697374696e6720686173206265656e2063616e63656c6c656400600082015250565b6000611f5e601f83611c1d565b9150611f6982611f28565b602082019050919050565b60006020820190508181036000830152611f8d81611f51565b9050919050565b7f596f752063616e6e6f742062757920796f7572206f776e204e46540000000000600082015250565b6000611fca601b83611c1d565b9150611fd582611f94565b602082019050919050565b60006020820190508181036000830152611ff981611fbd565b9050919050565b7f596f75206d757374206265207468652073656c6c657220696e206f726465722060008201527f746f2063616e63656c20746865206c697374696e672e00000000000000000000602082015250565b600061205c603683611c1d565b915061206782612000565b604082019050919050565b6000602082019050818103600083015261208b8161204f565b9050919050565b7f54686973206974656d2068617320616c7265616479206265656e2063616e636560008201527f6c6c65642e000000000000000000000000000000000000000000000000000000602082015250565b60006120ee602583611c1d565b91506120f982612092565b604082019050919050565b6000602082019050818103600083015261211d816120e1565b905091905056fea264697066735822122038446923a2ecb40e6dbe57a4b9531a32b627599e3c18b4956c3d697d53eb911b64736f6c634300080f0033",
  "immutableReferences": {},
  "source": "// SPDX-License-Identifier: MIT\r\npragma solidity ^0.8.9;\r\n\r\nimport '@openzeppelin/contracts/utils/Counters.sol';\r\nimport '@openzeppelin/contracts/token/ERC721/extensions/ERC721URIStorage.sol';\r\nimport '@openzeppelin/contracts/token/ERC721/ERC721.sol'; \r\nimport \"@openzeppelin/contracts/token/ERC721/utils/ERC721Holder.sol\";\r\nimport '@openzeppelin/contracts/security/ReentrancyGuard.sol';\r\n\r\n/// @title Marketplace\r\n/// @notice Simple ERC721 tokens Marketplace contract that let listing a token, cancel, change its price and buy it.\r\n/// @dev Pedro\r\ncontract Marketplace is ReentrancyGuard, ERC721Holder{\r\n    using Counters for Counters.Counter;\r\n    Counters.Counter private _itemIds;\r\n    Counters.Counter private _itemsSold;\r\n    Counters.Counter private _itemsCancelled;\r\n\r\n    /**\r\n      * @notice Contract owner\r\n     */\r\n    address payable owner;\r\n\r\n    /**\r\n      * @notice Price to list a NFT\r\n     */\r\n    uint256 listingPrice = 0.001 ether;\r\n\r\n    /**\r\n      * @notice The Marketplace constructor\r\n     */\r\n    constructor(){\r\n        owner = payable(msg.sender);\r\n    }\r\n\r\n     /**\r\n      * @notice Struct that will hold the information about a market item\r\n     */\r\n    struct MarketItem {\r\n        uint itemId;\r\n        address nftContract;\r\n        uint256 tokenId;\r\n        address payable seller;\r\n        address payable owner;\r\n        uint256 price;\r\n        bool isCancelled;\r\n    }\r\n\r\n     /**\r\n      * @notice To keep track of all market items\r\n     */\r\n    mapping(uint256 => MarketItem) private idToMarketItem;\r\n\r\n    /**\r\n      * @notice Event to emit every time a market item is created\r\n     */\r\n    event MarketItemCreated (\r\n        uint indexed itemId,\r\n        address indexed nftContract,\r\n        uint256 indexed tokenId,\r\n        address seller,\r\n        address owner,\r\n        uint256 price\r\n    );\r\n\r\n      /**\r\n      * @notice Event to emit every time a market item's price is replaced\r\n     */\r\n    event ItemPriceChanged (\r\n        address indexed nftContract,\r\n        uint indexed tokenId,\r\n        uint price\r\n    );\r\n\r\n      /**\r\n      * @notice Event to emit every time a market item is cancelled\r\n     */\r\n    event ItemCancelled (\r\n        address indexed nftContract,\r\n        uint indexed tokenId,\r\n        uint itemId\r\n    );\r\n\r\n     /**\r\n      * @notice Event to emit every time a market item is cancelled\r\n     */\r\n    event ItemBuy (\r\n        address indexed nftContract,\r\n        uint indexed tokenId,\r\n        uint itemId\r\n    );\r\n\r\n      /**\r\n      * @notice A method to list a nft on the marketplace\r\n      * @param nftContract The nft contract address\r\n      * @param tokenId The nft token id\r\n      * @param price The price wich the item will be listed\r\n     */\r\n    function createMarketItem(\r\n        address nftContract,\r\n        uint256 tokenId,\r\n        uint256 price\r\n    ) public payable nonReentrant {\r\n        require(price > 0, \"Price must be at least 1 wei\");\r\n        require(msg.value == listingPrice,\"You must send the listing price amount in order to create a sale.\");\r\n\r\n        _itemIds.increment();\r\n        uint256 itemId = _itemIds.current();\r\n\r\n        idToMarketItem[itemId] = MarketItem(\r\n            itemId,\r\n            nftContract,\r\n            tokenId,\r\n            payable(msg.sender),\r\n            payable(address(0)),\r\n            price,\r\n            false\r\n        );\r\n\r\n        IERC721(nftContract).transferFrom(msg.sender, address(this), tokenId);\r\n\r\n        emit MarketItemCreated(itemId, nftContract, tokenId, msg.sender, address(0), price);\r\n    }\r\n\r\n     /**\r\n      * @notice Event to emit every time a market item is created\r\n      * @param nftContract The nft contract address\r\n      * @param itemId The market item Id of the item that will be sold\r\n     */ \r\n    function sellMarketItem(\r\n        address nftContract,\r\n        uint256 itemId\r\n    ) public payable nonReentrant {\r\n        uint price = idToMarketItem[itemId].price;\r\n        uint tokenId = idToMarketItem[itemId].tokenId;\r\n        bool isCancelled = idToMarketItem[itemId].isCancelled;\r\n        address seller = idToMarketItem[itemId].seller;\r\n\r\n        require(msg.value == price, \"Please submit the asking price in order to complete the purchase\");\r\n        require(isCancelled == false, \"This listing has been cancelled\");\r\n        require(msg.sender != seller,\"You cannot buy your own NFT\");\r\n\r\n        idToMarketItem[itemId].seller.transfer(msg.value);\r\n        IERC721(nftContract).transferFrom(address(this),msg.sender,tokenId);\r\n        idToMarketItem[itemId].owner = payable(msg.sender);\r\n        _itemsSold.increment();\r\n        payable(owner).transfer(listingPrice);\r\n        emit ItemBuy(nftContract, tokenId, itemId);\r\n    }\r\n\r\n    /**\r\n    * @notice Method to retrieve all available market items\r\n    */ \r\n    function fetchMarketItems() public view returns (MarketItem[] memory) {\r\n        uint itemCount = _itemIds.current();\r\n        uint availableItemCount = itemCount - _itemsSold.current() - _itemsCancelled.current();\r\n        uint currIndex = 0;\r\n\r\n        MarketItem[] memory items = new MarketItem[](availableItemCount);\r\n\r\n        for(uint i = 0; i < itemCount; i++){\r\n            if(idToMarketItem[i+1].owner == address(0) && idToMarketItem[i+1].isCancelled == false){\r\n                uint currentId = idToMarketItem[i+1].itemId;\r\n                MarketItem memory currentItem = idToMarketItem[currentId];\r\n                items[currIndex] = currentItem;\r\n                currIndex += 1;\r\n            }\r\n        }\r\n        return items;\r\n    }\r\n\r\n    /**\r\n      * @notice Method that retrieves all items listed by the address who calls this function\r\n     */ \r\n    function getListedItemsBySeller() public view returns (MarketItem[] memory){\r\n        uint itemCount = _itemIds.current();\r\n        uint256 sellerItems = 0;\r\n        uint currIndex = 0;\r\n\r\n        for(uint i = 0; i < itemCount; i++){\r\n            if(idToMarketItem[i+1].seller == msg.sender && idToMarketItem[i+1].isCancelled == false && idToMarketItem[i+1].owner == address(0)){\r\n                sellerItems += 1;\r\n            }\r\n        }\r\n\r\n        MarketItem[] memory items = new MarketItem[](sellerItems);\r\n\r\n          for(uint i = 0; i < itemCount; i++){\r\n            if(idToMarketItem[i+1].seller == msg.sender && idToMarketItem[i+1].isCancelled == false && idToMarketItem[i+1].owner == address(0)){\r\n                uint currentId = idToMarketItem[i+1].itemId;\r\n                MarketItem memory currentItem = idToMarketItem[currentId];\r\n                items[currIndex] = currentItem;\r\n                currIndex += 1;\r\n            }\r\n        }\r\n\r\n      return items;\r\n\r\n    }\r\n\r\n    /**\r\n      * @notice Method to cancel a market item listing\r\n      * @param nftContract The nft contract address\r\n      * @param marketItemId The market item Id of the item that will be sold\r\n     */ \r\n    function cancelListing(address nftContract, uint256 marketItemId) public {\r\n        require(idToMarketItem[marketItemId].seller == msg.sender,\"You must be the seller in order to cancel the listing.\");\r\n        require(idToMarketItem[marketItemId].isCancelled == false, \"This item has already been cancelled.\");\r\n         IERC721(nftContract).transferFrom(address(this),msg.sender,idToMarketItem[marketItemId].tokenId);\r\n         idToMarketItem[marketItemId].isCancelled = true;\r\n         _itemsCancelled.increment();\r\n         emit ItemCancelled(nftContract,idToMarketItem[marketItemId].tokenId, marketItemId);\r\n    }\r\n\r\n    /**\r\n      * @notice Method to cancel a market item listing\r\n      * @param marketItemId The market item Id of the item that will be sold\r\n      * @param price The new item price that will replace the current price\r\n     */\r\n    function changeItemPrice(uint256 marketItemId, uint256 price) public {\r\n        require(idToMarketItem[marketItemId].seller == msg.sender,\"You must be the seller in order to cancel the listing\");\r\n        idToMarketItem[marketItemId].price = price;\r\n        emit ItemPriceChanged(idToMarketItem[marketItemId].nftContract, idToMarketItem[marketItemId].tokenId, price);\r\n    }\r\n\r\n     /**\r\n      * @notice Method that retrieves the price of listing a nft \r\n     */\r\n    function getListingPrice() public view returns (uint256) {\r\n        return listingPrice;\r\n    }\r\n\r\n\r\n}",
  "sourcePath": "C:\\Users\\Acer\\OneDrive\\Ambiente de Trabalho\\NftCreator\\contracts\\Marketplace.sol",
  "compiler": {
    "name": "solc",
    "version": "0.8.15+commit.e14f2714.Emscripten.clang"
  },
  "schemaVersion": "3.4.4",
  "updatedAt": "2022-06-27T16:54:17.571Z",
  "networkType": "ethereum",
  "devdoc": {
    "details": "Pedro",
    "kind": "dev",
    "methods": {
      "cancelListing(address,uint256)": {
        "params": {
          "marketItemId": "The market item Id of the item that will be sold",
          "nftContract": "The nft contract address"
        }
      },
      "changeItemPrice(uint256,uint256)": {
        "params": {
          "marketItemId": "The market item Id of the item that will be sold",
          "price": "The new item price that will replace the current price"
        }
      },
      "createMarketItem(address,uint256,uint256)": {
        "params": {
          "nftContract": "The nft contract address",
          "price": "The price wich the item will be listed",
          "tokenId": "The nft token id"
        }
      },
      "onERC721Received(address,address,uint256,bytes)": {
        "details": "See {IERC721Receiver-onERC721Received}. Always returns `IERC721Receiver.onERC721Received.selector`."
      },
      "sellMarketItem(address,uint256)": {
        "params": {
          "itemId": "The market item Id of the item that will be sold",
          "nftContract": "The nft contract address"
        }
      }
    },
    "title": "Marketplace",
    "version": 1
  },
  "userdoc": {
    "events": {
      "ItemBuy(address,uint256,uint256)": {
        "notice": "Event to emit every time a market item is cancelled"
      },
      "ItemCancelled(address,uint256,uint256)": {
        "notice": "Event to emit every time a market item is cancelled"
      },
      "ItemPriceChanged(address,uint256,uint256)": {
        "notice": "Event to emit every time a market item's price is replaced"
      },
      "MarketItemCreated(uint256,address,uint256,address,address,uint256)": {
        "notice": "Event to emit every time a market item is created"
      }
    },
    "kind": "user",
    "methods": {
      "cancelListing(address,uint256)": {
        "notice": "Method to cancel a market item listing"
      },
      "changeItemPrice(uint256,uint256)": {
        "notice": "Method to cancel a market item listing"
      },
      "constructor": {
        "notice": "The Marketplace constructor"
      },
      "createMarketItem(address,uint256,uint256)": {
        "notice": "A method to list a nft on the marketplace"
      },
      "fetchMarketItems()": {
        "notice": "Method to retrieve all available market items"
      },
      "getListedItemsBySeller()": {
        "notice": "Method that retrieves all items listed by the address who calls this function"
      },
      "getListingPrice()": {
        "notice": "Method that retrieves the price of listing a nft "
      },
      "sellMarketItem(address,uint256)": {
        "notice": "Event to emit every time a market item is created"
      }
    },
    "notice": "Simple ERC721 tokens Marketplace contract that let listing a token, cancel, change its price and buy it.",
    "version": 1
  }
}