{
  "contractName": "Marketplace",
  "abi": [
    {
      "inputs": [],
      "stateMutability": "nonpayable",
      "type": "constructor"
    },
    {
      "anonymous": false,
      "inputs": [
        {
          "indexed": true,
          "internalType": "uint256",
          "name": "itemId",
          "type": "uint256"
        },
        {
          "indexed": true,
          "internalType": "address",
          "name": "NftContract",
          "type": "address"
        },
        {
          "indexed": true,
          "internalType": "uint256",
          "name": "tokenId",
          "type": "uint256"
        },
        {
          "indexed": false,
          "internalType": "address",
          "name": "seller",
          "type": "address"
        },
        {
          "indexed": false,
          "internalType": "address",
          "name": "owner",
          "type": "address"
        },
        {
          "indexed": false,
          "internalType": "uint256",
          "name": "price",
          "type": "uint256"
        }
      ],
      "name": "MarketItemCreated",
      "type": "event"
    },
    {
      "inputs": [
        {
          "internalType": "address",
          "name": "",
          "type": "address"
        },
        {
          "internalType": "address",
          "name": "",
          "type": "address"
        },
        {
          "internalType": "uint256",
          "name": "",
          "type": "uint256"
        },
        {
          "internalType": "bytes",
          "name": "",
          "type": "bytes"
        }
      ],
      "name": "onERC721Received",
      "outputs": [
        {
          "internalType": "bytes4",
          "name": "",
          "type": "bytes4"
        }
      ],
      "stateMutability": "nonpayable",
      "type": "function"
    },
    {
      "inputs": [
        {
          "internalType": "address",
          "name": "nftContract",
          "type": "address"
        },
        {
          "internalType": "uint256",
          "name": "tokenId",
          "type": "uint256"
        },
        {
          "internalType": "uint256",
          "name": "price",
          "type": "uint256"
        }
      ],
      "name": "createMarketItem",
      "outputs": [],
      "stateMutability": "payable",
      "type": "function",
      "payable": true
    },
    {
      "inputs": [
        {
          "internalType": "address",
          "name": "nftContract",
          "type": "address"
        },
        {
          "internalType": "uint256",
          "name": "itemId",
          "type": "uint256"
        }
      ],
      "name": "sellMarketItem",
      "outputs": [],
      "stateMutability": "payable",
      "type": "function",
      "payable": true
    },
    {
      "inputs": [],
      "name": "fetchMarketItems",
      "outputs": [
        {
          "components": [
            {
              "internalType": "uint256",
              "name": "itemId",
              "type": "uint256"
            },
            {
              "internalType": "address",
              "name": "nftContract",
              "type": "address"
            },
            {
              "internalType": "uint256",
              "name": "tokenId",
              "type": "uint256"
            },
            {
              "internalType": "address payable",
              "name": "seller",
              "type": "address"
            },
            {
              "internalType": "address payable",
              "name": "owner",
              "type": "address"
            },
            {
              "internalType": "uint256",
              "name": "price",
              "type": "uint256"
            }
          ],
          "internalType": "struct Marketplace.MarketItem[]",
          "name": "",
          "type": "tuple[]"
        }
      ],
      "stateMutability": "view",
      "type": "function",
      "constant": true
    },
    {
      "inputs": [],
      "name": "getListedItemsBySeller",
      "outputs": [
        {
          "components": [
            {
              "internalType": "uint256",
              "name": "itemId",
              "type": "uint256"
            },
            {
              "internalType": "address",
              "name": "nftContract",
              "type": "address"
            },
            {
              "internalType": "uint256",
              "name": "tokenId",
              "type": "uint256"
            },
            {
              "internalType": "address payable",
              "name": "seller",
              "type": "address"
            },
            {
              "internalType": "address payable",
              "name": "owner",
              "type": "address"
            },
            {
              "internalType": "uint256",
              "name": "price",
              "type": "uint256"
            }
          ],
          "internalType": "struct Marketplace.MarketItem[]",
          "name": "",
          "type": "tuple[]"
        }
      ],
      "stateMutability": "view",
      "type": "function",
      "constant": true
    },
    {
      "inputs": [
        {
          "internalType": "address",
          "name": "nftContract",
          "type": "address"
        },
        {
          "internalType": "uint256",
          "name": "marketItemId",
          "type": "uint256"
        }
      ],
      "name": "cancelListing",
      "outputs": [],
      "stateMutability": "nonpayable",
      "type": "function"
    },
    {
      "inputs": [],
      "name": "getListingPrice",
      "outputs": [
        {
          "internalType": "uint256",
          "name": "",
          "type": "uint256"
        }
      ],
      "stateMutability": "view",
      "type": "function",
      "constant": true
    }
  ],
  "bytecode": "0x60806040526702c68af0bb14000060045534801561001c57600080fd5b50600160008190555033600360006101000a81548173ffffffffffffffffffffffffffffffffffffffff021916908373ffffffffffffffffffffffffffffffffffffffff160217905550611979806100756000396000f3fe6080604052600436106100705760003560e01c8063150b7a021161004e578063150b7a02146100f657806358eb2df514610133578063b0916feb1461014f578063b2ddee061461016b57610070565b80630134478a146100755780630f08efe0146100a057806312e85585146100cb575b600080fd5b34801561008157600080fd5b5061008a610194565b604051610097919061119e565b60405180910390f35b3480156100ac57600080fd5b506100b56104f4565b6040516100c2919061119e565b60405180910390f35b3480156100d757600080fd5b506100e06107af565b6040516100ed91906111cf565b60405180910390f35b34801561010257600080fd5b5061011d6004803603810190610118919061139c565b6107b9565b60405161012a919061145a565b60405180910390f35b61014d60048036038101906101489190611475565b6107cd565b005b610169600480360381019061016491906114c8565b610b04565b005b34801561017757600080fd5b50610192600480360381019061018d91906114c8565b610d8d565b005b606060006101a26001610f5d565b90506000806101b16002610f5d565b836101bc9190611537565b90506000805b82811015610262573373ffffffffffffffffffffffffffffffffffffffff16600560006001846101f2919061156b565b815260200190815260200160002060030160009054906101000a900473ffffffffffffffffffffffffffffffffffffffff1673ffffffffffffffffffffffffffffffffffffffff160361024f5760018461024c919061156b565b93505b808061025a906115c1565b9150506101c2565b5060008367ffffffffffffffff81111561027f5761027e611271565b5b6040519080825280602002602001820160405280156102b857816020015b6102a5610f81565b81526020019060019003908161029d5790505b50905060005b838110156104e8573373ffffffffffffffffffffffffffffffffffffffff16600560006001846102ee919061156b565b815260200190815260200160002060030160009054906101000a900473ffffffffffffffffffffffffffffffffffffffff1673ffffffffffffffffffffffffffffffffffffffff16036104d55760006005600060018461034e919061156b565b81526020019081526020016000206000015490506000600560008381526020019081526020016000206040518060c0016040529081600082015481526020016001820160009054906101000a900473ffffffffffffffffffffffffffffffffffffffff1673ffffffffffffffffffffffffffffffffffffffff1673ffffffffffffffffffffffffffffffffffffffff168152602001600282015481526020016003820160009054906101000a900473ffffffffffffffffffffffffffffffffffffffff1673ffffffffffffffffffffffffffffffffffffffff1673ffffffffffffffffffffffffffffffffffffffff1681526020016004820160009054906101000a900473ffffffffffffffffffffffffffffffffffffffff1673ffffffffffffffffffffffffffffffffffffffff1673ffffffffffffffffffffffffffffffffffffffff1681526020016005820154815250509050808486815181106104b8576104b7611609565b5b60200260200101819052506001856104d0919061156b565b945050505b80806104e0906115c1565b9150506102be565b50809550505050505090565b606060006105026001610f5d565b905060006105106002610f5d565b8261051b9190611537565b90506000808267ffffffffffffffff81111561053a57610539611271565b5b60405190808252806020026020018201604052801561057357816020015b610560610f81565b8152602001906001900390816105585790505b50905060005b848110156107a457600073ffffffffffffffffffffffffffffffffffffffff16600560006001846105aa919061156b565b815260200190815260200160002060040160009054906101000a900473ffffffffffffffffffffffffffffffffffffffff1673ffffffffffffffffffffffffffffffffffffffff16036107915760006005600060018461060a919061156b565b81526020019081526020016000206000015490506000600560008381526020019081526020016000206040518060c0016040529081600082015481526020016001820160009054906101000a900473ffffffffffffffffffffffffffffffffffffffff1673ffffffffffffffffffffffffffffffffffffffff1673ffffffffffffffffffffffffffffffffffffffff168152602001600282015481526020016003820160009054906101000a900473ffffffffffffffffffffffffffffffffffffffff1673ffffffffffffffffffffffffffffffffffffffff1673ffffffffffffffffffffffffffffffffffffffff1681526020016004820160009054906101000a900473ffffffffffffffffffffffffffffffffffffffff1673ffffffffffffffffffffffffffffffffffffffff1673ffffffffffffffffffffffffffffffffffffffff16815260200160058201548152505090508084868151811061077457610773611609565b5b602002602001018190525060018561078c919061156b565b945050505b808061079c906115c1565b915050610579565b508094505050505090565b6000600454905090565b600063150b7a0260e01b9050949350505050565b600260005403610812576040517f08c379a000000000000000000000000000000000000000000000000000000000815260040161080990611695565b60405180910390fd5b60026000819055506000811161085d576040517f08c379a000000000000000000000000000000000000000000000000000000000815260040161085490611701565b60405180910390fd5b60045434146108a1576040517f08c379a0000000000000000000000000000000000000000000000000000000008152600401610898906117b9565b60405180910390fd5b6108ab6001610f6b565b60006108b76001610f5d565b90506040518060c001604052808281526020018573ffffffffffffffffffffffffffffffffffffffff1681526020018481526020013373ffffffffffffffffffffffffffffffffffffffff168152602001600073ffffffffffffffffffffffffffffffffffffffff16815260200183815250600560008381526020019081526020016000206000820151816000015560208201518160010160006101000a81548173ffffffffffffffffffffffffffffffffffffffff021916908373ffffffffffffffffffffffffffffffffffffffff1602179055506040820151816002015560608201518160030160006101000a81548173ffffffffffffffffffffffffffffffffffffffff021916908373ffffffffffffffffffffffffffffffffffffffff16021790555060808201518160040160006101000a81548173ffffffffffffffffffffffffffffffffffffffff021916908373ffffffffffffffffffffffffffffffffffffffff16021790555060a082015181600501559050508373ffffffffffffffffffffffffffffffffffffffff166342842e0e3330866040518463ffffffff1660e01b8152600401610a6f939291906117e8565b600060405180830381600087803b158015610a8957600080fd5b505af1158015610a9d573d6000803e3d6000fd5b50505050828473ffffffffffffffffffffffffffffffffffffffff16827f2ad024d53a0dc50c130967f8d4941927ee087ea31394cebb2b9599d3706c9c0033600087604051610aee939291906117e8565b60405180910390a4506001600081905550505050565b600260005403610b49576040517f08c379a0000000000000000000000000000000000000000000000000000000008152600401610b4090611695565b60405180910390fd5b6002600081905550600060056000838152602001908152602001600020600501549050600060056000848152602001908152602001600020600201549050813414610bc9576040517f08c379a0000000000000000000000000000000000000000000000000000000008152600401610bc090611891565b60405180910390fd5b6005600084815260200190815260200160002060030160009054906101000a900473ffffffffffffffffffffffffffffffffffffffff1673ffffffffffffffffffffffffffffffffffffffff166108fc349081150290604051600060405180830381858888f19350505050158015610c45573d6000803e3d6000fd5b508373ffffffffffffffffffffffffffffffffffffffff166342842e0e3033846040518463ffffffff1660e01b8152600401610c83939291906117e8565b600060405180830381600087803b158015610c9d57600080fd5b505af1158015610cb1573d6000803e3d6000fd5b50505050336005600085815260200190815260200160002060040160006101000a81548173ffffffffffffffffffffffffffffffffffffffff021916908373ffffffffffffffffffffffffffffffffffffffff160217905550610d146002610f6b565b600360009054906101000a900473ffffffffffffffffffffffffffffffffffffffff1673ffffffffffffffffffffffffffffffffffffffff166108fc6004549081150290604051600060405180830381858888f19350505050158015610d7e573d6000803e3d6000fd5b50505060016000819055505050565b3373ffffffffffffffffffffffffffffffffffffffff166005600083815260200190815260200160002060030160009054906101000a900473ffffffffffffffffffffffffffffffffffffffff1673ffffffffffffffffffffffffffffffffffffffff1614610e31576040517f08c379a0000000000000000000000000000000000000000000000000000000008152600401610e2890611923565b60405180910390fd5b8173ffffffffffffffffffffffffffffffffffffffff166342842e0e303360056000868152602001908152602001600020600201546040518463ffffffff1660e01b8152600401610e84939291906117e8565b600060405180830381600087803b158015610e9e57600080fd5b505af1158015610eb2573d6000803e3d6000fd5b50505050600560008281526020019081526020016000206000808201600090556001820160006101000a81549073ffffffffffffffffffffffffffffffffffffffff021916905560028201600090556003820160006101000a81549073ffffffffffffffffffffffffffffffffffffffff02191690556004820160006101000a81549073ffffffffffffffffffffffffffffffffffffffff0219169055600582016000905550505050565b600081600001549050919050565b6001816000016000828254019250508190555050565b6040518060c0016040528060008152602001600073ffffffffffffffffffffffffffffffffffffffff16815260200160008152602001600073ffffffffffffffffffffffffffffffffffffffff168152602001600073ffffffffffffffffffffffffffffffffffffffff168152602001600081525090565b600081519050919050565b600082825260208201905092915050565b6000819050602082019050919050565b6000819050919050565b61103881611025565b82525050565b600073ffffffffffffffffffffffffffffffffffffffff82169050919050565b60006110698261103e565b9050919050565b6110798161105e565b82525050565b600061108a8261103e565b9050919050565b61109a8161107f565b82525050565b60c0820160008201516110b6600085018261102f565b5060208201516110c96020850182611070565b5060408201516110dc604085018261102f565b5060608201516110ef6060850182611091565b5060808201516111026080850182611091565b5060a082015161111560a085018261102f565b50505050565b600061112783836110a0565b60c08301905092915050565b6000602082019050919050565b600061114b82610ff9565b6111558185611004565b935061116083611015565b8060005b83811015611191578151611178888261111b565b975061118383611133565b925050600181019050611164565b5085935050505092915050565b600060208201905081810360008301526111b88184611140565b905092915050565b6111c981611025565b82525050565b60006020820190506111e460008301846111c0565b92915050565b6000604051905090565b600080fd5b600080fd5b6112078161105e565b811461121257600080fd5b50565b600081359050611224816111fe565b92915050565b61123381611025565b811461123e57600080fd5b50565b6000813590506112508161122a565b92915050565b600080fd5b600080fd5b6000601f19601f8301169050919050565b7f4e487b7100000000000000000000000000000000000000000000000000000000600052604160045260246000fd5b6112a982611260565b810181811067ffffffffffffffff821117156112c8576112c7611271565b5b80604052505050565b60006112db6111ea565b90506112e782826112a0565b919050565b600067ffffffffffffffff82111561130757611306611271565b5b61131082611260565b9050602081019050919050565b82818337600083830152505050565b600061133f61133a846112ec565b6112d1565b90508281526020810184848401111561135b5761135a61125b565b5b61136684828561131d565b509392505050565b600082601f83011261138357611382611256565b5b813561139384826020860161132c565b91505092915050565b600080600080608085870312156113b6576113b56111f4565b5b60006113c487828801611215565b94505060206113d587828801611215565b93505060406113e687828801611241565b925050606085013567ffffffffffffffff811115611407576114066111f9565b5b6114138782880161136e565b91505092959194509250565b60007fffffffff0000000000000000000000000000000000000000000000000000000082169050919050565b6114548161141f565b82525050565b600060208201905061146f600083018461144b565b92915050565b60008060006060848603121561148e5761148d6111f4565b5b600061149c86828701611215565b93505060206114ad86828701611241565b92505060406114be86828701611241565b9150509250925092565b600080604083850312156114df576114de6111f4565b5b60006114ed85828601611215565b92505060206114fe85828601611241565b9150509250929050565b7f4e487b7100000000000000000000000000000000000000000000000000000000600052601160045260246000fd5b600061154282611025565b915061154d83611025565b9250828210156115605761155f611508565b5b828203905092915050565b600061157682611025565b915061158183611025565b9250827fffffffffffffffffffffffffffffffffffffffffffffffffffffffffffffffff038211156115b6576115b5611508565b5b828201905092915050565b60006115cc82611025565b91507fffffffffffffffffffffffffffffffffffffffffffffffffffffffffffffffff82036115fe576115fd611508565b5b600182019050919050565b7f4e487b7100000000000000000000000000000000000000000000000000000000600052603260045260246000fd5b600082825260208201905092915050565b7f5265656e7472616e637947756172643a207265656e7472616e742063616c6c00600082015250565b600061167f601f83611638565b915061168a82611649565b602082019050919050565b600060208201905081810360008301526116ae81611672565b9050919050565b7f5072696365206d757374206265206174206c6561737420312077656900000000600082015250565b60006116eb601c83611638565b91506116f6826116b5565b602082019050919050565b6000602082019050818103600083015261171a816116de565b9050919050565b7f596f75206d7573742073656e6420746865206c697374696e672070726963652060008201527f616d6f756e7420696e206f7264657220746f2063726561746520612073616c6560208201527f2e00000000000000000000000000000000000000000000000000000000000000604082015250565b60006117a3604183611638565b91506117ae82611721565b606082019050919050565b600060208201905081810360008301526117d281611796565b9050919050565b6117e28161105e565b82525050565b60006060820190506117fd60008301866117d9565b61180a60208301856117d9565b61181760408301846111c0565b949350505050565b7f506c65617365207375626d6974207468652061736b696e67207072696365206960008201527f6e206f7264657220746f20636f6d706c65746520746865207075726368617365602082015250565b600061187b604083611638565b91506118868261181f565b604082019050919050565b600060208201905081810360008301526118aa8161186e565b9050919050565b7f596f75206d757374206265207468652073656c6c657220696e206f726465722060008201527f746f2063616e63656c20746865206c697374696e670000000000000000000000602082015250565b600061190d603583611638565b9150611918826118b1565b604082019050919050565b6000602082019050818103600083015261193c81611900565b905091905056fea2646970667358221220af6fd4363ec7de65c30c6a190cff9a325d69f28c7acd692969805b5667d7941a64736f6c634300080e0033",
  "immutableReferences": {},
  "source": "// SPDX-License-Identifier: MIT\r\npragma solidity ^0.8.9;\r\n\r\nimport '@openzeppelin/contracts/utils/Counters.sol';\r\nimport '@openzeppelin/contracts/token/ERC721/extensions/ERC721URIStorage.sol';\r\nimport '@openzeppelin/contracts/token/ERC721/ERC721.sol'; \r\nimport \"@openzeppelin/contracts/token/ERC721/utils/ERC721Holder.sol\";\r\nimport '@openzeppelin/contracts/security/ReentrancyGuard.sol';\r\n\r\ncontract Marketplace is ReentrancyGuard, ERC721Holder{\r\n    using Counters for Counters.Counter;\r\n    Counters.Counter private _itemIds;\r\n    Counters.Counter private _itemsSold;\r\n\r\n    address payable owner;\r\n    uint256 listingPrice = 0.2 ether;\r\n\r\n    constructor(){\r\n        owner = payable(msg.sender);\r\n    }\r\n\r\n    struct MarketItem {\r\n        uint itemId;\r\n        address nftContract;\r\n        uint256 tokenId;\r\n        address payable seller;\r\n        address payable owner;\r\n        uint256 price;\r\n    }\r\n\r\n    mapping(uint256 => MarketItem) private idToMarketItem;\r\n\r\n    event MarketItemCreated (\r\n        uint indexed itemId,\r\n        address indexed NftContract,\r\n        uint256 indexed tokenId,\r\n        address seller,\r\n        address owner,\r\n        uint256 price\r\n    );\r\n\r\n    function createMarketItem(\r\n        address nftContract,\r\n        uint256 tokenId,\r\n        uint256 price\r\n    ) public payable nonReentrant {\r\n        require(price > 0, \"Price must be at least 1 wei\");\r\n        require(msg.value == listingPrice,\"You must send the listing price amount in order to create a sale.\");\r\n\r\n        _itemIds.increment();\r\n        uint256 itemId = _itemIds.current();\r\n\r\n        idToMarketItem[itemId] = MarketItem(\r\n            itemId,\r\n            nftContract,\r\n            tokenId,\r\n            payable(msg.sender),\r\n            payable(address(0)),\r\n            price\r\n        );\r\n\r\n        IERC721(nftContract).safeTransferFrom(msg.sender, address(this), tokenId);\r\n\r\n        emit MarketItemCreated(itemId, nftContract, tokenId, msg.sender, address(0), price);\r\n    }\r\n\r\n    function sellMarketItem(\r\n        address nftContract,\r\n        uint256 itemId\r\n    ) public payable nonReentrant {\r\n        uint price = idToMarketItem[itemId].price;\r\n        uint tokenId = idToMarketItem[itemId].tokenId;\r\n\r\n        require(msg.value == price, \"Please submit the asking price in order to complete the purchase\");\r\n\r\n        idToMarketItem[itemId].seller.transfer(msg.value);\r\n        IERC721(nftContract).safeTransferFrom(address(this),msg.sender,tokenId);\r\n        idToMarketItem[itemId].owner = payable(msg.sender);\r\n        _itemsSold.increment();\r\n        payable(owner).transfer(listingPrice);\r\n    }\r\n\r\n    function fetchMarketItems() public view returns (MarketItem[] memory) {\r\n        uint itemCount = _itemIds.current();\r\n        uint unsoldItemCount = itemCount - _itemsSold.current();\r\n        uint currIndex = 0;\r\n\r\n        MarketItem[] memory items = new MarketItem[](unsoldItemCount);\r\n\r\n        for(uint i = 0; i < itemCount; i++){\r\n            if(idToMarketItem[i+1].owner == address(0)){\r\n                uint currentId = idToMarketItem[i+1].itemId;\r\n                MarketItem memory currentItem = idToMarketItem[currentId];\r\n                items[currIndex] = currentItem;\r\n                currIndex += 1;\r\n            }\r\n        }\r\n        return items;\r\n    }\r\n\r\n    function getListedItemsBySeller() public view returns (MarketItem[] memory){\r\n        uint itemCount = _itemIds.current();\r\n        uint256 sellerItems = 0;\r\n        uint unsoldItemCount = itemCount - _itemsSold.current();\r\n        uint currIndex = 0;\r\n\r\n        for(uint i = 0; i < unsoldItemCount; i++){\r\n            if(idToMarketItem[i+1].seller == msg.sender){\r\n                sellerItems += 1;\r\n            }\r\n        }\r\n\r\n        MarketItem[] memory items = new MarketItem[](sellerItems);\r\n\r\n          for(uint i = 0; i < unsoldItemCount; i++){\r\n            if(idToMarketItem[i+1].seller == msg.sender){\r\n                uint currentId = idToMarketItem[i+1].itemId;\r\n                MarketItem memory currentItem = idToMarketItem[currentId];\r\n                items[currIndex] = currentItem;\r\n                currIndex += 1;\r\n            }\r\n        }\r\n\r\n      return items;\r\n\r\n    }\r\n\r\n    function cancelListing(address nftContract, uint marketItemId) public {\r\n        require(idToMarketItem[marketItemId].seller == msg.sender,\"You must be the seller in order to cancel the listing\");\r\n         IERC721(nftContract).safeTransferFrom(address(this),msg.sender,idToMarketItem[marketItemId].tokenId);\r\n         delete idToMarketItem[marketItemId];\r\n    }\r\n\r\n    function getListingPrice() public view returns (uint256) {\r\n        return listingPrice;\r\n    }\r\n\r\n\r\n}",
  "sourcePath": "C:\\Users\\Acer\\OneDrive\\Ambiente de Trabalho\\NftCreator\\contracts\\Marketplace.sol",
  "compiler": {
    "name": "solc",
    "version": "0.8.14+commit.80d49f37.Emscripten.clang"
  },
  "schemaVersion": "3.4.4",
  "updatedAt": "2022-05-21T10:55:39.488Z",
  "networkType": "ethereum",
  "devdoc": {
    "kind": "dev",
    "methods": {
      "onERC721Received(address,address,uint256,bytes)": {
        "details": "See {IERC721Receiver-onERC721Received}. Always returns `IERC721Receiver.onERC721Received.selector`."
      }
    },
    "version": 1
  },
  "userdoc": {
    "kind": "user",
    "methods": {},
    "version": 1
  }
}