{
  "contractName": "Marketplace",
  "abi": [
    {
      "inputs": [],
      "stateMutability": "nonpayable",
      "type": "constructor"
    },
    {
      "anonymous": false,
      "inputs": [
        {
          "indexed": true,
          "internalType": "uint256",
          "name": "itemId",
          "type": "uint256"
        },
        {
          "indexed": true,
          "internalType": "address",
          "name": "NftContract",
          "type": "address"
        },
        {
          "indexed": true,
          "internalType": "uint256",
          "name": "tokenId",
          "type": "uint256"
        },
        {
          "indexed": false,
          "internalType": "address",
          "name": "seller",
          "type": "address"
        },
        {
          "indexed": false,
          "internalType": "address",
          "name": "owner",
          "type": "address"
        },
        {
          "indexed": false,
          "internalType": "uint256",
          "name": "price",
          "type": "uint256"
        }
      ],
      "name": "MarketItemCreated",
      "type": "event"
    },
    {
      "inputs": [
        {
          "internalType": "address",
          "name": "",
          "type": "address"
        },
        {
          "internalType": "address",
          "name": "",
          "type": "address"
        },
        {
          "internalType": "uint256",
          "name": "",
          "type": "uint256"
        },
        {
          "internalType": "bytes",
          "name": "",
          "type": "bytes"
        }
      ],
      "name": "onERC721Received",
      "outputs": [
        {
          "internalType": "bytes4",
          "name": "",
          "type": "bytes4"
        }
      ],
      "stateMutability": "nonpayable",
      "type": "function"
    },
    {
      "inputs": [
        {
          "internalType": "address",
          "name": "nftContract",
          "type": "address"
        },
        {
          "internalType": "uint256",
          "name": "tokenId",
          "type": "uint256"
        },
        {
          "internalType": "uint256",
          "name": "price",
          "type": "uint256"
        }
      ],
      "name": "createMarketItem",
      "outputs": [],
      "stateMutability": "payable",
      "type": "function",
      "payable": true
    },
    {
      "inputs": [
        {
          "internalType": "address",
          "name": "nftContract",
          "type": "address"
        },
        {
          "internalType": "uint256",
          "name": "itemId",
          "type": "uint256"
        }
      ],
      "name": "sellMarketItem",
      "outputs": [],
      "stateMutability": "payable",
      "type": "function",
      "payable": true
    },
    {
      "inputs": [],
      "name": "fetchMarketItems",
      "outputs": [
        {
          "components": [
            {
              "internalType": "uint256",
              "name": "itemId",
              "type": "uint256"
            },
            {
              "internalType": "address",
              "name": "nftContract",
              "type": "address"
            },
            {
              "internalType": "uint256",
              "name": "tokenId",
              "type": "uint256"
            },
            {
              "internalType": "address payable",
              "name": "seller",
              "type": "address"
            },
            {
              "internalType": "address payable",
              "name": "owner",
              "type": "address"
            },
            {
              "internalType": "uint256",
              "name": "price",
              "type": "uint256"
            },
            {
              "internalType": "bool",
              "name": "isCancelled",
              "type": "bool"
            }
          ],
          "internalType": "struct Marketplace.MarketItem[]",
          "name": "",
          "type": "tuple[]"
        }
      ],
      "stateMutability": "view",
      "type": "function",
      "constant": true
    },
    {
      "inputs": [],
      "name": "getListedItemsBySeller",
      "outputs": [
        {
          "components": [
            {
              "internalType": "uint256",
              "name": "itemId",
              "type": "uint256"
            },
            {
              "internalType": "address",
              "name": "nftContract",
              "type": "address"
            },
            {
              "internalType": "uint256",
              "name": "tokenId",
              "type": "uint256"
            },
            {
              "internalType": "address payable",
              "name": "seller",
              "type": "address"
            },
            {
              "internalType": "address payable",
              "name": "owner",
              "type": "address"
            },
            {
              "internalType": "uint256",
              "name": "price",
              "type": "uint256"
            },
            {
              "internalType": "bool",
              "name": "isCancelled",
              "type": "bool"
            }
          ],
          "internalType": "struct Marketplace.MarketItem[]",
          "name": "",
          "type": "tuple[]"
        }
      ],
      "stateMutability": "view",
      "type": "function",
      "constant": true
    },
    {
      "inputs": [
        {
          "internalType": "address",
          "name": "nftContract",
          "type": "address"
        },
        {
          "internalType": "uint256",
          "name": "marketItemId",
          "type": "uint256"
        }
      ],
      "name": "cancelListing",
      "outputs": [],
      "stateMutability": "nonpayable",
      "type": "function"
    },
    {
      "inputs": [
        {
          "internalType": "uint256",
          "name": "marketItemId",
          "type": "uint256"
        },
        {
          "internalType": "uint256",
          "name": "price",
          "type": "uint256"
        }
      ],
      "name": "changeItemPrice",
      "outputs": [],
      "stateMutability": "nonpayable",
      "type": "function"
    },
    {
      "inputs": [],
      "name": "getListingPrice",
      "outputs": [
        {
          "internalType": "uint256",
          "name": "",
          "type": "uint256"
        }
      ],
      "stateMutability": "view",
      "type": "function",
      "constant": true
    }
  ],
  "bytecode": "0x60806040526702c68af0bb14000060055534801561001c57600080fd5b50600160008190555033600460006101000a81548173ffffffffffffffffffffffffffffffffffffffff021916908373ffffffffffffffffffffffffffffffffffffffff160217905550611dfe806100756000396000f3fe60806040526004361061007b5760003560e01c806358eb2df51161004e57806358eb2df51461013e578063a7b194241461015a578063b0916feb14610183578063b2ddee061461019f5761007b565b80630134478a146100805780630f08efe0146100ab57806312e85585146100d6578063150b7a0214610101575b600080fd5b34801561008c57600080fd5b506100956101c8565b6040516100a2919061150b565b60405180910390f35b3480156100b757600080fd5b506100c061065f565b6040516100cd919061150b565b60405180910390f35b3480156100e257600080fd5b506100eb610949565b6040516100f8919061153c565b60405180910390f35b34801561010d57600080fd5b5061012860048036038101906101239190611709565b610953565b60405161013591906117c7565b60405180910390f35b610158600480360381019061015391906117e2565b610967565b005b34801561016657600080fd5b50610181600480360381019061017c9190611835565b610cc7565b005b61019d60048036038101906101989190611875565b610d8a565b005b3480156101ab57600080fd5b506101c660048036038101906101c19190611875565b61112d565b005b606060006101d66001611293565b905060008060005b838110156102f9573373ffffffffffffffffffffffffffffffffffffffff166006600060018461020e91906118e4565b815260200190815260200160002060030160009054906101000a900473ffffffffffffffffffffffffffffffffffffffff1673ffffffffffffffffffffffffffffffffffffffff161480156102d15750600073ffffffffffffffffffffffffffffffffffffffff166006600060018461028791906118e4565b815260200190815260200160002060040160009054906101000a900473ffffffffffffffffffffffffffffffffffffffff1673ffffffffffffffffffffffffffffffffffffffff16145b156102e6576001836102e391906118e4565b92505b80806102f19061193a565b9150506101de565b5060008267ffffffffffffffff811115610316576103156115de565b5b60405190808252806020026020018201604052801561034f57816020015b61033c6112b7565b8152602001906001900390816103345790505b50905060005b84811015610654573373ffffffffffffffffffffffffffffffffffffffff166006600060018461038591906118e4565b815260200190815260200160002060030160009054906101000a900473ffffffffffffffffffffffffffffffffffffffff1673ffffffffffffffffffffffffffffffffffffffff1614801561040d575060001515600660006001846103ea91906118e4565b815260200190815260200160002060060160009054906101000a900460ff161515145b80156104875750600073ffffffffffffffffffffffffffffffffffffffff166006600060018461043d91906118e4565b815260200190815260200160002060040160009054906101000a900473ffffffffffffffffffffffffffffffffffffffff1673ffffffffffffffffffffffffffffffffffffffff16145b156106415760006006600060018461049f91906118e4565b81526020019081526020016000206000015490506000600660008381526020019081526020016000206040518060e0016040529081600082015481526020016001820160009054906101000a900473ffffffffffffffffffffffffffffffffffffffff1673ffffffffffffffffffffffffffffffffffffffff1673ffffffffffffffffffffffffffffffffffffffff168152602001600282015481526020016003820160009054906101000a900473ffffffffffffffffffffffffffffffffffffffff1673ffffffffffffffffffffffffffffffffffffffff1673ffffffffffffffffffffffffffffffffffffffff1681526020016004820160009054906101000a900473ffffffffffffffffffffffffffffffffffffffff1673ffffffffffffffffffffffffffffffffffffffff1673ffffffffffffffffffffffffffffffffffffffff168152602001600582015481526020016006820160009054906101000a900460ff16151515158152505090508084868151811061062457610623611982565b5b602002602001018190525060018561063c91906118e4565b945050505b808061064c9061193a565b915050610355565b508094505050505090565b6060600061066d6001611293565b9050600061067b6003611293565b6106856002611293565b8361069091906119b1565b61069a91906119b1565b90506000808267ffffffffffffffff8111156106b9576106b86115de565b5b6040519080825280602002602001820160405280156106f257816020015b6106df6112b7565b8152602001906001900390816106d75790505b50905060005b8481101561093e57600073ffffffffffffffffffffffffffffffffffffffff166006600060018461072991906118e4565b815260200190815260200160002060040160009054906101000a900473ffffffffffffffffffffffffffffffffffffffff1673ffffffffffffffffffffffffffffffffffffffff160361092b5760006006600060018461078991906118e4565b81526020019081526020016000206000015490506000600660008381526020019081526020016000206040518060e0016040529081600082015481526020016001820160009054906101000a900473ffffffffffffffffffffffffffffffffffffffff1673ffffffffffffffffffffffffffffffffffffffff1673ffffffffffffffffffffffffffffffffffffffff168152602001600282015481526020016003820160009054906101000a900473ffffffffffffffffffffffffffffffffffffffff1673ffffffffffffffffffffffffffffffffffffffff1673ffffffffffffffffffffffffffffffffffffffff1681526020016004820160009054906101000a900473ffffffffffffffffffffffffffffffffffffffff1673ffffffffffffffffffffffffffffffffffffffff1673ffffffffffffffffffffffffffffffffffffffff168152602001600582015481526020016006820160009054906101000a900460ff16151515158152505090508084868151811061090e5761090d611982565b5b602002602001018190525060018561092691906118e4565b945050505b80806109369061193a565b9150506106f8565b508094505050505090565b6000600554905090565b600063150b7a0260e01b9050949350505050565b6002600054036109ac576040517f08c379a00000000000000000000000000000000000000000000000000000000081526004016109a390611a42565b60405180910390fd5b6002600081905550600081116109f7576040517f08c379a00000000000000000000000000000000000000000000000000000000081526004016109ee90611aae565b60405180910390fd5b6005543414610a3b576040517f08c379a0000000000000000000000000000000000000000000000000000000008152600401610a3290611b66565b60405180910390fd5b610a4560016112a1565b6000610a516001611293565b90506040518060e001604052808281526020018573ffffffffffffffffffffffffffffffffffffffff1681526020018481526020013373ffffffffffffffffffffffffffffffffffffffff168152602001600073ffffffffffffffffffffffffffffffffffffffff16815260200183815260200160001515815250600660008381526020019081526020016000206000820151816000015560208201518160010160006101000a81548173ffffffffffffffffffffffffffffffffffffffff021916908373ffffffffffffffffffffffffffffffffffffffff1602179055506040820151816002015560608201518160030160006101000a81548173ffffffffffffffffffffffffffffffffffffffff021916908373ffffffffffffffffffffffffffffffffffffffff16021790555060808201518160040160006101000a81548173ffffffffffffffffffffffffffffffffffffffff021916908373ffffffffffffffffffffffffffffffffffffffff16021790555060a0820151816005015560c08201518160060160006101000a81548160ff0219169083151502179055509050508373ffffffffffffffffffffffffffffffffffffffff166342842e0e3330866040518463ffffffff1660e01b8152600401610c3293929190611b95565b600060405180830381600087803b158015610c4c57600080fd5b505af1158015610c60573d6000803e3d6000fd5b50505050828473ffffffffffffffffffffffffffffffffffffffff16827f2ad024d53a0dc50c130967f8d4941927ee087ea31394cebb2b9599d3706c9c0033600087604051610cb193929190611b95565b60405180910390a4506001600081905550505050565b3373ffffffffffffffffffffffffffffffffffffffff166006600084815260200190815260200160002060030160009054906101000a900473ffffffffffffffffffffffffffffffffffffffff1673ffffffffffffffffffffffffffffffffffffffff1614610d6b576040517f08c379a0000000000000000000000000000000000000000000000000000000008152600401610d6290611c3e565b60405180910390fd5b8060066000848152602001908152602001600020600501819055505050565b600260005403610dcf576040517f08c379a0000000000000000000000000000000000000000000000000000000008152600401610dc690611a42565b60405180910390fd5b600260008190555060006006600083815260200190815260200160002060050154905060006006600084815260200190815260200160002060020154905060006006600085815260200190815260200160002060060160009054906101000a900460ff16905060006006600086815260200190815260200160002060030160009054906101000a900473ffffffffffffffffffffffffffffffffffffffff169050833414610eb2576040517f08c379a0000000000000000000000000000000000000000000000000000000008152600401610ea990611cd0565b60405180910390fd5b6000151582151514610ef9576040517f08c379a0000000000000000000000000000000000000000000000000000000008152600401610ef090611d3c565b60405180910390fd5b8073ffffffffffffffffffffffffffffffffffffffff163373ffffffffffffffffffffffffffffffffffffffff1603610f67576040517f08c379a0000000000000000000000000000000000000000000000000000000008152600401610f5e90611da8565b60405180910390fd5b6006600086815260200190815260200160002060030160009054906101000a900473ffffffffffffffffffffffffffffffffffffffff1673ffffffffffffffffffffffffffffffffffffffff166108fc349081150290604051600060405180830381858888f19350505050158015610fe3573d6000803e3d6000fd5b508573ffffffffffffffffffffffffffffffffffffffff166342842e0e3033866040518463ffffffff1660e01b815260040161102193929190611b95565b600060405180830381600087803b15801561103b57600080fd5b505af115801561104f573d6000803e3d6000fd5b50505050336006600087815260200190815260200160002060040160006101000a81548173ffffffffffffffffffffffffffffffffffffffff021916908373ffffffffffffffffffffffffffffffffffffffff1602179055506110b260026112a1565b600460009054906101000a900473ffffffffffffffffffffffffffffffffffffffff1673ffffffffffffffffffffffffffffffffffffffff166108fc6005549081150290604051600060405180830381858888f1935050505015801561111c573d6000803e3d6000fd5b505050505060016000819055505050565b3373ffffffffffffffffffffffffffffffffffffffff166006600083815260200190815260200160002060030160009054906101000a900473ffffffffffffffffffffffffffffffffffffffff1673ffffffffffffffffffffffffffffffffffffffff16146111d1576040517f08c379a00000000000000000000000000000000000000000000000000000000081526004016111c890611c3e565b60405180910390fd5b8173ffffffffffffffffffffffffffffffffffffffff166342842e0e303360066000868152602001908152602001600020600201546040518463ffffffff1660e01b815260040161122493929190611b95565b600060405180830381600087803b15801561123e57600080fd5b505af1158015611252573d6000803e3d6000fd5b5050505060016006600083815260200190815260200160002060060160006101000a81548160ff02191690831515021790555061128f60036112a1565b5050565b600081600001549050919050565b6001816000016000828254019250508190555050565b6040518060e0016040528060008152602001600073ffffffffffffffffffffffffffffffffffffffff16815260200160008152602001600073ffffffffffffffffffffffffffffffffffffffff168152602001600073ffffffffffffffffffffffffffffffffffffffff168152602001600081526020016000151581525090565b600081519050919050565b600082825260208201905092915050565b6000819050602082019050919050565b6000819050919050565b61137781611364565b82525050565b600073ffffffffffffffffffffffffffffffffffffffff82169050919050565b60006113a88261137d565b9050919050565b6113b88161139d565b82525050565b60006113c98261137d565b9050919050565b6113d9816113be565b82525050565b60008115159050919050565b6113f4816113df565b82525050565b60e082016000820151611410600085018261136e565b50602082015161142360208501826113af565b506040820151611436604085018261136e565b50606082015161144960608501826113d0565b50608082015161145c60808501826113d0565b5060a082015161146f60a085018261136e565b5060c082015161148260c08501826113eb565b50505050565b600061149483836113fa565b60e08301905092915050565b6000602082019050919050565b60006114b882611338565b6114c28185611343565b93506114cd83611354565b8060005b838110156114fe5781516114e58882611488565b97506114f0836114a0565b9250506001810190506114d1565b5085935050505092915050565b6000602082019050818103600083015261152581846114ad565b905092915050565b61153681611364565b82525050565b6000602082019050611551600083018461152d565b92915050565b6000604051905090565b600080fd5b600080fd5b6115748161139d565b811461157f57600080fd5b50565b6000813590506115918161156b565b92915050565b6115a081611364565b81146115ab57600080fd5b50565b6000813590506115bd81611597565b92915050565b600080fd5b600080fd5b6000601f19601f8301169050919050565b7f4e487b7100000000000000000000000000000000000000000000000000000000600052604160045260246000fd5b611616826115cd565b810181811067ffffffffffffffff82111715611635576116346115de565b5b80604052505050565b6000611648611557565b9050611654828261160d565b919050565b600067ffffffffffffffff821115611674576116736115de565b5b61167d826115cd565b9050602081019050919050565b82818337600083830152505050565b60006116ac6116a784611659565b61163e565b9050828152602081018484840111156116c8576116c76115c8565b5b6116d384828561168a565b509392505050565b600082601f8301126116f0576116ef6115c3565b5b8135611700848260208601611699565b91505092915050565b6000806000806080858703121561172357611722611561565b5b600061173187828801611582565b945050602061174287828801611582565b9350506040611753878288016115ae565b925050606085013567ffffffffffffffff81111561177457611773611566565b5b611780878288016116db565b91505092959194509250565b60007fffffffff0000000000000000000000000000000000000000000000000000000082169050919050565b6117c18161178c565b82525050565b60006020820190506117dc60008301846117b8565b92915050565b6000806000606084860312156117fb576117fa611561565b5b600061180986828701611582565b935050602061181a868287016115ae565b925050604061182b868287016115ae565b9150509250925092565b6000806040838503121561184c5761184b611561565b5b600061185a858286016115ae565b925050602061186b858286016115ae565b9150509250929050565b6000806040838503121561188c5761188b611561565b5b600061189a85828601611582565b92505060206118ab858286016115ae565b9150509250929050565b7f4e487b7100000000000000000000000000000000000000000000000000000000600052601160045260246000fd5b60006118ef82611364565b91506118fa83611364565b9250827fffffffffffffffffffffffffffffffffffffffffffffffffffffffffffffffff0382111561192f5761192e6118b5565b5b828201905092915050565b600061194582611364565b91507fffffffffffffffffffffffffffffffffffffffffffffffffffffffffffffffff8203611977576119766118b5565b5b600182019050919050565b7f4e487b7100000000000000000000000000000000000000000000000000000000600052603260045260246000fd5b60006119bc82611364565b91506119c783611364565b9250828210156119da576119d96118b5565b5b828203905092915050565b600082825260208201905092915050565b7f5265656e7472616e637947756172643a207265656e7472616e742063616c6c00600082015250565b6000611a2c601f836119e5565b9150611a37826119f6565b602082019050919050565b60006020820190508181036000830152611a5b81611a1f565b9050919050565b7f5072696365206d757374206265206174206c6561737420312077656900000000600082015250565b6000611a98601c836119e5565b9150611aa382611a62565b602082019050919050565b60006020820190508181036000830152611ac781611a8b565b9050919050565b7f596f75206d7573742073656e6420746865206c697374696e672070726963652060008201527f616d6f756e7420696e206f7264657220746f2063726561746520612073616c6560208201527f2e00000000000000000000000000000000000000000000000000000000000000604082015250565b6000611b506041836119e5565b9150611b5b82611ace565b606082019050919050565b60006020820190508181036000830152611b7f81611b43565b9050919050565b611b8f8161139d565b82525050565b6000606082019050611baa6000830186611b86565b611bb76020830185611b86565b611bc4604083018461152d565b949350505050565b7f596f75206d757374206265207468652073656c6c657220696e206f726465722060008201527f746f2063616e63656c20746865206c697374696e670000000000000000000000602082015250565b6000611c286035836119e5565b9150611c3382611bcc565b604082019050919050565b60006020820190508181036000830152611c5781611c1b565b9050919050565b7f506c65617365207375626d6974207468652061736b696e67207072696365206960008201527f6e206f7264657220746f20636f6d706c65746520746865207075726368617365602082015250565b6000611cba6040836119e5565b9150611cc582611c5e565b604082019050919050565b60006020820190508181036000830152611ce981611cad565b9050919050565b7f54686973206c697374696e6720686173206265656e2063616e63656c6c656400600082015250565b6000611d26601f836119e5565b9150611d3182611cf0565b602082019050919050565b60006020820190508181036000830152611d5581611d19565b9050919050565b7f596f752063616e6e6f742062757920796f7572206f776e204e46540000000000600082015250565b6000611d92601b836119e5565b9150611d9d82611d5c565b602082019050919050565b60006020820190508181036000830152611dc181611d85565b905091905056fea26469706673582212205a20962796669871fb7750ed5d1ee2ea7441f1ecf07af1b9f8f89ec58af9fa2e64736f6c634300080e0033",
  "immutableReferences": {},
  "source": "// SPDX-License-Identifier: MIT\r\npragma solidity ^0.8.9;\r\n\r\nimport '@openzeppelin/contracts/utils/Counters.sol';\r\nimport '@openzeppelin/contracts/token/ERC721/extensions/ERC721URIStorage.sol';\r\nimport '@openzeppelin/contracts/token/ERC721/ERC721.sol'; \r\nimport \"@openzeppelin/contracts/token/ERC721/utils/ERC721Holder.sol\";\r\nimport '@openzeppelin/contracts/security/ReentrancyGuard.sol';\r\n\r\ncontract Marketplace is ReentrancyGuard, ERC721Holder{\r\n    using Counters for Counters.Counter;\r\n    Counters.Counter private _itemIds;\r\n    Counters.Counter private _itemsSold;\r\n    Counters.Counter private _itemsCancelled;\r\n\r\n    address payable owner;\r\n    uint256 listingPrice = 0.2 ether;\r\n\r\n    constructor(){\r\n        owner = payable(msg.sender);\r\n    }\r\n\r\n    struct MarketItem {\r\n        uint itemId;\r\n        address nftContract;\r\n        uint256 tokenId;\r\n        address payable seller;\r\n        address payable owner;\r\n        uint256 price;\r\n        bool isCancelled;\r\n    }\r\n\r\n    mapping(uint256 => MarketItem) private idToMarketItem;\r\n\r\n    event MarketItemCreated (\r\n        uint indexed itemId,\r\n        address indexed NftContract,\r\n        uint256 indexed tokenId,\r\n        address seller,\r\n        address owner,\r\n        uint256 price\r\n    );\r\n\r\n    function createMarketItem(\r\n        address nftContract,\r\n        uint256 tokenId,\r\n        uint256 price\r\n    ) public payable nonReentrant {\r\n        require(price > 0, \"Price must be at least 1 wei\");\r\n        require(msg.value == listingPrice,\"You must send the listing price amount in order to create a sale.\");\r\n\r\n        _itemIds.increment();\r\n        uint256 itemId = _itemIds.current();\r\n\r\n        idToMarketItem[itemId] = MarketItem(\r\n            itemId,\r\n            nftContract,\r\n            tokenId,\r\n            payable(msg.sender),\r\n            payable(address(0)),\r\n            price,\r\n            false\r\n        );\r\n\r\n        IERC721(nftContract).safeTransferFrom(msg.sender, address(this), tokenId);\r\n\r\n        emit MarketItemCreated(itemId, nftContract, tokenId, msg.sender, address(0), price);\r\n    }\r\n\r\n    function sellMarketItem(\r\n        address nftContract,\r\n        uint256 itemId\r\n    ) public payable nonReentrant {\r\n        uint price = idToMarketItem[itemId].price;\r\n        uint tokenId = idToMarketItem[itemId].tokenId;\r\n        bool isCancelled = idToMarketItem[itemId].isCancelled;\r\n        address seller = idToMarketItem[itemId].seller;\r\n\r\n        require(msg.value == price, \"Please submit the asking price in order to complete the purchase\");\r\n        require(isCancelled == false, \"This listing has been cancelled\");\r\n        require(msg.sender != seller,\"You cannot buy your own NFT\");\r\n\r\n        idToMarketItem[itemId].seller.transfer(msg.value);\r\n        IERC721(nftContract).safeTransferFrom(address(this),msg.sender,tokenId);\r\n        idToMarketItem[itemId].owner = payable(msg.sender);\r\n        _itemsSold.increment();\r\n        payable(owner).transfer(listingPrice);\r\n    }\r\n\r\n    function fetchMarketItems() public view returns (MarketItem[] memory) {\r\n        uint itemCount = _itemIds.current();\r\n        uint availableItemCount = itemCount - _itemsSold.current() - _itemsCancelled.current();\r\n        uint currIndex = 0;\r\n\r\n        MarketItem[] memory items = new MarketItem[](availableItemCount);\r\n\r\n        for(uint i = 0; i < itemCount; i++){\r\n            if(idToMarketItem[i+1].owner == address(0)){\r\n                uint currentId = idToMarketItem[i+1].itemId;\r\n                MarketItem memory currentItem = idToMarketItem[currentId];\r\n                items[currIndex] = currentItem;\r\n                currIndex += 1;\r\n            }\r\n        }\r\n        return items;\r\n    }\r\n\r\n    function getListedItemsBySeller() public view returns (MarketItem[] memory){\r\n        uint itemCount = _itemIds.current();\r\n        uint256 sellerItems = 0;\r\n        uint currIndex = 0;\r\n\r\n        for(uint i = 0; i < itemCount; i++){\r\n            if(idToMarketItem[i+1].seller == msg.sender && idToMarketItem[i+1].owner == address(0)){\r\n                sellerItems += 1;\r\n            }\r\n        }\r\n\r\n        MarketItem[] memory items = new MarketItem[](sellerItems);\r\n\r\n          for(uint i = 0; i < itemCount; i++){\r\n            if(idToMarketItem[i+1].seller == msg.sender && idToMarketItem[i+1].isCancelled == false && idToMarketItem[i+1].owner == address(0)){\r\n                uint currentId = idToMarketItem[i+1].itemId;\r\n                MarketItem memory currentItem = idToMarketItem[currentId];\r\n                items[currIndex] = currentItem;\r\n                currIndex += 1;\r\n            }\r\n        }\r\n\r\n      return items;\r\n\r\n    }\r\n\r\n    function cancelListing(address nftContract, uint256 marketItemId) public {\r\n        require(idToMarketItem[marketItemId].seller == msg.sender,\"You must be the seller in order to cancel the listing\");\r\n         IERC721(nftContract).safeTransferFrom(address(this),msg.sender,idToMarketItem[marketItemId].tokenId);\r\n         idToMarketItem[marketItemId].isCancelled = true;\r\n         _itemsCancelled.increment();\r\n    }\r\n\r\n    function changeItemPrice(uint256 marketItemId, uint256 price) public {\r\n        require(idToMarketItem[marketItemId].seller == msg.sender,\"You must be the seller in order to cancel the listing\");\r\n\r\n        idToMarketItem[marketItemId].price = price;\r\n    }\r\n\r\n    function getListingPrice() public view returns (uint256) {\r\n        return listingPrice;\r\n    }\r\n\r\n\r\n}",
  "sourcePath": "C:\\Users\\Acer\\OneDrive\\Ambiente de Trabalho\\NftCreator\\contracts\\Marketplace.sol",
  "compiler": {
    "name": "solc",
    "version": "0.8.14+commit.80d49f37.Emscripten.clang"
  },
  "schemaVersion": "3.4.4",
  "updatedAt": "2022-05-29T17:54:31.255Z",
  "networkType": "ethereum",
  "devdoc": {
    "kind": "dev",
    "methods": {
      "onERC721Received(address,address,uint256,bytes)": {
        "details": "See {IERC721Receiver-onERC721Received}. Always returns `IERC721Receiver.onERC721Received.selector`."
      }
    },
    "version": 1
  },
  "userdoc": {
    "kind": "user",
    "methods": {},
    "version": 1
  }
}