{
  "contractName": "Marketplace",
  "abi": [
    {
      "inputs": [],
      "stateMutability": "nonpayable",
      "type": "constructor"
    },
    {
      "anonymous": false,
      "inputs": [
        {
          "indexed": true,
          "internalType": "uint256",
          "name": "itemId",
          "type": "uint256"
        },
        {
          "indexed": true,
          "internalType": "address",
          "name": "NftContract",
          "type": "address"
        },
        {
          "indexed": true,
          "internalType": "uint256",
          "name": "tokenId",
          "type": "uint256"
        },
        {
          "indexed": false,
          "internalType": "address",
          "name": "seller",
          "type": "address"
        },
        {
          "indexed": false,
          "internalType": "address",
          "name": "owner",
          "type": "address"
        },
        {
          "indexed": false,
          "internalType": "uint256",
          "name": "price",
          "type": "uint256"
        }
      ],
      "name": "MarketItemCreated",
      "type": "event"
    },
    {
      "inputs": [
        {
          "internalType": "address",
          "name": "",
          "type": "address"
        },
        {
          "internalType": "address",
          "name": "",
          "type": "address"
        },
        {
          "internalType": "uint256",
          "name": "",
          "type": "uint256"
        },
        {
          "internalType": "bytes",
          "name": "",
          "type": "bytes"
        }
      ],
      "name": "onERC721Received",
      "outputs": [
        {
          "internalType": "bytes4",
          "name": "",
          "type": "bytes4"
        }
      ],
      "stateMutability": "nonpayable",
      "type": "function"
    },
    {
      "inputs": [
        {
          "internalType": "address",
          "name": "nftContract",
          "type": "address"
        },
        {
          "internalType": "uint256",
          "name": "tokenId",
          "type": "uint256"
        },
        {
          "internalType": "uint256",
          "name": "price",
          "type": "uint256"
        }
      ],
      "name": "createMarketItem",
      "outputs": [],
      "stateMutability": "payable",
      "type": "function",
      "payable": true
    },
    {
      "inputs": [
        {
          "internalType": "address",
          "name": "nftContract",
          "type": "address"
        },
        {
          "internalType": "uint256",
          "name": "itemId",
          "type": "uint256"
        }
      ],
      "name": "sellMarketItem",
      "outputs": [],
      "stateMutability": "payable",
      "type": "function",
      "payable": true
    },
    {
      "inputs": [],
      "name": "fetchMarketItems",
      "outputs": [
        {
          "components": [
            {
              "internalType": "uint256",
              "name": "itemId",
              "type": "uint256"
            },
            {
              "internalType": "address",
              "name": "nftContract",
              "type": "address"
            },
            {
              "internalType": "uint256",
              "name": "tokenId",
              "type": "uint256"
            },
            {
              "internalType": "address payable",
              "name": "seller",
              "type": "address"
            },
            {
              "internalType": "address payable",
              "name": "owner",
              "type": "address"
            },
            {
              "internalType": "uint256",
              "name": "price",
              "type": "uint256"
            }
          ],
          "internalType": "struct Marketplace.MarketItem[]",
          "name": "",
          "type": "tuple[]"
        }
      ],
      "stateMutability": "view",
      "type": "function",
      "constant": true
    }
  ],
  "bytecode": "0x6080604052670de0b6b3a764000060045534801561001c57600080fd5b50600160008190555033600360006101000a81548173ffffffffffffffffffffffffffffffffffffffff021916908373ffffffffffffffffffffffffffffffffffffffff1602179055506112e2806100756000396000f3fe60806040526004361061003f5760003560e01c80630f08efe014610044578063150b7a021461006f57806358eb2df5146100ac578063b0916feb146100c8575b600080fd5b34801561005057600080fd5b506100596100e4565b6040516100669190610bb4565b60405180910390f35b34801561007b57600080fd5b5061009660048036038101906100919190610d88565b61039f565b6040516100a39190610e46565b60405180910390f35b6100c660048036038101906100c19190610e61565b6103b3565b005b6100e260048036038101906100dd9190610eb4565b6106ea565b005b606060006100f26001610973565b905060006101006002610973565b8261010b9190610f23565b90506000808267ffffffffffffffff81111561012a57610129610c5d565b5b60405190808252806020026020018201604052801561016357816020015b610150610997565b8152602001906001900390816101485790505b50905060005b8481101561039457600073ffffffffffffffffffffffffffffffffffffffff166005600060018461019a9190610f57565b815260200190815260200160002060040160009054906101000a900473ffffffffffffffffffffffffffffffffffffffff1673ffffffffffffffffffffffffffffffffffffffff1603610381576000600560006001846101fa9190610f57565b81526020019081526020016000206000015490506000600560008381526020019081526020016000206040518060c0016040529081600082015481526020016001820160009054906101000a900473ffffffffffffffffffffffffffffffffffffffff1673ffffffffffffffffffffffffffffffffffffffff1673ffffffffffffffffffffffffffffffffffffffff168152602001600282015481526020016003820160009054906101000a900473ffffffffffffffffffffffffffffffffffffffff1673ffffffffffffffffffffffffffffffffffffffff1673ffffffffffffffffffffffffffffffffffffffff1681526020016004820160009054906101000a900473ffffffffffffffffffffffffffffffffffffffff1673ffffffffffffffffffffffffffffffffffffffff1673ffffffffffffffffffffffffffffffffffffffff16815260200160058201548152505090508084868151811061036457610363610fad565b5b602002602001018190525060018561037c9190610f57565b945050505b808061038c90610fdc565b915050610169565b508094505050505090565b600063150b7a0260e01b9050949350505050565b6002600054036103f8576040517f08c379a00000000000000000000000000000000000000000000000000000000081526004016103ef90611081565b60405180910390fd5b600260008190555060008111610443576040517f08c379a000000000000000000000000000000000000000000000000000000000815260040161043a906110ed565b60405180910390fd5b6004543414610487576040517f08c379a000000000000000000000000000000000000000000000000000000000815260040161047e906111a5565b60405180910390fd5b6104916001610981565b600061049d6001610973565b90506040518060c001604052808281526020018573ffffffffffffffffffffffffffffffffffffffff1681526020018481526020013373ffffffffffffffffffffffffffffffffffffffff168152602001600073ffffffffffffffffffffffffffffffffffffffff16815260200183815250600560008381526020019081526020016000206000820151816000015560208201518160010160006101000a81548173ffffffffffffffffffffffffffffffffffffffff021916908373ffffffffffffffffffffffffffffffffffffffff1602179055506040820151816002015560608201518160030160006101000a81548173ffffffffffffffffffffffffffffffffffffffff021916908373ffffffffffffffffffffffffffffffffffffffff16021790555060808201518160040160006101000a81548173ffffffffffffffffffffffffffffffffffffffff021916908373ffffffffffffffffffffffffffffffffffffffff16021790555060a082015181600501559050508373ffffffffffffffffffffffffffffffffffffffff166342842e0e3330866040518463ffffffff1660e01b8152600401610655939291906111e3565b600060405180830381600087803b15801561066f57600080fd5b505af1158015610683573d6000803e3d6000fd5b50505050828473ffffffffffffffffffffffffffffffffffffffff16827f2ad024d53a0dc50c130967f8d4941927ee087ea31394cebb2b9599d3706c9c00336000876040516106d4939291906111e3565b60405180910390a4506001600081905550505050565b60026000540361072f576040517f08c379a000000000000000000000000000000000000000000000000000000000815260040161072690611081565b60405180910390fd5b60026000819055506000600560008381526020019081526020016000206005015490506000600560008481526020019081526020016000206002015490508134146107af576040517f08c379a00000000000000000000000000000000000000000000000000000000081526004016107a69061128c565b60405180910390fd5b6005600084815260200190815260200160002060030160009054906101000a900473ffffffffffffffffffffffffffffffffffffffff1673ffffffffffffffffffffffffffffffffffffffff166108fc349081150290604051600060405180830381858888f1935050505015801561082b573d6000803e3d6000fd5b508373ffffffffffffffffffffffffffffffffffffffff166342842e0e3033846040518463ffffffff1660e01b8152600401610869939291906111e3565b600060405180830381600087803b15801561088357600080fd5b505af1158015610897573d6000803e3d6000fd5b50505050336005600085815260200190815260200160002060040160006101000a81548173ffffffffffffffffffffffffffffffffffffffff021916908373ffffffffffffffffffffffffffffffffffffffff1602179055506108fa6002610981565b600360009054906101000a900473ffffffffffffffffffffffffffffffffffffffff1673ffffffffffffffffffffffffffffffffffffffff166108fc6004549081150290604051600060405180830381858888f19350505050158015610964573d6000803e3d6000fd5b50505060016000819055505050565b600081600001549050919050565b6001816000016000828254019250508190555050565b6040518060c0016040528060008152602001600073ffffffffffffffffffffffffffffffffffffffff16815260200160008152602001600073ffffffffffffffffffffffffffffffffffffffff168152602001600073ffffffffffffffffffffffffffffffffffffffff168152602001600081525090565b600081519050919050565b600082825260208201905092915050565b6000819050602082019050919050565b6000819050919050565b610a4e81610a3b565b82525050565b600073ffffffffffffffffffffffffffffffffffffffff82169050919050565b6000610a7f82610a54565b9050919050565b610a8f81610a74565b82525050565b6000610aa082610a54565b9050919050565b610ab081610a95565b82525050565b60c082016000820151610acc6000850182610a45565b506020820151610adf6020850182610a86565b506040820151610af26040850182610a45565b506060820151610b056060850182610aa7565b506080820151610b186080850182610aa7565b5060a0820151610b2b60a0850182610a45565b50505050565b6000610b3d8383610ab6565b60c08301905092915050565b6000602082019050919050565b6000610b6182610a0f565b610b6b8185610a1a565b9350610b7683610a2b565b8060005b83811015610ba7578151610b8e8882610b31565b9750610b9983610b49565b925050600181019050610b7a565b5085935050505092915050565b60006020820190508181036000830152610bce8184610b56565b905092915050565b6000604051905090565b600080fd5b600080fd5b610bf381610a74565b8114610bfe57600080fd5b50565b600081359050610c1081610bea565b92915050565b610c1f81610a3b565b8114610c2a57600080fd5b50565b600081359050610c3c81610c16565b92915050565b600080fd5b600080fd5b6000601f19601f8301169050919050565b7f4e487b7100000000000000000000000000000000000000000000000000000000600052604160045260246000fd5b610c9582610c4c565b810181811067ffffffffffffffff82111715610cb457610cb3610c5d565b5b80604052505050565b6000610cc7610bd6565b9050610cd38282610c8c565b919050565b600067ffffffffffffffff821115610cf357610cf2610c5d565b5b610cfc82610c4c565b9050602081019050919050565b82818337600083830152505050565b6000610d2b610d2684610cd8565b610cbd565b905082815260208101848484011115610d4757610d46610c47565b5b610d52848285610d09565b509392505050565b600082601f830112610d6f57610d6e610c42565b5b8135610d7f848260208601610d18565b91505092915050565b60008060008060808587031215610da257610da1610be0565b5b6000610db087828801610c01565b9450506020610dc187828801610c01565b9350506040610dd287828801610c2d565b925050606085013567ffffffffffffffff811115610df357610df2610be5565b5b610dff87828801610d5a565b91505092959194509250565b60007fffffffff0000000000000000000000000000000000000000000000000000000082169050919050565b610e4081610e0b565b82525050565b6000602082019050610e5b6000830184610e37565b92915050565b600080600060608486031215610e7a57610e79610be0565b5b6000610e8886828701610c01565b9350506020610e9986828701610c2d565b9250506040610eaa86828701610c2d565b9150509250925092565b60008060408385031215610ecb57610eca610be0565b5b6000610ed985828601610c01565b9250506020610eea85828601610c2d565b9150509250929050565b7f4e487b7100000000000000000000000000000000000000000000000000000000600052601160045260246000fd5b6000610f2e82610a3b565b9150610f3983610a3b565b925082821015610f4c57610f4b610ef4565b5b828203905092915050565b6000610f6282610a3b565b9150610f6d83610a3b565b9250827fffffffffffffffffffffffffffffffffffffffffffffffffffffffffffffffff03821115610fa257610fa1610ef4565b5b828201905092915050565b7f4e487b7100000000000000000000000000000000000000000000000000000000600052603260045260246000fd5b6000610fe782610a3b565b91507fffffffffffffffffffffffffffffffffffffffffffffffffffffffffffffffff820361101957611018610ef4565b5b600182019050919050565b600082825260208201905092915050565b7f5265656e7472616e637947756172643a207265656e7472616e742063616c6c00600082015250565b600061106b601f83611024565b915061107682611035565b602082019050919050565b6000602082019050818103600083015261109a8161105e565b9050919050565b7f5072696365206d757374206265206174206c6561737420312077656900000000600082015250565b60006110d7601c83611024565b91506110e2826110a1565b602082019050919050565b60006020820190508181036000830152611106816110ca565b9050919050565b7f596f75206d7573742073656e6420746865206c697374696e672070726963652060008201527f616d6f756e7420696e206f7264657220746f2063726561746520612073616c6560208201527f2e00000000000000000000000000000000000000000000000000000000000000604082015250565b600061118f604183611024565b915061119a8261110d565b606082019050919050565b600060208201905081810360008301526111be81611182565b9050919050565b6111ce81610a74565b82525050565b6111dd81610a3b565b82525050565b60006060820190506111f860008301866111c5565b61120560208301856111c5565b61121260408301846111d4565b949350505050565b7f506c65617365207375626d6974207468652061736b696e67207072696365206960008201527f6e206f7264657220746f20636f6d706c65746520746865207075726368617365602082015250565b6000611276604083611024565b91506112818261121a565b604082019050919050565b600060208201905081810360008301526112a581611269565b905091905056fea26469706673582212201dd883b556b6b27130391d5326c752f6dcea7102047b14132cca6287f1897b8564736f6c634300080d0033",
  "immutableReferences": {},
  "source": "// SPDX-License-Identifier: MIT\r\npragma solidity ^0.8.9;\r\n\r\nimport '@openzeppelin/contracts/utils/Counters.sol';\r\nimport '@openzeppelin/contracts/token/ERC721/extensions/ERC721URIStorage.sol';\r\nimport '@openzeppelin/contracts/token/ERC721/ERC721.sol'; \r\nimport \"@openzeppelin/contracts/token/ERC721/utils/ERC721Holder.sol\";\r\nimport '@openzeppelin/contracts/security/ReentrancyGuard.sol';\r\n\r\ncontract Marketplace is ReentrancyGuard, ERC721Holder{\r\n    using Counters for Counters.Counter;\r\n    Counters.Counter private _itemIds;\r\n    Counters.Counter private _itemsSold;\r\n\r\n    address payable owner;\r\n    uint256 listingPrice = 1 ether;\r\n\r\n    constructor(){\r\n        owner = payable(msg.sender);\r\n    }\r\n\r\n    struct MarketItem {\r\n        uint itemId;\r\n        address nftContract;\r\n        uint256 tokenId;\r\n        address payable seller;\r\n        address payable owner;\r\n        uint256 price;\r\n    }\r\n\r\n    mapping(uint256 => MarketItem) private idToMarketItem;\r\n\r\n    event MarketItemCreated (\r\n        uint indexed itemId,\r\n        address indexed NftContract,\r\n        uint256 indexed tokenId,\r\n        address seller,\r\n        address owner,\r\n        uint256 price\r\n    );\r\n\r\n    function createMarketItem(\r\n        address nftContract,\r\n        uint256 tokenId,\r\n        uint256 price\r\n    ) public payable nonReentrant {\r\n        require(price > 0, \"Price must be at least 1 wei\");\r\n        require(msg.value == listingPrice,\"You must send the listing price amount in order to create a sale.\");\r\n\r\n        _itemIds.increment();\r\n        uint256 itemId = _itemIds.current();\r\n\r\n        idToMarketItem[itemId] = MarketItem(\r\n            itemId,\r\n            nftContract,\r\n            tokenId,\r\n            payable(msg.sender),\r\n            payable(address(0)),\r\n            price\r\n        );\r\n\r\n        IERC721(nftContract).safeTransferFrom(msg.sender, address(this), tokenId);\r\n\r\n        emit MarketItemCreated(itemId, nftContract, tokenId, msg.sender, address(0), price);\r\n    }\r\n\r\n    function sellMarketItem(\r\n        address nftContract,\r\n        uint256 itemId\r\n    ) public payable nonReentrant {\r\n        uint price = idToMarketItem[itemId].price;\r\n        uint tokenId = idToMarketItem[itemId].tokenId;\r\n\r\n        require(msg.value == price, \"Please submit the asking price in order to complete the purchase\");\r\n\r\n        idToMarketItem[itemId].seller.transfer(msg.value);\r\n        IERC721(nftContract).safeTransferFrom(address(this),msg.sender,tokenId);\r\n        idToMarketItem[itemId].owner = payable(msg.sender);\r\n        _itemsSold.increment();\r\n        payable(owner).transfer(listingPrice);\r\n    }\r\n\r\n    function fetchMarketItems() public view returns (MarketItem[] memory) {\r\n        uint itemCount = _itemIds.current();\r\n        uint unsoldItemCount = itemCount - _itemsSold.current();\r\n        uint currIndex = 0;\r\n\r\n        MarketItem[] memory items = new MarketItem[](unsoldItemCount);\r\n\r\n        for(uint i = 0; i < itemCount; i++){\r\n            if(idToMarketItem[i+1].owner == address(0)){\r\n                uint currentId = idToMarketItem[i+1].itemId;\r\n                MarketItem memory currentItem = idToMarketItem[currentId];\r\n                items[currIndex] = currentItem;\r\n                currIndex += 1;\r\n            }\r\n        }\r\n        return items;\r\n    }\r\n\r\n\r\n}",
  "sourcePath": "C:\\Users\\Acer\\OneDrive\\Ambiente de Trabalho\\NftCreator\\contracts\\Marketplace.sol",
  "compiler": {
    "name": "solc",
    "version": "0.8.13+commit.abaa5c0e.Emscripten.clang"
  },
  "schemaVersion": "3.4.4",
  "updatedAt": "2022-05-16T15:40:48.446Z",
  "networkType": "ethereum",
  "devdoc": {
    "kind": "dev",
    "methods": {
      "onERC721Received(address,address,uint256,bytes)": {
        "details": "See {IERC721Receiver-onERC721Received}. Always returns `IERC721Receiver.onERC721Received.selector`."
      }
    },
    "version": 1
  },
  "userdoc": {
    "kind": "user",
    "methods": {},
    "version": 1
  }
}