{
  "contractName": "Marketplace",
  "abi": [
    {
      "inputs": [],
      "stateMutability": "nonpayable",
      "type": "constructor"
    },
    {
      "anonymous": false,
      "inputs": [
        {
          "indexed": true,
          "internalType": "uint256",
          "name": "itemId",
          "type": "uint256"
        },
        {
          "indexed": true,
          "internalType": "address",
          "name": "NftContract",
          "type": "address"
        },
        {
          "indexed": true,
          "internalType": "uint256",
          "name": "tokenId",
          "type": "uint256"
        },
        {
          "indexed": false,
          "internalType": "address",
          "name": "seller",
          "type": "address"
        },
        {
          "indexed": false,
          "internalType": "address",
          "name": "owner",
          "type": "address"
        },
        {
          "indexed": false,
          "internalType": "uint256",
          "name": "price",
          "type": "uint256"
        }
      ],
      "name": "MarketItemCreated",
      "type": "event"
    },
    {
      "inputs": [
        {
          "internalType": "address",
          "name": "nftContract",
          "type": "address"
        },
        {
          "internalType": "uint256",
          "name": "tokenId",
          "type": "uint256"
        },
        {
          "internalType": "uint256",
          "name": "price",
          "type": "uint256"
        }
      ],
      "name": "createMarketItem",
      "outputs": [],
      "stateMutability": "payable",
      "type": "function"
    },
    {
      "inputs": [
        {
          "internalType": "address",
          "name": "nftContract",
          "type": "address"
        },
        {
          "internalType": "uint256",
          "name": "itemId",
          "type": "uint256"
        }
      ],
      "name": "sellMarketItem",
      "outputs": [],
      "stateMutability": "payable",
      "type": "function"
    },
    {
      "inputs": [],
      "name": "fetchMarketItems",
      "outputs": [
        {
          "components": [
            {
              "internalType": "uint256",
              "name": "itemId",
              "type": "uint256"
            },
            {
              "internalType": "address",
              "name": "nftContract",
              "type": "address"
            },
            {
              "internalType": "uint256",
              "name": "tokenId",
              "type": "uint256"
            },
            {
              "internalType": "address payable",
              "name": "seller",
              "type": "address"
            },
            {
              "internalType": "address payable",
              "name": "owner",
              "type": "address"
            },
            {
              "internalType": "uint256",
              "name": "price",
              "type": "uint256"
            }
          ],
          "internalType": "struct Marketplace.MarketItem[]",
          "name": "",
          "type": "tuple[]"
        }
      ],
      "stateMutability": "view",
      "type": "function"
    }
  ],
  "bytecode": "0x6080604052670de0b6b3a764000060045534801561001c57600080fd5b50600160008190555033600360006101000a81548173ffffffffffffffffffffffffffffffffffffffff021916908373ffffffffffffffffffffffffffffffffffffffff160217905550611087806100756000396000f3fe6080604052600436106100345760003560e01c80630f08efe01461003957806358eb2df514610064578063b0916feb14610080575b600080fd5b34801561004557600080fd5b5061004e61009c565b60405161005b9190610b58565b60405180910390f35b61007e60048036038101906100799190610bd7565b610357565b005b61009a60048036038101906100959190610c2a565b61068e565b005b606060006100aa6001610917565b905060006100b86002610917565b826100c39190610c99565b90506000808267ffffffffffffffff8111156100e2576100e1610ccd565b5b60405190808252806020026020018201604052801561011b57816020015b61010861093b565b8152602001906001900390816101005790505b50905060005b8481101561034c57600073ffffffffffffffffffffffffffffffffffffffff16600560006001846101529190610cfc565b815260200190815260200160002060040160009054906101000a900473ffffffffffffffffffffffffffffffffffffffff1673ffffffffffffffffffffffffffffffffffffffff1603610339576000600560006001846101b29190610cfc565b81526020019081526020016000206000015490506000600560008381526020019081526020016000206040518060c0016040529081600082015481526020016001820160009054906101000a900473ffffffffffffffffffffffffffffffffffffffff1673ffffffffffffffffffffffffffffffffffffffff1673ffffffffffffffffffffffffffffffffffffffff168152602001600282015481526020016003820160009054906101000a900473ffffffffffffffffffffffffffffffffffffffff1673ffffffffffffffffffffffffffffffffffffffff1673ffffffffffffffffffffffffffffffffffffffff1681526020016004820160009054906101000a900473ffffffffffffffffffffffffffffffffffffffff1673ffffffffffffffffffffffffffffffffffffffff1673ffffffffffffffffffffffffffffffffffffffff16815260200160058201548152505090508084868151811061031c5761031b610d52565b5b60200260200101819052506001856103349190610cfc565b945050505b808061034490610d81565b915050610121565b508094505050505090565b60026000540361039c576040517f08c379a000000000000000000000000000000000000000000000000000000000815260040161039390610e26565b60405180910390fd5b6002600081905550600081116103e7576040517f08c379a00000000000000000000000000000000000000000000000000000000081526004016103de90610e92565b60405180910390fd5b600454341461042b576040517f08c379a000000000000000000000000000000000000000000000000000000000815260040161042290610f4a565b60405180910390fd5b6104356001610925565b60006104416001610917565b90506040518060c001604052808281526020018573ffffffffffffffffffffffffffffffffffffffff1681526020018481526020013373ffffffffffffffffffffffffffffffffffffffff168152602001600073ffffffffffffffffffffffffffffffffffffffff16815260200183815250600560008381526020019081526020016000206000820151816000015560208201518160010160006101000a81548173ffffffffffffffffffffffffffffffffffffffff021916908373ffffffffffffffffffffffffffffffffffffffff1602179055506040820151816002015560608201518160030160006101000a81548173ffffffffffffffffffffffffffffffffffffffff021916908373ffffffffffffffffffffffffffffffffffffffff16021790555060808201518160040160006101000a81548173ffffffffffffffffffffffffffffffffffffffff021916908373ffffffffffffffffffffffffffffffffffffffff16021790555060a082015181600501559050508373ffffffffffffffffffffffffffffffffffffffff166323b872dd3330866040518463ffffffff1660e01b81526004016105f993929190610f88565b600060405180830381600087803b15801561061357600080fd5b505af1158015610627573d6000803e3d6000fd5b50505050828473ffffffffffffffffffffffffffffffffffffffff16827f2ad024d53a0dc50c130967f8d4941927ee087ea31394cebb2b9599d3706c9c003360008760405161067893929190610f88565b60405180910390a4506001600081905550505050565b6002600054036106d3576040517f08c379a00000000000000000000000000000000000000000000000000000000081526004016106ca90610e26565b60405180910390fd5b6002600081905550600060056000838152602001908152602001600020600501549050600060056000848152602001908152602001600020600201549050813414610753576040517f08c379a000000000000000000000000000000000000000000000000000000000815260040161074a90611031565b60405180910390fd5b6005600084815260200190815260200160002060030160009054906101000a900473ffffffffffffffffffffffffffffffffffffffff1673ffffffffffffffffffffffffffffffffffffffff166108fc349081150290604051600060405180830381858888f193505050501580156107cf573d6000803e3d6000fd5b508373ffffffffffffffffffffffffffffffffffffffff166323b872dd3033846040518463ffffffff1660e01b815260040161080d93929190610f88565b600060405180830381600087803b15801561082757600080fd5b505af115801561083b573d6000803e3d6000fd5b50505050336005600085815260200190815260200160002060040160006101000a81548173ffffffffffffffffffffffffffffffffffffffff021916908373ffffffffffffffffffffffffffffffffffffffff16021790555061089e6002610925565b600360009054906101000a900473ffffffffffffffffffffffffffffffffffffffff1673ffffffffffffffffffffffffffffffffffffffff166108fc6004549081150290604051600060405180830381858888f19350505050158015610908573d6000803e3d6000fd5b50505060016000819055505050565b600081600001549050919050565b6001816000016000828254019250508190555050565b6040518060c0016040528060008152602001600073ffffffffffffffffffffffffffffffffffffffff16815260200160008152602001600073ffffffffffffffffffffffffffffffffffffffff168152602001600073ffffffffffffffffffffffffffffffffffffffff168152602001600081525090565b600081519050919050565b600082825260208201905092915050565b6000819050602082019050919050565b6000819050919050565b6109f2816109df565b82525050565b600073ffffffffffffffffffffffffffffffffffffffff82169050919050565b6000610a23826109f8565b9050919050565b610a3381610a18565b82525050565b6000610a44826109f8565b9050919050565b610a5481610a39565b82525050565b60c082016000820151610a7060008501826109e9565b506020820151610a836020850182610a2a565b506040820151610a9660408501826109e9565b506060820151610aa96060850182610a4b565b506080820151610abc6080850182610a4b565b5060a0820151610acf60a08501826109e9565b50505050565b6000610ae18383610a5a565b60c08301905092915050565b6000602082019050919050565b6000610b05826109b3565b610b0f81856109be565b9350610b1a836109cf565b8060005b83811015610b4b578151610b328882610ad5565b9750610b3d83610aed565b925050600181019050610b1e565b5085935050505092915050565b60006020820190508181036000830152610b728184610afa565b905092915050565b600080fd5b610b8881610a18565b8114610b9357600080fd5b50565b600081359050610ba581610b7f565b92915050565b610bb4816109df565b8114610bbf57600080fd5b50565b600081359050610bd181610bab565b92915050565b600080600060608486031215610bf057610bef610b7a565b5b6000610bfe86828701610b96565b9350506020610c0f86828701610bc2565b9250506040610c2086828701610bc2565b9150509250925092565b60008060408385031215610c4157610c40610b7a565b5b6000610c4f85828601610b96565b9250506020610c6085828601610bc2565b9150509250929050565b7f4e487b7100000000000000000000000000000000000000000000000000000000600052601160045260246000fd5b6000610ca4826109df565b9150610caf836109df565b925082821015610cc257610cc1610c6a565b5b828203905092915050565b7f4e487b7100000000000000000000000000000000000000000000000000000000600052604160045260246000fd5b6000610d07826109df565b9150610d12836109df565b9250827fffffffffffffffffffffffffffffffffffffffffffffffffffffffffffffffff03821115610d4757610d46610c6a565b5b828201905092915050565b7f4e487b7100000000000000000000000000000000000000000000000000000000600052603260045260246000fd5b6000610d8c826109df565b91507fffffffffffffffffffffffffffffffffffffffffffffffffffffffffffffffff8203610dbe57610dbd610c6a565b5b600182019050919050565b600082825260208201905092915050565b7f5265656e7472616e637947756172643a207265656e7472616e742063616c6c00600082015250565b6000610e10601f83610dc9565b9150610e1b82610dda565b602082019050919050565b60006020820190508181036000830152610e3f81610e03565b9050919050565b7f5072696365206d757374206265206174206c6561737420312077656900000000600082015250565b6000610e7c601c83610dc9565b9150610e8782610e46565b602082019050919050565b60006020820190508181036000830152610eab81610e6f565b9050919050565b7f596f75206d7573742073656e6420746865206c697374696e672070726963652060008201527f616d6f756e7420696e206f7264657220746f2063726561746520612073616c6560208201527f2e00000000000000000000000000000000000000000000000000000000000000604082015250565b6000610f34604183610dc9565b9150610f3f82610eb2565b606082019050919050565b60006020820190508181036000830152610f6381610f27565b9050919050565b610f7381610a18565b82525050565b610f82816109df565b82525050565b6000606082019050610f9d6000830186610f6a565b610faa6020830185610f6a565b610fb76040830184610f79565b949350505050565b7f506c65617365207375626d6974207468652061736b696e67207072696365206960008201527f6e206f7264657220746f20636f6d706c65746520746865207075726368617365602082015250565b600061101b604083610dc9565b915061102682610fbf565b604082019050919050565b6000602082019050818103600083015261104a8161100e565b905091905056fea264697066735822122020aa69237ccb98a16963d19090ac516bc16eb9e0f99121229f09c5a35c0272e964736f6c634300080d0033",
  "immutableReferences": {},
  "source": "// SPDX-License-Identifier: MIT\r\npragma solidity ^0.8.9;\r\n\r\nimport '@openzeppelin/contracts/utils/Counters.sol';\r\nimport '@openzeppelin/contracts/token/ERC721/extensions/ERC721URIStorage.sol';\r\nimport '@openzeppelin/contracts/token/ERC721/ERC721.sol'; \r\nimport '@openzeppelin/contracts/security/ReentrancyGuard.sol';\r\n\r\ncontract Marketplace is ReentrancyGuard{\r\n    using Counters for Counters.Counter;\r\n    Counters.Counter private _itemIds;\r\n    Counters.Counter private _itemsSold;\r\n\r\n    address payable owner;\r\n    uint256 listingPrice = 1 ether;\r\n\r\n    constructor(){\r\n        owner = payable(msg.sender);\r\n    }\r\n\r\n    struct MarketItem {\r\n        uint itemId;\r\n        address nftContract;\r\n        uint256 tokenId;\r\n        address payable seller;\r\n        address payable owner;\r\n        uint256 price;\r\n    }\r\n\r\n    mapping(uint256 => MarketItem) private idToMarketItem;\r\n\r\n    event MarketItemCreated (\r\n        uint indexed itemId,\r\n        address indexed NftContract,\r\n        uint256 indexed tokenId,\r\n        address seller,\r\n        address owner,\r\n        uint256 price\r\n    );\r\n\r\n    function createMarketItem(\r\n        address nftContract,\r\n        uint256 tokenId,\r\n        uint256 price\r\n    ) public payable nonReentrant {\r\n        require(price > 0, \"Price must be at least 1 wei\");\r\n        require(msg.value == listingPrice,\"You must send the listing price amount in order to create a sale.\");\r\n\r\n        _itemIds.increment();\r\n        uint256 itemId = _itemIds.current();\r\n\r\n        idToMarketItem[itemId] = MarketItem(\r\n            itemId,\r\n            nftContract,\r\n            tokenId,\r\n            payable(msg.sender),\r\n            payable(address(0)),\r\n            price\r\n        );\r\n\r\n        IERC721(nftContract).transferFrom(msg.sender, address(this), tokenId);\r\n\r\n        emit MarketItemCreated(itemId, nftContract, tokenId, msg.sender, address(0), price);\r\n    }\r\n\r\n    function sellMarketItem(\r\n        address nftContract,\r\n        uint256 itemId\r\n    ) public payable nonReentrant {\r\n        uint price = idToMarketItem[itemId].price;\r\n        uint tokenId = idToMarketItem[itemId].tokenId;\r\n\r\n        require(msg.value == price, \"Please submit the asking price in order to complete the purchase\");\r\n\r\n        idToMarketItem[itemId].seller.transfer(msg.value);\r\n        IERC721(nftContract).transferFrom(address(this),msg.sender,tokenId);\r\n        idToMarketItem[itemId].owner = payable(msg.sender);\r\n        _itemsSold.increment();\r\n        payable(owner).transfer(listingPrice);\r\n    }\r\n\r\n    function fetchMarketItems() public view returns (MarketItem[] memory) {\r\n        uint itemCount = _itemIds.current();\r\n        uint unsoldItemCount = itemCount - _itemsSold.current();\r\n        uint currIndex = 0;\r\n\r\n        MarketItem[] memory items = new MarketItem[](unsoldItemCount);\r\n\r\n        for(uint i = 0; i < itemCount; i++){\r\n            if(idToMarketItem[i+1].owner == address(0)){\r\n                uint currentId = idToMarketItem[i+1].itemId;\r\n                MarketItem memory currentItem = idToMarketItem[currentId];\r\n                items[currIndex] = currentItem;\r\n                currIndex += 1;\r\n            }\r\n        }\r\n        return items;\r\n    }\r\n}",
  "sourcePath": "C:\\Users\\Acer\\OneDrive\\Ambiente de Trabalho\\NftCreator\\contracts\\Marketplace.sol",
  "compiler": {
    "name": "solc",
    "version": "0.8.13+commit.abaa5c0e.Emscripten.clang"
  },
  "schemaVersion": "3.4.4",
  "updatedAt": "2022-05-14T18:01:29.020Z",
  "devdoc": {
    "kind": "dev",
    "methods": {},
    "version": 1
  },
  "userdoc": {
    "kind": "user",
    "methods": {},
    "version": 1
  }
}