{
  "contractName": "MyToken",
  "abi": [
    {
      "inputs": [],
      "stateMutability": "nonpayable",
      "type": "constructor"
    },
    {
      "anonymous": false,
      "inputs": [
        {
          "indexed": true,
          "internalType": "address",
          "name": "owner",
          "type": "address"
        },
        {
          "indexed": true,
          "internalType": "address",
          "name": "approved",
          "type": "address"
        },
        {
          "indexed": true,
          "internalType": "uint256",
          "name": "tokenId",
          "type": "uint256"
        }
      ],
      "name": "Approval",
      "type": "event"
    },
    {
      "anonymous": false,
      "inputs": [
        {
          "indexed": true,
          "internalType": "address",
          "name": "owner",
          "type": "address"
        },
        {
          "indexed": true,
          "internalType": "address",
          "name": "operator",
          "type": "address"
        },
        {
          "indexed": false,
          "internalType": "bool",
          "name": "approved",
          "type": "bool"
        }
      ],
      "name": "ApprovalForAll",
      "type": "event"
    },
    {
      "anonymous": false,
      "inputs": [
        {
          "indexed": true,
          "internalType": "address",
          "name": "previousOwner",
          "type": "address"
        },
        {
          "indexed": true,
          "internalType": "address",
          "name": "newOwner",
          "type": "address"
        }
      ],
      "name": "OwnershipTransferred",
      "type": "event"
    },
    {
      "anonymous": false,
      "inputs": [
        {
          "indexed": false,
          "internalType": "uint256",
          "name": "tokenId",
          "type": "uint256"
        },
        {
          "indexed": false,
          "internalType": "address",
          "name": "sentFrom",
          "type": "address"
        },
        {
          "indexed": false,
          "internalType": "address",
          "name": "sentTo",
          "type": "address"
        }
      ],
      "name": "TokenSent",
      "type": "event"
    },
    {
      "anonymous": false,
      "inputs": [
        {
          "indexed": true,
          "internalType": "address",
          "name": "from",
          "type": "address"
        },
        {
          "indexed": true,
          "internalType": "address",
          "name": "to",
          "type": "address"
        },
        {
          "indexed": true,
          "internalType": "uint256",
          "name": "tokenId",
          "type": "uint256"
        }
      ],
      "name": "Transfer",
      "type": "event"
    },
    {
      "anonymous": false,
      "inputs": [
        {
          "indexed": false,
          "internalType": "uint256",
          "name": "tokenId",
          "type": "uint256"
        }
      ],
      "name": "tokenMint",
      "type": "event"
    },
    {
      "inputs": [
        {
          "internalType": "address",
          "name": "to",
          "type": "address"
        },
        {
          "internalType": "uint256",
          "name": "tokenId",
          "type": "uint256"
        }
      ],
      "name": "approve",
      "outputs": [],
      "stateMutability": "nonpayable",
      "type": "function"
    },
    {
      "inputs": [
        {
          "internalType": "address",
          "name": "owner",
          "type": "address"
        }
      ],
      "name": "balanceOf",
      "outputs": [
        {
          "internalType": "uint256",
          "name": "",
          "type": "uint256"
        }
      ],
      "stateMutability": "view",
      "type": "function",
      "constant": true
    },
    {
      "inputs": [
        {
          "internalType": "uint256",
          "name": "tokenId",
          "type": "uint256"
        }
      ],
      "name": "getApproved",
      "outputs": [
        {
          "internalType": "address",
          "name": "",
          "type": "address"
        }
      ],
      "stateMutability": "view",
      "type": "function",
      "constant": true
    },
    {
      "inputs": [
        {
          "internalType": "address",
          "name": "owner",
          "type": "address"
        },
        {
          "internalType": "address",
          "name": "operator",
          "type": "address"
        }
      ],
      "name": "isApprovedForAll",
      "outputs": [
        {
          "internalType": "bool",
          "name": "",
          "type": "bool"
        }
      ],
      "stateMutability": "view",
      "type": "function",
      "constant": true
    },
    {
      "inputs": [],
      "name": "name",
      "outputs": [
        {
          "internalType": "string",
          "name": "",
          "type": "string"
        }
      ],
      "stateMutability": "view",
      "type": "function",
      "constant": true
    },
    {
      "inputs": [
        {
          "internalType": "address",
          "name": "",
          "type": "address"
        },
        {
          "internalType": "address",
          "name": "",
          "type": "address"
        },
        {
          "internalType": "uint256",
          "name": "",
          "type": "uint256"
        },
        {
          "internalType": "bytes",
          "name": "",
          "type": "bytes"
        }
      ],
      "name": "onERC721Received",
      "outputs": [
        {
          "internalType": "bytes4",
          "name": "",
          "type": "bytes4"
        }
      ],
      "stateMutability": "nonpayable",
      "type": "function"
    },
    {
      "inputs": [],
      "name": "owner",
      "outputs": [
        {
          "internalType": "address",
          "name": "",
          "type": "address"
        }
      ],
      "stateMutability": "view",
      "type": "function",
      "constant": true
    },
    {
      "inputs": [
        {
          "internalType": "uint256",
          "name": "tokenId",
          "type": "uint256"
        }
      ],
      "name": "ownerOf",
      "outputs": [
        {
          "internalType": "address",
          "name": "",
          "type": "address"
        }
      ],
      "stateMutability": "view",
      "type": "function",
      "constant": true
    },
    {
      "inputs": [],
      "name": "renounceOwnership",
      "outputs": [],
      "stateMutability": "nonpayable",
      "type": "function"
    },
    {
      "inputs": [
        {
          "internalType": "address",
          "name": "from",
          "type": "address"
        },
        {
          "internalType": "address",
          "name": "to",
          "type": "address"
        },
        {
          "internalType": "uint256",
          "name": "tokenId",
          "type": "uint256"
        }
      ],
      "name": "safeTransferFrom",
      "outputs": [],
      "stateMutability": "nonpayable",
      "type": "function"
    },
    {
      "inputs": [
        {
          "internalType": "address",
          "name": "from",
          "type": "address"
        },
        {
          "internalType": "address",
          "name": "to",
          "type": "address"
        },
        {
          "internalType": "uint256",
          "name": "tokenId",
          "type": "uint256"
        },
        {
          "internalType": "bytes",
          "name": "_data",
          "type": "bytes"
        }
      ],
      "name": "safeTransferFrom",
      "outputs": [],
      "stateMutability": "nonpayable",
      "type": "function"
    },
    {
      "inputs": [
        {
          "internalType": "address",
          "name": "operator",
          "type": "address"
        },
        {
          "internalType": "bool",
          "name": "approved",
          "type": "bool"
        }
      ],
      "name": "setApprovalForAll",
      "outputs": [],
      "stateMutability": "nonpayable",
      "type": "function"
    },
    {
      "inputs": [],
      "name": "symbol",
      "outputs": [
        {
          "internalType": "string",
          "name": "",
          "type": "string"
        }
      ],
      "stateMutability": "view",
      "type": "function",
      "constant": true
    },
    {
      "inputs": [
        {
          "internalType": "uint256",
          "name": "index",
          "type": "uint256"
        }
      ],
      "name": "tokenByIndex",
      "outputs": [
        {
          "internalType": "uint256",
          "name": "",
          "type": "uint256"
        }
      ],
      "stateMutability": "view",
      "type": "function",
      "constant": true
    },
    {
      "inputs": [
        {
          "internalType": "address",
          "name": "owner",
          "type": "address"
        },
        {
          "internalType": "uint256",
          "name": "index",
          "type": "uint256"
        }
      ],
      "name": "tokenOfOwnerByIndex",
      "outputs": [
        {
          "internalType": "uint256",
          "name": "",
          "type": "uint256"
        }
      ],
      "stateMutability": "view",
      "type": "function",
      "constant": true
    },
    {
      "inputs": [],
      "name": "totalSupply",
      "outputs": [
        {
          "internalType": "uint256",
          "name": "",
          "type": "uint256"
        }
      ],
      "stateMutability": "view",
      "type": "function",
      "constant": true
    },
    {
      "inputs": [
        {
          "internalType": "address",
          "name": "from",
          "type": "address"
        },
        {
          "internalType": "address",
          "name": "to",
          "type": "address"
        },
        {
          "internalType": "uint256",
          "name": "tokenId",
          "type": "uint256"
        }
      ],
      "name": "transferFrom",
      "outputs": [],
      "stateMutability": "nonpayable",
      "type": "function"
    },
    {
      "inputs": [
        {
          "internalType": "address",
          "name": "newOwner",
          "type": "address"
        }
      ],
      "name": "transferOwnership",
      "outputs": [],
      "stateMutability": "nonpayable",
      "type": "function"
    },
    {
      "inputs": [
        {
          "internalType": "string",
          "name": "hash",
          "type": "string"
        },
        {
          "internalType": "string",
          "name": "metadata",
          "type": "string"
        }
      ],
      "name": "mint",
      "outputs": [
        {
          "internalType": "uint256",
          "name": "tokenId",
          "type": "uint256"
        }
      ],
      "stateMutability": "nonpayable",
      "type": "function"
    },
    {
      "inputs": [],
      "name": "getOwnedNfts",
      "outputs": [
        {
          "internalType": "uint256[]",
          "name": "",
          "type": "uint256[]"
        }
      ],
      "stateMutability": "view",
      "type": "function",
      "constant": true
    },
    {
      "inputs": [],
      "name": "getLastTokenId",
      "outputs": [
        {
          "internalType": "uint256",
          "name": "",
          "type": "uint256"
        }
      ],
      "stateMutability": "view",
      "type": "function",
      "constant": true
    },
    {
      "inputs": [
        {
          "internalType": "address",
          "name": "to",
          "type": "address"
        },
        {
          "internalType": "uint256",
          "name": "tokenId",
          "type": "uint256"
        }
      ],
      "name": "sendNft",
      "outputs": [],
      "stateMutability": "nonpayable",
      "type": "function"
    },
    {
      "inputs": [
        {
          "internalType": "bytes4",
          "name": "interfaceId",
          "type": "bytes4"
        }
      ],
      "name": "supportsInterface",
      "outputs": [
        {
          "internalType": "bool",
          "name": "",
          "type": "bool"
        }
      ],
      "stateMutability": "view",
      "type": "function",
      "constant": true
    },
    {
      "inputs": [
        {
          "internalType": "uint256",
          "name": "tokenId",
          "type": "uint256"
        }
      ],
      "name": "tokenURI",
      "outputs": [
        {
          "internalType": "string",
          "name": "",
          "type": "string"
        }
      ],
      "stateMutability": "view",
      "type": "function",
      "constant": true
    }
  ],
  "bytecode": "0x60806040523480156200001157600080fd5b506040518060400160405280601581526020017f5075746f4d61726b6574506c61636520546f6b656e00000000000000000000008152506040518060400160405280600381526020017f50545400000000000000000000000000000000000000000000000000000000008152506200009e62000092620000ca60201b60201c565b620000d260201b60201c565b8160019081620000af919062000410565b508060029081620000c1919062000410565b505050620004f7565b600033905090565b60008060009054906101000a900473ffffffffffffffffffffffffffffffffffffffff169050816000806101000a81548173ffffffffffffffffffffffffffffffffffffffff021916908373ffffffffffffffffffffffffffffffffffffffff1602179055508173ffffffffffffffffffffffffffffffffffffffff168173ffffffffffffffffffffffffffffffffffffffff167f8be0079c531659141344cd1fd0a4f28419497f9722a3daafe3b4186f6b6457e060405160405180910390a35050565b600081519050919050565b7f4e487b7100000000000000000000000000000000000000000000000000000000600052604160045260246000fd5b7f4e487b7100000000000000000000000000000000000000000000000000000000600052602260045260246000fd5b600060028204905060018216806200021857607f821691505b6020821081036200022e576200022d620001d0565b5b50919050565b60008190508160005260206000209050919050565b60006020601f8301049050919050565b600082821b905092915050565b600060088302620002987fffffffffffffffffffffffffffffffffffffffffffffffffffffffffffffffff8262000259565b620002a4868362000259565b95508019841693508086168417925050509392505050565b6000819050919050565b6000819050919050565b6000620002f1620002eb620002e584620002bc565b620002c6565b620002bc565b9050919050565b6000819050919050565b6200030d83620002d0565b620003256200031c82620002f8565b84845462000266565b825550505050565b600090565b6200033c6200032d565b6200034981848462000302565b505050565b5b8181101562000371576200036560008262000332565b6001810190506200034f565b5050565b601f821115620003c0576200038a8162000234565b620003958462000249565b81016020851015620003a5578190505b620003bd620003b48562000249565b8301826200034e565b50505b505050565b600082821c905092915050565b6000620003e560001984600802620003c5565b1980831691505092915050565b6000620004008383620003d2565b9150826002028217905092915050565b6200041b8262000196565b67ffffffffffffffff811115620004375762000436620001a1565b5b620004438254620001ff565b6200045082828562000375565b600060209050601f83116001811462000488576000841562000473578287015190505b6200047f8582620003f2565b865550620004ef565b601f198416620004988662000234565b60005b82811015620004c2578489015182556001820191506020850194506020810190506200049b565b86831015620004e25784890151620004de601f891682620003d2565b8355505b6001600288020188555050505b505050505050565b613db380620005076000396000f3fe608060405234801561001057600080fd5b50600436106101585760003560e01c806370a08231116100c357806395d89b411161007c57806395d89b41146103ed578063a22cb4651461040b578063b88d4fde14610427578063c87b56dd14610443578063e985e9c514610473578063f2fde38b146104a357610158565b806370a082311461032957806370cbcb4314610359578063715018a61461037757806383c4c00d146103815780638aa0fdad1461039f5780638da5cb5b146103cf57610158565b806318160ddd1161011557806318160ddd1461024357806323b872dd146102615780632f745c591461027d57806342842e0e146102ad5780634f6ccce7146102c95780636352211e146102f957610158565b806301ffc9a71461015d57806306fdde031461018d578063081812fc146101ab578063095ea7b3146101db5780630f156837146101f7578063150b7a0214610213575b600080fd5b610177600480360381019061017291906124d4565b6104bf565b604051610184919061251c565b60405180910390f35b6101956104d1565b6040516101a291906125d0565b60405180910390f35b6101c560048036038101906101c09190612628565b610563565b6040516101d29190612696565b60405180910390f35b6101f560048036038101906101f091906126dd565b6105e8565b005b610211600480360381019061020c91906126dd565b6106ff565b005b61022d60048036038101906102289190612852565b610789565b60405161023a91906128e4565b60405180910390f35b61024b61079d565b604051610258919061290e565b60405180910390f35b61027b60048036038101906102769190612929565b6107aa565b005b610297600480360381019061029291906126dd565b61080a565b6040516102a4919061290e565b60405180910390f35b6102c760048036038101906102c29190612929565b6108af565b005b6102e360048036038101906102de9190612628565b6108cf565b6040516102f0919061290e565b60405180910390f35b610313600480360381019061030e9190612628565b610940565b6040516103209190612696565b60405180910390f35b610343600480360381019061033e919061297c565b6109f1565b604051610350919061290e565b60405180910390f35b610361610aa8565b60405161036e9190612a67565b60405180910390f35b61037f610b5a565b005b610389610be2565b604051610396919061290e565b60405180910390f35b6103b960048036038101906103b49190612b2a565b610bf3565b6040516103c6919061290e565b60405180910390f35b6103d7610cd5565b6040516103e49190612696565b60405180910390f35b6103f5610cfe565b60405161040291906125d0565b60405180910390f35b61042560048036038101906104209190612bce565b610d90565b005b610441600480360381019061043c9190612852565b610f10565b005b61045d60048036038101906104589190612628565b610f72565b60405161046a91906125d0565b60405180910390f35b61048d60048036038101906104889190612c0e565b610f84565b60405161049a919061251c565b60405180910390f35b6104bd60048036038101906104b8919061297c565b611018565b005b60006104ca8261110f565b9050919050565b6060600180546104e090612c7d565b80601f016020809104026020016040519081016040528092919081815260200182805461050c90612c7d565b80156105595780601f1061052e57610100808354040283529160200191610559565b820191906000526020600020905b81548152906001019060200180831161053c57829003601f168201915b5050505050905090565b600061056e82611189565b6105ad576040517f08c379a00000000000000000000000000000000000000000000000000000000081526004016105a490612d20565b60405180910390fd5b6005600083815260200190815260200160002060009054906101000a900473ffffffffffffffffffffffffffffffffffffffff169050919050565b60006105f382610940565b90508073ffffffffffffffffffffffffffffffffffffffff168373ffffffffffffffffffffffffffffffffffffffff1603610663576040517f08c379a000000000000000000000000000000000000000000000000000000000815260040161065a90612db2565b60405180910390fd5b8073ffffffffffffffffffffffffffffffffffffffff166106826111f5565b73ffffffffffffffffffffffffffffffffffffffff1614806106b157506106b0816106ab6111f5565b610f84565b5b6106f0576040517f08c379a00000000000000000000000000000000000000000000000000000000081526004016106e790612e44565b60405180910390fd5b6106fa83836111fd565b505050565b3373ffffffffffffffffffffffffffffffffffffffff1661071f82610940565b73ffffffffffffffffffffffffffffffffffffffff161461073f57600080fd5b61074a3383836107aa565b7f4db0994588c68283a759ea953a409e13fb33bcbab1b71378d6b45e631f0a088881338460405161077d93929190612e64565b60405180910390a15050565b600063150b7a0260e01b9050949350505050565b6000600980549050905090565b6107bb6107b56111f5565b826112b6565b6107fa576040517f08c379a00000000000000000000000000000000000000000000000000000000081526004016107f190612f0d565b60405180910390fd5b610805838383611394565b505050565b6000610815836109f1565b8210610856576040517f08c379a000000000000000000000000000000000000000000000000000000000815260040161084d90612f9f565b60405180910390fd5b600760008473ffffffffffffffffffffffffffffffffffffffff1673ffffffffffffffffffffffffffffffffffffffff168152602001908152602001600020600083815260200190815260200160002054905092915050565b6108ca83838360405180602001604052806000815250610f10565b505050565b60006108d961079d565b821061091a576040517f08c379a000000000000000000000000000000000000000000000000000000000815260040161091190613031565b60405180910390fd5b6009828154811061092e5761092d613051565b5b90600052602060002001549050919050565b6000806003600084815260200190815260200160002060009054906101000a900473ffffffffffffffffffffffffffffffffffffffff169050600073ffffffffffffffffffffffffffffffffffffffff168173ffffffffffffffffffffffffffffffffffffffff16036109e8576040517f08c379a00000000000000000000000000000000000000000000000000000000081526004016109df906130f2565b60405180910390fd5b80915050919050565b60008073ffffffffffffffffffffffffffffffffffffffff168273ffffffffffffffffffffffffffffffffffffffff1603610a61576040517f08c379a0000000000000000000000000000000000000000000000000000000008152600401610a5890613184565b60405180910390fd5b600460008373ffffffffffffffffffffffffffffffffffffffff1673ffffffffffffffffffffffffffffffffffffffff168152602001908152602001600020549050919050565b60606000610ab5336109f1565b905060008167ffffffffffffffff811115610ad357610ad2612727565b5b604051908082528060200260200182016040528015610b015781602001602082028036833780820191505090505b50905060005b82811015610b51576000610b1b338361080a565b905080838381518110610b3157610b30613051565b5b602002602001018181525050508080610b49906131d3565b915050610b07565b50809250505090565b610b626111f5565b73ffffffffffffffffffffffffffffffffffffffff16610b80610cd5565b73ffffffffffffffffffffffffffffffffffffffff1614610bd6576040517f08c379a0000000000000000000000000000000000000000000000000000000008152600401610bcd90613267565b60405180910390fd5b610be060006115ef565b565b6000610bee600c6116b3565b905090565b60006001600d84604051610c0791906132c3565b908152602001604051809103902060009054906101000a900460ff1660ff1603610c3057600080fd5b610c3a600c6116c1565b6000610c46600c6116b3565b90506001600d85604051610c5a91906132c3565b908152602001604051809103902060006101000a81548160ff021916908360ff160217905550610c8a33826116d7565b610c9481846116f5565b7f306c9697ef0cafc80c79e10f0ddb896e2164892c09af84cf16eb61c0c28eb56d81604051610cc3919061290e565b60405180910390a18091505092915050565b60008060009054906101000a900473ffffffffffffffffffffffffffffffffffffffff16905090565b606060028054610d0d90612c7d565b80601f0160208091040260200160405190810160405280929190818152602001828054610d3990612c7d565b8015610d865780601f10610d5b57610100808354040283529160200191610d86565b820191906000526020600020905b815481529060010190602001808311610d6957829003601f168201915b5050505050905090565b610d986111f5565b73ffffffffffffffffffffffffffffffffffffffff168273ffffffffffffffffffffffffffffffffffffffff1603610e05576040517f08c379a0000000000000000000000000000000000000000000000000000000008152600401610dfc90613326565b60405180910390fd5b8060066000610e126111f5565b73ffffffffffffffffffffffffffffffffffffffff1673ffffffffffffffffffffffffffffffffffffffff16815260200190815260200160002060008473ffffffffffffffffffffffffffffffffffffffff1673ffffffffffffffffffffffffffffffffffffffff16815260200190815260200160002060006101000a81548160ff0219169083151502179055508173ffffffffffffffffffffffffffffffffffffffff16610ebf6111f5565b73ffffffffffffffffffffffffffffffffffffffff167f17307eab39ab6107e8899845ad3d59bd9653f200f220920489ca2b5937696c3183604051610f04919061251c565b60405180910390a35050565b610f21610f1b6111f5565b836112b6565b610f60576040517f08c379a0000000000000000000000000000000000000000000000000000000008152600401610f5790612f0d565b60405180910390fd5b610f6c84848484611762565b50505050565b6060610f7d826117be565b9050919050565b6000600660008473ffffffffffffffffffffffffffffffffffffffff1673ffffffffffffffffffffffffffffffffffffffff16815260200190815260200160002060008373ffffffffffffffffffffffffffffffffffffffff1673ffffffffffffffffffffffffffffffffffffffff16815260200190815260200160002060009054906101000a900460ff16905092915050565b6110206111f5565b73ffffffffffffffffffffffffffffffffffffffff1661103e610cd5565b73ffffffffffffffffffffffffffffffffffffffff1614611094576040517f08c379a000000000000000000000000000000000000000000000000000000000815260040161108b90613267565b60405180910390fd5b600073ffffffffffffffffffffffffffffffffffffffff168173ffffffffffffffffffffffffffffffffffffffff1603611103576040517f08c379a00000000000000000000000000000000000000000000000000000000081526004016110fa906133b8565b60405180910390fd5b61110c816115ef565b50565b60007f780e9d63000000000000000000000000000000000000000000000000000000007bffffffffffffffffffffffffffffffffffffffffffffffffffffffff1916827bffffffffffffffffffffffffffffffffffffffffffffffffffffffff1916148061118257506111818261190f565b5b9050919050565b60008073ffffffffffffffffffffffffffffffffffffffff166003600084815260200190815260200160002060009054906101000a900473ffffffffffffffffffffffffffffffffffffffff1673ffffffffffffffffffffffffffffffffffffffff1614159050919050565b600033905090565b816005600083815260200190815260200160002060006101000a81548173ffffffffffffffffffffffffffffffffffffffff021916908373ffffffffffffffffffffffffffffffffffffffff160217905550808273ffffffffffffffffffffffffffffffffffffffff1661127083610940565b73ffffffffffffffffffffffffffffffffffffffff167f8c5be1e5ebec7d5bd14f71427d1e84f3dd0314c0f7b2291e5b200ac8c7c3b92560405160405180910390a45050565b60006112c182611189565b611300576040517f08c379a00000000000000000000000000000000000000000000000000000000081526004016112f79061344a565b60405180910390fd5b600061130b83610940565b90508073ffffffffffffffffffffffffffffffffffffffff168473ffffffffffffffffffffffffffffffffffffffff16148061137a57508373ffffffffffffffffffffffffffffffffffffffff1661136284610563565b73ffffffffffffffffffffffffffffffffffffffff16145b8061138b575061138a8185610f84565b5b91505092915050565b8273ffffffffffffffffffffffffffffffffffffffff166113b482610940565b73ffffffffffffffffffffffffffffffffffffffff161461140a576040517f08c379a0000000000000000000000000000000000000000000000000000000008152600401611401906134dc565b60405180910390fd5b600073ffffffffffffffffffffffffffffffffffffffff168273ffffffffffffffffffffffffffffffffffffffff1603611479576040517f08c379a00000000000000000000000000000000000000000000000000000000081526004016114709061356e565b60405180910390fd5b6114848383836119f1565b61148f6000826111fd565b6001600460008573ffffffffffffffffffffffffffffffffffffffff1673ffffffffffffffffffffffffffffffffffffffff16815260200190815260200160002060008282546114df919061358e565b925050819055506001600460008473ffffffffffffffffffffffffffffffffffffffff1673ffffffffffffffffffffffffffffffffffffffff168152602001908152602001600020600082825461153691906135c2565b92505081905550816003600083815260200190815260200160002060006101000a81548173ffffffffffffffffffffffffffffffffffffffff021916908373ffffffffffffffffffffffffffffffffffffffff160217905550808273ffffffffffffffffffffffffffffffffffffffff168473ffffffffffffffffffffffffffffffffffffffff167fddf252ad1be2c89b69c2b068fc378daa952ba7f163c4a11628f55a4df523b3ef60405160405180910390a4505050565b60008060009054906101000a900473ffffffffffffffffffffffffffffffffffffffff169050816000806101000a81548173ffffffffffffffffffffffffffffffffffffffff021916908373ffffffffffffffffffffffffffffffffffffffff1602179055508173ffffffffffffffffffffffffffffffffffffffff168173ffffffffffffffffffffffffffffffffffffffff167f8be0079c531659141344cd1fd0a4f28419497f9722a3daafe3b4186f6b6457e060405160405180910390a35050565b600081600001549050919050565b6001816000016000828254019250508190555050565b6116f1828260405180602001604052806000815250611a01565b5050565b6116fe82611189565b61173d576040517f08c379a00000000000000000000000000000000000000000000000000000000081526004016117349061368a565b60405180910390fd5b80600b6000848152602001908152602001600020908161175d9190613856565b505050565b61176d848484611394565b61177984848484611a5c565b6117b8576040517f08c379a00000000000000000000000000000000000000000000000000000000081526004016117af9061399a565b60405180910390fd5b50505050565b60606117c982611189565b611808576040517f08c379a00000000000000000000000000000000000000000000000000000000081526004016117ff90613a2c565b60405180910390fd5b6000600b6000848152602001908152602001600020805461182890612c7d565b80601f016020809104026020016040519081016040528092919081815260200182805461185490612c7d565b80156118a15780601f10611876576101008083540402835291602001916118a1565b820191906000526020600020905b81548152906001019060200180831161188457829003601f168201915b5050505050905060006118b2611be3565b905060008151036118c757819250505061190a565b6000825111156118fc5780826040516020016118e4929190613a4c565b6040516020818303038152906040529250505061190a565b61190584611bfa565b925050505b919050565b60007f80ac58cd000000000000000000000000000000000000000000000000000000007bffffffffffffffffffffffffffffffffffffffffffffffffffffffff1916827bffffffffffffffffffffffffffffffffffffffffffffffffffffffff191614806119da57507f5b5e139f000000000000000000000000000000000000000000000000000000007bffffffffffffffffffffffffffffffffffffffffffffffffffffffff1916827bffffffffffffffffffffffffffffffffffffffffffffffffffffffff1916145b806119ea57506119e982611ca1565b5b9050919050565b6119fc838383611d0b565b505050565b611a0b8383611e1d565b611a186000848484611a5c565b611a57576040517f08c379a0000000000000000000000000000000000000000000000000000000008152600401611a4e9061399a565b60405180910390fd5b505050565b6000611a7d8473ffffffffffffffffffffffffffffffffffffffff16611fea565b15611bd6578373ffffffffffffffffffffffffffffffffffffffff1663150b7a02611aa66111f5565b8786866040518563ffffffff1660e01b8152600401611ac89493929190613ac5565b6020604051808303816000875af1925050508015611b0457506040513d601f19601f82011682018060405250810190611b019190613b26565b60015b611b86573d8060008114611b34576040519150601f19603f3d011682016040523d82523d6000602084013e611b39565b606091505b506000815103611b7e576040517f08c379a0000000000000000000000000000000000000000000000000000000008152600401611b759061399a565b60405180910390fd5b805181602001fd5b63150b7a0260e01b7bffffffffffffffffffffffffffffffffffffffffffffffffffffffff1916817bffffffffffffffffffffffffffffffffffffffffffffffffffffffff191614915050611bdb565b600190505b949350505050565b606060405180602001604052806000815250905090565b6060611c0582611189565b611c44576040517f08c379a0000000000000000000000000000000000000000000000000000000008152600401611c3b90613bc5565b60405180910390fd5b6000611c4e611be3565b90506000815111611c6e5760405180602001604052806000815250611c99565b80611c7884611ffd565b604051602001611c89929190613a4c565b6040516020818303038152906040525b915050919050565b60007f01ffc9a7000000000000000000000000000000000000000000000000000000007bffffffffffffffffffffffffffffffffffffffffffffffffffffffff1916827bffffffffffffffffffffffffffffffffffffffffffffffffffffffff1916149050919050565b611d1683838361215d565b600073ffffffffffffffffffffffffffffffffffffffff168373ffffffffffffffffffffffffffffffffffffffff1603611d5857611d5381612162565b611d97565b8173ffffffffffffffffffffffffffffffffffffffff168373ffffffffffffffffffffffffffffffffffffffff1614611d9657611d9583826121ab565b5b5b600073ffffffffffffffffffffffffffffffffffffffff168273ffffffffffffffffffffffffffffffffffffffff1603611dd957611dd481612318565b611e18565b8273ffffffffffffffffffffffffffffffffffffffff168273ffffffffffffffffffffffffffffffffffffffff1614611e1757611e1682826123e9565b5b5b505050565b600073ffffffffffffffffffffffffffffffffffffffff168273ffffffffffffffffffffffffffffffffffffffff1603611e8c576040517f08c379a0000000000000000000000000000000000000000000000000000000008152600401611e8390613c31565b60405180910390fd5b611e9581611189565b15611ed5576040517f08c379a0000000000000000000000000000000000000000000000000000000008152600401611ecc90613c9d565b60405180910390fd5b611ee1600083836119f1565b6001600460008473ffffffffffffffffffffffffffffffffffffffff1673ffffffffffffffffffffffffffffffffffffffff1681526020019081526020016000206000828254611f3191906135c2565b92505081905550816003600083815260200190815260200160002060006101000a81548173ffffffffffffffffffffffffffffffffffffffff021916908373ffffffffffffffffffffffffffffffffffffffff160217905550808273ffffffffffffffffffffffffffffffffffffffff16600073ffffffffffffffffffffffffffffffffffffffff167fddf252ad1be2c89b69c2b068fc378daa952ba7f163c4a11628f55a4df523b3ef60405160405180910390a45050565b600080823b905060008111915050919050565b606060008203612044576040518060400160405280600181526020017f30000000000000000000000000000000000000000000000000000000000000008152509050612158565b600082905060005b6000821461207657808061205f906131d3565b915050600a8261206f9190613cec565b915061204c565b60008167ffffffffffffffff81111561209257612091612727565b5b6040519080825280601f01601f1916602001820160405280156120c45781602001600182028036833780820191505090505b5090505b60008514612151576001826120dd919061358e565b9150600a856120ec9190613d1d565b60306120f891906135c2565b60f81b81838151811061210e5761210d613051565b5b60200101907effffffffffffffffffffffffffffffffffffffffffffffffffffffffffffff1916908160001a905350600a8561214a9190613cec565b94506120c8565b8093505050505b919050565b505050565b600980549050600a600083815260200190815260200160002081905550600981908060018154018082558091505060019003906000526020600020016000909190919091505550565b600060016121b8846109f1565b6121c2919061358e565b90506000600860008481526020019081526020016000205490508181146122a7576000600760008673ffffffffffffffffffffffffffffffffffffffff1673ffffffffffffffffffffffffffffffffffffffff168152602001908152602001600020600084815260200190815260200160002054905080600760008773ffffffffffffffffffffffffffffffffffffffff1673ffffffffffffffffffffffffffffffffffffffff168152602001908152602001600020600084815260200190815260200160002081905550816008600083815260200190815260200160002081905550505b6008600084815260200190815260200160002060009055600760008573ffffffffffffffffffffffffffffffffffffffff1673ffffffffffffffffffffffffffffffffffffffff16815260200190815260200160002060008381526020019081526020016000206000905550505050565b6000600160098054905061232c919061358e565b90506000600a600084815260200190815260200160002054905060006009838154811061235c5761235b613051565b5b90600052602060002001549050806009838154811061237e5761237d613051565b5b906000526020600020018190555081600a600083815260200190815260200160002081905550600a60008581526020019081526020016000206000905560098054806123cd576123cc613d4e565b5b6001900381819060005260206000200160009055905550505050565b60006123f4836109f1565b905081600760008573ffffffffffffffffffffffffffffffffffffffff1673ffffffffffffffffffffffffffffffffffffffff168152602001908152602001600020600083815260200190815260200160002081905550806008600084815260200190815260200160002081905550505050565b6000604051905090565b600080fd5b600080fd5b60007fffffffff0000000000000000000000000000000000000000000000000000000082169050919050565b6124b18161247c565b81146124bc57600080fd5b50565b6000813590506124ce816124a8565b92915050565b6000602082840312156124ea576124e9612472565b5b60006124f8848285016124bf565b91505092915050565b60008115159050919050565b61251681612501565b82525050565b6000602082019050612531600083018461250d565b92915050565b600081519050919050565b600082825260208201905092915050565b60005b83811015612571578082015181840152602081019050612556565b83811115612580576000848401525b50505050565b6000601f19601f8301169050919050565b60006125a282612537565b6125ac8185612542565b93506125bc818560208601612553565b6125c581612586565b840191505092915050565b600060208201905081810360008301526125ea8184612597565b905092915050565b6000819050919050565b612605816125f2565b811461261057600080fd5b50565b600081359050612622816125fc565b92915050565b60006020828403121561263e5761263d612472565b5b600061264c84828501612613565b91505092915050565b600073ffffffffffffffffffffffffffffffffffffffff82169050919050565b600061268082612655565b9050919050565b61269081612675565b82525050565b60006020820190506126ab6000830184612687565b92915050565b6126ba81612675565b81146126c557600080fd5b50565b6000813590506126d7816126b1565b92915050565b600080604083850312156126f4576126f3612472565b5b6000612702858286016126c8565b925050602061271385828601612613565b9150509250929050565b600080fd5b600080fd5b7f4e487b7100000000000000000000000000000000000000000000000000000000600052604160045260246000fd5b61275f82612586565b810181811067ffffffffffffffff8211171561277e5761277d612727565b5b80604052505050565b6000612791612468565b905061279d8282612756565b919050565b600067ffffffffffffffff8211156127bd576127bc612727565b5b6127c682612586565b9050602081019050919050565b82818337600083830152505050565b60006127f56127f0846127a2565b612787565b90508281526020810184848401111561281157612810612722565b5b61281c8482856127d3565b509392505050565b600082601f8301126128395761283861271d565b5b81356128498482602086016127e2565b91505092915050565b6000806000806080858703121561286c5761286b612472565b5b600061287a878288016126c8565b945050602061288b878288016126c8565b935050604061289c87828801612613565b925050606085013567ffffffffffffffff8111156128bd576128bc612477565b5b6128c987828801612824565b91505092959194509250565b6128de8161247c565b82525050565b60006020820190506128f960008301846128d5565b92915050565b612908816125f2565b82525050565b600060208201905061292360008301846128ff565b92915050565b60008060006060848603121561294257612941612472565b5b6000612950868287016126c8565b9350506020612961868287016126c8565b925050604061297286828701612613565b9150509250925092565b60006020828403121561299257612991612472565b5b60006129a0848285016126c8565b91505092915050565b600081519050919050565b600082825260208201905092915050565b6000819050602082019050919050565b6129de816125f2565b82525050565b60006129f083836129d5565b60208301905092915050565b6000602082019050919050565b6000612a14826129a9565b612a1e81856129b4565b9350612a29836129c5565b8060005b83811015612a5a578151612a4188826129e4565b9750612a4c836129fc565b925050600181019050612a2d565b5085935050505092915050565b60006020820190508181036000830152612a818184612a09565b905092915050565b600067ffffffffffffffff821115612aa457612aa3612727565b5b612aad82612586565b9050602081019050919050565b6000612acd612ac884612a89565b612787565b905082815260208101848484011115612ae957612ae8612722565b5b612af48482856127d3565b509392505050565b600082601f830112612b1157612b1061271d565b5b8135612b21848260208601612aba565b91505092915050565b60008060408385031215612b4157612b40612472565b5b600083013567ffffffffffffffff811115612b5f57612b5e612477565b5b612b6b85828601612afc565b925050602083013567ffffffffffffffff811115612b8c57612b8b612477565b5b612b9885828601612afc565b9150509250929050565b612bab81612501565b8114612bb657600080fd5b50565b600081359050612bc881612ba2565b92915050565b60008060408385031215612be557612be4612472565b5b6000612bf3858286016126c8565b9250506020612c0485828601612bb9565b9150509250929050565b60008060408385031215612c2557612c24612472565b5b6000612c33858286016126c8565b9250506020612c44858286016126c8565b9150509250929050565b7f4e487b7100000000000000000000000000000000000000000000000000000000600052602260045260246000fd5b60006002820490506001821680612c9557607f821691505b602082108103612ca857612ca7612c4e565b5b50919050565b7f4552433732313a20617070726f76656420717565727920666f72206e6f6e657860008201527f697374656e7420746f6b656e0000000000000000000000000000000000000000602082015250565b6000612d0a602c83612542565b9150612d1582612cae565b604082019050919050565b60006020820190508181036000830152612d3981612cfd565b9050919050565b7f4552433732313a20617070726f76616c20746f2063757272656e74206f776e6560008201527f7200000000000000000000000000000000000000000000000000000000000000602082015250565b6000612d9c602183612542565b9150612da782612d40565b604082019050919050565b60006020820190508181036000830152612dcb81612d8f565b9050919050565b7f4552433732313a20617070726f76652063616c6c6572206973206e6f74206f7760008201527f6e6572206e6f7220617070726f76656420666f7220616c6c0000000000000000602082015250565b6000612e2e603883612542565b9150612e3982612dd2565b604082019050919050565b60006020820190508181036000830152612e5d81612e21565b9050919050565b6000606082019050612e7960008301866128ff565b612e866020830185612687565b612e936040830184612687565b949350505050565b7f4552433732313a207472616e736665722063616c6c6572206973206e6f74206f60008201527f776e6572206e6f7220617070726f766564000000000000000000000000000000602082015250565b6000612ef7603183612542565b9150612f0282612e9b565b604082019050919050565b60006020820190508181036000830152612f2681612eea565b9050919050565b7f455243373231456e756d657261626c653a206f776e657220696e646578206f7560008201527f74206f6620626f756e6473000000000000000000000000000000000000000000602082015250565b6000612f89602b83612542565b9150612f9482612f2d565b604082019050919050565b60006020820190508181036000830152612fb881612f7c565b9050919050565b7f455243373231456e756d657261626c653a20676c6f62616c20696e646578206f60008201527f7574206f6620626f756e64730000000000000000000000000000000000000000602082015250565b600061301b602c83612542565b915061302682612fbf565b604082019050919050565b6000602082019050818103600083015261304a8161300e565b9050919050565b7f4e487b7100000000000000000000000000000000000000000000000000000000600052603260045260246000fd5b7f4552433732313a206f776e657220717565727920666f72206e6f6e657869737460008201527f656e7420746f6b656e0000000000000000000000000000000000000000000000602082015250565b60006130dc602983612542565b91506130e782613080565b604082019050919050565b6000602082019050818103600083015261310b816130cf565b9050919050565b7f4552433732313a2062616c616e636520717565727920666f7220746865207a6560008201527f726f206164647265737300000000000000000000000000000000000000000000602082015250565b600061316e602a83612542565b915061317982613112565b604082019050919050565b6000602082019050818103600083015261319d81613161565b9050919050565b7f4e487b7100000000000000000000000000000000000000000000000000000000600052601160045260246000fd5b60006131de826125f2565b91507fffffffffffffffffffffffffffffffffffffffffffffffffffffffffffffffff82036132105761320f6131a4565b5b600182019050919050565b7f4f776e61626c653a2063616c6c6572206973206e6f7420746865206f776e6572600082015250565b6000613251602083612542565b915061325c8261321b565b602082019050919050565b6000602082019050818103600083015261328081613244565b9050919050565b600081905092915050565b600061329d82612537565b6132a78185613287565b93506132b7818560208601612553565b80840191505092915050565b60006132cf8284613292565b915081905092915050565b7f4552433732313a20617070726f766520746f2063616c6c657200000000000000600082015250565b6000613310601983612542565b915061331b826132da565b602082019050919050565b6000602082019050818103600083015261333f81613303565b9050919050565b7f4f776e61626c653a206e6577206f776e657220697320746865207a65726f206160008201527f6464726573730000000000000000000000000000000000000000000000000000602082015250565b60006133a2602683612542565b91506133ad82613346565b604082019050919050565b600060208201905081810360008301526133d181613395565b9050919050565b7f4552433732313a206f70657261746f7220717565727920666f72206e6f6e657860008201527f697374656e7420746f6b656e0000000000000000000000000000000000000000602082015250565b6000613434602c83612542565b915061343f826133d8565b604082019050919050565b6000602082019050818103600083015261346381613427565b9050919050565b7f4552433732313a207472616e73666572206f6620746f6b656e2074686174206960008201527f73206e6f74206f776e0000000000000000000000000000000000000000000000602082015250565b60006134c6602983612542565b91506134d18261346a565b604082019050919050565b600060208201905081810360008301526134f5816134b9565b9050919050565b7f4552433732313a207472616e7366657220746f20746865207a65726f2061646460008201527f7265737300000000000000000000000000000000000000000000000000000000602082015250565b6000613558602483612542565b9150613563826134fc565b604082019050919050565b600060208201905081810360008301526135878161354b565b9050919050565b6000613599826125f2565b91506135a4836125f2565b9250828210156135b7576135b66131a4565b5b828203905092915050565b60006135cd826125f2565b91506135d8836125f2565b9250827fffffffffffffffffffffffffffffffffffffffffffffffffffffffffffffffff0382111561360d5761360c6131a4565b5b828201905092915050565b7f45524337323155524953746f726167653a2055524920736574206f66206e6f6e60008201527f6578697374656e7420746f6b656e000000000000000000000000000000000000602082015250565b6000613674602e83612542565b915061367f82613618565b604082019050919050565b600060208201905081810360008301526136a381613667565b9050919050565b60008190508160005260206000209050919050565b60006020601f8301049050919050565b600082821b905092915050565b60006008830261370c7fffffffffffffffffffffffffffffffffffffffffffffffffffffffffffffffff826136cf565b61371686836136cf565b95508019841693508086168417925050509392505050565b6000819050919050565b600061375361374e613749846125f2565b61372e565b6125f2565b9050919050565b6000819050919050565b61376d83613738565b6137816137798261375a565b8484546136dc565b825550505050565b600090565b613796613789565b6137a1818484613764565b505050565b5b818110156137c5576137ba60008261378e565b6001810190506137a7565b5050565b601f82111561380a576137db816136aa565b6137e4846136bf565b810160208510156137f3578190505b6138076137ff856136bf565b8301826137a6565b50505b505050565b600082821c905092915050565b600061382d6000198460080261380f565b1980831691505092915050565b6000613846838361381c565b9150826002028217905092915050565b61385f82612537565b67ffffffffffffffff81111561387857613877612727565b5b6138828254612c7d565b61388d8282856137c9565b600060209050601f8311600181146138c057600084156138ae578287015190505b6138b8858261383a565b865550613920565b601f1984166138ce866136aa565b60005b828110156138f6578489015182556001820191506020850194506020810190506138d1565b86831015613913578489015161390f601f89168261381c565b8355505b6001600288020188555050505b505050505050565b7f4552433732313a207472616e7366657220746f206e6f6e20455243373231526560008201527f63656976657220696d706c656d656e7465720000000000000000000000000000602082015250565b6000613984603283612542565b915061398f82613928565b604082019050919050565b600060208201905081810360008301526139b381613977565b9050919050565b7f45524337323155524953746f726167653a2055524920717565727920666f722060008201527f6e6f6e6578697374656e7420746f6b656e000000000000000000000000000000602082015250565b6000613a16603183612542565b9150613a21826139ba565b604082019050919050565b60006020820190508181036000830152613a4581613a09565b9050919050565b6000613a588285613292565b9150613a648284613292565b91508190509392505050565b600081519050919050565b600082825260208201905092915050565b6000613a9782613a70565b613aa18185613a7b565b9350613ab1818560208601612553565b613aba81612586565b840191505092915050565b6000608082019050613ada6000830187612687565b613ae76020830186612687565b613af460408301856128ff565b8181036060830152613b068184613a8c565b905095945050505050565b600081519050613b20816124a8565b92915050565b600060208284031215613b3c57613b3b612472565b5b6000613b4a84828501613b11565b91505092915050565b7f4552433732314d657461646174613a2055524920717565727920666f72206e6f60008201527f6e6578697374656e7420746f6b656e0000000000000000000000000000000000602082015250565b6000613baf602f83612542565b9150613bba82613b53565b604082019050919050565b60006020820190508181036000830152613bde81613ba2565b9050919050565b7f4552433732313a206d696e7420746f20746865207a65726f2061646472657373600082015250565b6000613c1b602083612542565b9150613c2682613be5565b602082019050919050565b60006020820190508181036000830152613c4a81613c0e565b9050919050565b7f4552433732313a20746f6b656e20616c7265616479206d696e74656400000000600082015250565b6000613c87601c83612542565b9150613c9282613c51565b602082019050919050565b60006020820190508181036000830152613cb681613c7a565b9050919050565b7f4e487b7100000000000000000000000000000000000000000000000000000000600052601260045260246000fd5b6000613cf7826125f2565b9150613d02836125f2565b925082613d1257613d11613cbd565b5b828204905092915050565b6000613d28826125f2565b9150613d33836125f2565b925082613d4357613d42613cbd565b5b828206905092915050565b7f4e487b7100000000000000000000000000000000000000000000000000000000600052603160045260246000fdfea2646970667358221220815911f6c32c3df8bb810b92653991501628a9a033a013c1e04a83c5d0f6b12264736f6c634300080f0033",
  "immutableReferences": {},
  "source": "// SPDX-License-Identifier: MIT\r\npragma solidity ^0.8.9;\r\n\r\nimport \"@openzeppelin/contracts/token/ERC721/ERC721.sol\";\r\nimport \"@openzeppelin/contracts/utils/Counters.sol\";\r\nimport \"@openzeppelin/contracts/access/Ownable.sol\";\r\nimport \"@openzeppelin/contracts/utils/math/SafeMath.sol\";\r\nimport \"@openzeppelin/contracts/token/ERC721/extensions/ERC721Enumerable.sol\";\r\nimport \"@openzeppelin/contracts/token/ERC721/extensions/ERC721URIStorage.sol\";\r\nimport \"@openzeppelin/contracts/token/ERC721/utils/ERC721Holder.sol\";\r\n\r\n/// @title MyToken\r\n/// @notice Simple ERC721 token implementation\r\n/// @dev Pedro Cabral\r\ncontract MyToken is\r\n    Ownable,\r\n    ERC721,\r\n    ERC721Enumerable,\r\n    ERC721URIStorage,\r\n    ERC721Holder\r\n{\r\n    using SafeMath for uint256;\r\n    using Counters for Counters.Counter;\r\n    Counters.Counter private _tokenIds;\r\n\r\n     /**\r\n      * @notice Struct that will hold the NFT metadata JSON text\r\n     */\r\n    constructor() ERC721(\"PutoMarketPlace Token\", \"PTT\") {}\r\n\r\n    /**\r\n      * @notice To keep track of the available NFT hashes. The hash represents the IPFS CID of the JSON metadata text.\r\n     */\r\n    mapping(string => uint8) hashes;\r\n\r\n     /**\r\n      * @notice To keep track of the available NFT hashes. The hash represents the IPFS CID of the JSON metadata text.\r\n      * @param tokenId The token id of the token that is being minted\r\n     */\r\n    event tokenMint (uint256 tokenId);\r\n\r\n     /**\r\n      * @notice Event that will be emitted everytime a token is sent to a different address\r\n      * @param tokenId The token id of the token that is being minted\r\n      * @param sentFrom The address that will send the token\r\n      * @param sentTo The address that will receive the token\r\n     */\r\n    event TokenSent (uint256 tokenId, address sentFrom, address sentTo);\r\n\r\n    /**\r\n      * @notice Method that will mint a token to the msg.sender address\r\n      * @param hash The IPFS CID of image used as NFT whis is not stored in the contract\r\n      * @param metadata The IPFS CID of the NFT metadata JSON text\r\n      * @return tokenId The Id of the minted token\r\n     */\r\n    function mint(string memory hash, string memory metadata)\r\n        external\r\n        returns (uint256 tokenId)\r\n    {\r\n        require(hashes[hash] != 1);\r\n\r\n        _tokenIds.increment();\r\n\r\n        uint256 newTokenId = _tokenIds.current();\r\n\r\n        hashes[hash] = 1;\r\n\r\n        _safeMint(msg.sender, newTokenId);\r\n\r\n        _setTokenURI(newTokenId, metadata);\r\n\r\n        emit tokenMint(newTokenId);\r\n\r\n        return newTokenId;\r\n    }\r\n\r\n    \r\n    /**\r\n      * @notice Method that will retrieve the id list of the tokens owned by the msg.sender\r\n      * @return tokenIds List of owned token ids\r\n     */\r\n    function getOwnedNfts() public view returns (uint256[] memory) {\r\n        uint256 userBalance = balanceOf(msg.sender);\r\n        uint256[] memory tokenIds = new uint256[](userBalance);\r\n        for (uint256 i = 0; i < userBalance; i++) {\r\n            uint256 currTokenId = tokenOfOwnerByIndex(msg.sender, i);\r\n            tokenIds[i] = currTokenId;\r\n        }\r\n\r\n        return tokenIds;\r\n    }\r\n\r\n    /**\r\n      * @notice Method that will retrieve last minted token Id\r\n      * @return tokenId TokenId\r\n     */\r\n    function getLastTokenId() public view returns (uint256) {\r\n        return _tokenIds.current();\r\n    }\r\n\r\n    /**\r\n      * @notice Method that will send a token from msg.sender to a specific address\r\n      * @param to Address that will receive the token\r\n      * @param tokenId Id of the token to be sent\r\n     */\r\n    function sendNft(address to, uint256 tokenId) public {\r\n        require(ownerOf(tokenId) == msg.sender);\r\n        transferFrom(msg.sender, to, tokenId);\r\n        emit TokenSent(tokenId, msg.sender, to);\r\n    }\r\n\r\n     /**\r\n      * @notice Overrided method\r\n      * @param interfaceId interface id\r\n     */\r\n    function supportsInterface(bytes4 interfaceId)\r\n        public\r\n        view\r\n        virtual\r\n        override(ERC721, ERC721Enumerable)\r\n        returns (bool)\r\n    {\r\n        return super.supportsInterface(interfaceId);\r\n    }\r\n\r\n     /**\r\n      * @notice Overrided method that runs before every token transfer\r\n      * @param from Address that will send the token\r\n      * @param to Address that will receive the token\r\n      * @param tokenId Id of the token to be sent\r\n     */\r\n    function _beforeTokenTransfer(\r\n        address from,\r\n        address to,\r\n        uint256 tokenId\r\n    ) internal virtual override(ERC721, ERC721Enumerable) {\r\n        super._beforeTokenTransfer(from, to, tokenId);\r\n    }\r\n\r\n     /**\r\n      * @notice Overrided method to fetch token URI\r\n      * @param tokenId Id of the token to fetch URI\r\n      * @return URI Token URI\r\n     */\r\n    function tokenURI(uint256 tokenId)\r\n        public\r\n        view\r\n        virtual\r\n        override(ERC721, ERC721URIStorage)\r\n        returns (string memory)\r\n    {\r\n        return super.tokenURI(tokenId);\r\n    }\r\n\r\n     /**\r\n      * @notice Overrided method to burn tokens\r\n      * @param tokenId Id of token to be burned\r\n     */\r\n    function _burn(uint256 tokenId)\r\n        internal\r\n        virtual\r\n        override(ERC721, ERC721URIStorage)\r\n    {\r\n        super._burn(tokenId);\r\n    }\r\n}\r\n",
  "sourcePath": "C:\\Users\\Acer\\OneDrive\\Ambiente de Trabalho\\NftCreator\\contracts\\MyToken.sol",
  "compiler": {
    "name": "solc",
    "version": "0.8.15+commit.e14f2714.Emscripten.clang"
  },
  "schemaVersion": "3.4.4",
  "updatedAt": "2022-06-27T16:54:17.522Z",
  "networkType": "ethereum",
  "devdoc": {
    "details": "Pedro Cabral",
    "events": {
      "TokenSent(uint256,address,address)": {
        "params": {
          "sentFrom": "The address that will send the token",
          "sentTo": "The address that will receive the token",
          "tokenId": "The token id of the token that is being minted"
        }
      },
      "tokenMint(uint256)": {
        "params": {
          "tokenId": "The token id of the token that is being minted"
        }
      }
    },
    "kind": "dev",
    "methods": {
      "approve(address,uint256)": {
        "details": "See {IERC721-approve}."
      },
      "balanceOf(address)": {
        "details": "See {IERC721-balanceOf}."
      },
      "getApproved(uint256)": {
        "details": "See {IERC721-getApproved}."
      },
      "getLastTokenId()": {
        "returns": {
          "_0": "tokenId TokenId"
        }
      },
      "getOwnedNfts()": {
        "returns": {
          "_0": "tokenIds List of owned token ids"
        }
      },
      "isApprovedForAll(address,address)": {
        "details": "See {IERC721-isApprovedForAll}."
      },
      "mint(string,string)": {
        "params": {
          "hash": "The IPFS CID of image used as NFT whis is not stored in the contract",
          "metadata": "The IPFS CID of the NFT metadata JSON text"
        },
        "returns": {
          "tokenId": "The Id of the minted token"
        }
      },
      "name()": {
        "details": "See {IERC721Metadata-name}."
      },
      "onERC721Received(address,address,uint256,bytes)": {
        "details": "See {IERC721Receiver-onERC721Received}. Always returns `IERC721Receiver.onERC721Received.selector`."
      },
      "owner()": {
        "details": "Returns the address of the current owner."
      },
      "ownerOf(uint256)": {
        "details": "See {IERC721-ownerOf}."
      },
      "renounceOwnership()": {
        "details": "Leaves the contract without owner. It will not be possible to call `onlyOwner` functions anymore. Can only be called by the current owner. NOTE: Renouncing ownership will leave the contract without an owner, thereby removing any functionality that is only available to the owner."
      },
      "safeTransferFrom(address,address,uint256)": {
        "details": "See {IERC721-safeTransferFrom}."
      },
      "safeTransferFrom(address,address,uint256,bytes)": {
        "details": "See {IERC721-safeTransferFrom}."
      },
      "sendNft(address,uint256)": {
        "params": {
          "to": "Address that will receive the token",
          "tokenId": "Id of the token to be sent"
        }
      },
      "setApprovalForAll(address,bool)": {
        "details": "See {IERC721-setApprovalForAll}."
      },
      "supportsInterface(bytes4)": {
        "params": {
          "interfaceId": "interface id"
        }
      },
      "symbol()": {
        "details": "See {IERC721Metadata-symbol}."
      },
      "tokenByIndex(uint256)": {
        "details": "See {IERC721Enumerable-tokenByIndex}."
      },
      "tokenOfOwnerByIndex(address,uint256)": {
        "details": "See {IERC721Enumerable-tokenOfOwnerByIndex}."
      },
      "tokenURI(uint256)": {
        "params": {
          "tokenId": "Id of the token to fetch URI"
        },
        "returns": {
          "_0": "URI Token URI"
        }
      },
      "totalSupply()": {
        "details": "See {IERC721Enumerable-totalSupply}."
      },
      "transferFrom(address,address,uint256)": {
        "details": "See {IERC721-transferFrom}."
      },
      "transferOwnership(address)": {
        "details": "Transfers ownership of the contract to a new account (`newOwner`). Can only be called by the current owner."
      }
    },
    "title": "MyToken",
    "version": 1
  },
  "userdoc": {
    "events": {
      "TokenSent(uint256,address,address)": {
        "notice": "Event that will be emitted everytime a token is sent to a different address"
      },
      "tokenMint(uint256)": {
        "notice": "To keep track of the available NFT hashes. The hash represents the IPFS CID of the JSON metadata text."
      }
    },
    "kind": "user",
    "methods": {
      "constructor": {
        "notice": "Struct that will hold the NFT metadata JSON text"
      },
      "getLastTokenId()": {
        "notice": "Method that will retrieve last minted token Id"
      },
      "getOwnedNfts()": {
        "notice": "Method that will retrieve the id list of the tokens owned by the msg.sender"
      },
      "mint(string,string)": {
        "notice": "Method that will mint a token to the msg.sender address"
      },
      "sendNft(address,uint256)": {
        "notice": "Method that will send a token from msg.sender to a specific address"
      },
      "supportsInterface(bytes4)": {
        "notice": "Overrided method"
      },
      "tokenURI(uint256)": {
        "notice": "Overrided method to fetch token URI"
      }
    },
    "notice": "Simple ERC721 token implementation",
    "version": 1
  }
}