{
  "contractName": "MyToken",
  "abi": [
    {
      "inputs": [],
      "stateMutability": "nonpayable",
      "type": "constructor"
    },
    {
      "anonymous": false,
      "inputs": [
        {
          "indexed": true,
          "internalType": "address",
          "name": "owner",
          "type": "address"
        },
        {
          "indexed": true,
          "internalType": "address",
          "name": "approved",
          "type": "address"
        },
        {
          "indexed": true,
          "internalType": "uint256",
          "name": "tokenId",
          "type": "uint256"
        }
      ],
      "name": "Approval",
      "type": "event"
    },
    {
      "anonymous": false,
      "inputs": [
        {
          "indexed": true,
          "internalType": "address",
          "name": "owner",
          "type": "address"
        },
        {
          "indexed": true,
          "internalType": "address",
          "name": "operator",
          "type": "address"
        },
        {
          "indexed": false,
          "internalType": "bool",
          "name": "approved",
          "type": "bool"
        }
      ],
      "name": "ApprovalForAll",
      "type": "event"
    },
    {
      "anonymous": false,
      "inputs": [
        {
          "indexed": true,
          "internalType": "address",
          "name": "previousOwner",
          "type": "address"
        },
        {
          "indexed": true,
          "internalType": "address",
          "name": "newOwner",
          "type": "address"
        }
      ],
      "name": "OwnershipTransferred",
      "type": "event"
    },
    {
      "anonymous": false,
      "inputs": [
        {
          "indexed": true,
          "internalType": "address",
          "name": "from",
          "type": "address"
        },
        {
          "indexed": true,
          "internalType": "address",
          "name": "to",
          "type": "address"
        },
        {
          "indexed": true,
          "internalType": "uint256",
          "name": "tokenId",
          "type": "uint256"
        }
      ],
      "name": "Transfer",
      "type": "event"
    },
    {
      "inputs": [
        {
          "internalType": "address",
          "name": "to",
          "type": "address"
        },
        {
          "internalType": "uint256",
          "name": "tokenId",
          "type": "uint256"
        }
      ],
      "name": "approve",
      "outputs": [],
      "stateMutability": "nonpayable",
      "type": "function"
    },
    {
      "inputs": [
        {
          "internalType": "address",
          "name": "owner",
          "type": "address"
        }
      ],
      "name": "balanceOf",
      "outputs": [
        {
          "internalType": "uint256",
          "name": "",
          "type": "uint256"
        }
      ],
      "stateMutability": "view",
      "type": "function",
      "constant": true
    },
    {
      "inputs": [
        {
          "internalType": "uint256",
          "name": "tokenId",
          "type": "uint256"
        }
      ],
      "name": "getApproved",
      "outputs": [
        {
          "internalType": "address",
          "name": "",
          "type": "address"
        }
      ],
      "stateMutability": "view",
      "type": "function",
      "constant": true
    },
    {
      "inputs": [
        {
          "internalType": "address",
          "name": "owner",
          "type": "address"
        },
        {
          "internalType": "address",
          "name": "operator",
          "type": "address"
        }
      ],
      "name": "isApprovedForAll",
      "outputs": [
        {
          "internalType": "bool",
          "name": "",
          "type": "bool"
        }
      ],
      "stateMutability": "view",
      "type": "function",
      "constant": true
    },
    {
      "inputs": [],
      "name": "name",
      "outputs": [
        {
          "internalType": "string",
          "name": "",
          "type": "string"
        }
      ],
      "stateMutability": "view",
      "type": "function",
      "constant": true
    },
    {
      "inputs": [],
      "name": "owner",
      "outputs": [
        {
          "internalType": "address",
          "name": "",
          "type": "address"
        }
      ],
      "stateMutability": "view",
      "type": "function",
      "constant": true
    },
    {
      "inputs": [
        {
          "internalType": "uint256",
          "name": "tokenId",
          "type": "uint256"
        }
      ],
      "name": "ownerOf",
      "outputs": [
        {
          "internalType": "address",
          "name": "",
          "type": "address"
        }
      ],
      "stateMutability": "view",
      "type": "function",
      "constant": true
    },
    {
      "inputs": [],
      "name": "renounceOwnership",
      "outputs": [],
      "stateMutability": "nonpayable",
      "type": "function"
    },
    {
      "inputs": [
        {
          "internalType": "address",
          "name": "from",
          "type": "address"
        },
        {
          "internalType": "address",
          "name": "to",
          "type": "address"
        },
        {
          "internalType": "uint256",
          "name": "tokenId",
          "type": "uint256"
        }
      ],
      "name": "safeTransferFrom",
      "outputs": [],
      "stateMutability": "nonpayable",
      "type": "function"
    },
    {
      "inputs": [
        {
          "internalType": "address",
          "name": "from",
          "type": "address"
        },
        {
          "internalType": "address",
          "name": "to",
          "type": "address"
        },
        {
          "internalType": "uint256",
          "name": "tokenId",
          "type": "uint256"
        },
        {
          "internalType": "bytes",
          "name": "_data",
          "type": "bytes"
        }
      ],
      "name": "safeTransferFrom",
      "outputs": [],
      "stateMutability": "nonpayable",
      "type": "function"
    },
    {
      "inputs": [
        {
          "internalType": "address",
          "name": "operator",
          "type": "address"
        },
        {
          "internalType": "bool",
          "name": "approved",
          "type": "bool"
        }
      ],
      "name": "setApprovalForAll",
      "outputs": [],
      "stateMutability": "nonpayable",
      "type": "function"
    },
    {
      "inputs": [],
      "name": "symbol",
      "outputs": [
        {
          "internalType": "string",
          "name": "",
          "type": "string"
        }
      ],
      "stateMutability": "view",
      "type": "function",
      "constant": true
    },
    {
      "inputs": [
        {
          "internalType": "uint256",
          "name": "index",
          "type": "uint256"
        }
      ],
      "name": "tokenByIndex",
      "outputs": [
        {
          "internalType": "uint256",
          "name": "",
          "type": "uint256"
        }
      ],
      "stateMutability": "view",
      "type": "function",
      "constant": true
    },
    {
      "inputs": [
        {
          "internalType": "address",
          "name": "owner",
          "type": "address"
        },
        {
          "internalType": "uint256",
          "name": "index",
          "type": "uint256"
        }
      ],
      "name": "tokenOfOwnerByIndex",
      "outputs": [
        {
          "internalType": "uint256",
          "name": "",
          "type": "uint256"
        }
      ],
      "stateMutability": "view",
      "type": "function",
      "constant": true
    },
    {
      "inputs": [],
      "name": "totalSupply",
      "outputs": [
        {
          "internalType": "uint256",
          "name": "",
          "type": "uint256"
        }
      ],
      "stateMutability": "view",
      "type": "function",
      "constant": true
    },
    {
      "inputs": [
        {
          "internalType": "address",
          "name": "from",
          "type": "address"
        },
        {
          "internalType": "address",
          "name": "to",
          "type": "address"
        },
        {
          "internalType": "uint256",
          "name": "tokenId",
          "type": "uint256"
        }
      ],
      "name": "transferFrom",
      "outputs": [],
      "stateMutability": "nonpayable",
      "type": "function"
    },
    {
      "inputs": [
        {
          "internalType": "address",
          "name": "newOwner",
          "type": "address"
        }
      ],
      "name": "transferOwnership",
      "outputs": [],
      "stateMutability": "nonpayable",
      "type": "function"
    },
    {
      "inputs": [
        {
          "internalType": "string",
          "name": "hash",
          "type": "string"
        },
        {
          "internalType": "string",
          "name": "metadata",
          "type": "string"
        }
      ],
      "name": "mint",
      "outputs": [
        {
          "internalType": "uint256",
          "name": "tokenId",
          "type": "uint256"
        }
      ],
      "stateMutability": "nonpayable",
      "type": "function"
    },
    {
      "inputs": [
        {
          "internalType": "uint256",
          "name": "_tokenId",
          "type": "uint256"
        }
      ],
      "name": "getNftText",
      "outputs": [
        {
          "internalType": "string",
          "name": "",
          "type": "string"
        }
      ],
      "stateMutability": "view",
      "type": "function",
      "constant": true
    },
    {
      "inputs": [],
      "name": "getOwnedNfts",
      "outputs": [
        {
          "internalType": "uint256[]",
          "name": "",
          "type": "uint256[]"
        }
      ],
      "stateMutability": "view",
      "type": "function",
      "constant": true
    },
    {
      "inputs": [],
      "name": "getLastTokenId",
      "outputs": [
        {
          "internalType": "uint256",
          "name": "",
          "type": "uint256"
        }
      ],
      "stateMutability": "view",
      "type": "function",
      "constant": true
    },
    {
      "inputs": [
        {
          "internalType": "address",
          "name": "to",
          "type": "address"
        },
        {
          "internalType": "uint256",
          "name": "tokenId",
          "type": "uint256"
        }
      ],
      "name": "sendNft",
      "outputs": [],
      "stateMutability": "nonpayable",
      "type": "function"
    },
    {
      "inputs": [
        {
          "internalType": "bytes4",
          "name": "interfaceId",
          "type": "bytes4"
        }
      ],
      "name": "supportsInterface",
      "outputs": [
        {
          "internalType": "bool",
          "name": "",
          "type": "bool"
        }
      ],
      "stateMutability": "view",
      "type": "function",
      "constant": true
    },
    {
      "inputs": [
        {
          "internalType": "uint256",
          "name": "tokenId",
          "type": "uint256"
        }
      ],
      "name": "tokenURI",
      "outputs": [
        {
          "internalType": "string",
          "name": "",
          "type": "string"
        }
      ],
      "stateMutability": "view",
      "type": "function",
      "constant": true
    }
  ],
  "bytecode": "0x60806040523480156200001157600080fd5b506040518060400160405280600681526020017f4d7946696c6500000000000000000000000000000000000000000000000000008152506040518060400160405280600381526020017f46494c00000000000000000000000000000000000000000000000000000000008152506200009e62000092620000d860201b60201c565b620000e060201b60201c565b8160019080519060200190620000b6929190620001a4565b508060029080519060200190620000cf929190620001a4565b505050620002b8565b600033905090565b60008060009054906101000a900473ffffffffffffffffffffffffffffffffffffffff169050816000806101000a81548173ffffffffffffffffffffffffffffffffffffffff021916908373ffffffffffffffffffffffffffffffffffffffff1602179055508173ffffffffffffffffffffffffffffffffffffffff168173ffffffffffffffffffffffffffffffffffffffff167f8be0079c531659141344cd1fd0a4f28419497f9722a3daafe3b4186f6b6457e060405160405180910390a35050565b828054620001b29062000283565b90600052602060002090601f016020900481019282620001d6576000855562000222565b82601f10620001f157805160ff191683800117855562000222565b8280016001018555821562000222579182015b828111156200022157825182559160200191906001019062000204565b5b50905062000231919062000235565b5090565b5b808211156200025057600081600090555060010162000236565b5090565b7f4e487b7100000000000000000000000000000000000000000000000000000000600052602260045260246000fd5b600060028204905060018216806200029c57607f821691505b602082108103620002b257620002b162000254565b5b50919050565b613ddb80620002c86000396000f3fe608060405234801561001057600080fd5b50600436106101585760003560e01c806370cbcb43116100c3578063a22cb4651161007c578063a22cb465146103db578063b88d4fde146103f7578063c87b56dd14610413578063e985e9c514610443578063f2fde38b14610473578063fcf368511461048f57610158565b806370cbcb4314610329578063715018a61461034757806383c4c00d146103515780638aa0fdad1461036f5780638da5cb5b1461039f57806395d89b41146103bd57610158565b806323b872dd1161011557806323b872dd146102315780632f745c591461024d57806342842e0e1461027d5780634f6ccce7146102995780636352211e146102c957806370a08231146102f957610158565b806301ffc9a71461015d57806306fdde031461018d578063081812fc146101ab578063095ea7b3146101db5780630f156837146101f757806318160ddd14610213575b600080fd5b610177600480360381019061017291906127db565b6104bf565b6040516101849190612823565b60405180910390f35b6101956104d1565b6040516101a291906128d7565b60405180910390f35b6101c560048036038101906101c0919061292f565b610563565b6040516101d2919061299d565b60405180910390f35b6101f560048036038101906101f091906129e4565b6105e8565b005b610211600480360381019061020c91906129e4565b6106ff565b005b61021b610885565b6040516102289190612a33565b60405180910390f35b61024b60048036038101906102469190612a4e565b610892565b005b610267600480360381019061026291906129e4565b6108f2565b6040516102749190612a33565b60405180910390f35b61029760048036038101906102929190612a4e565b610997565b005b6102b360048036038101906102ae919061292f565b6109b7565b6040516102c09190612a33565b60405180910390f35b6102e360048036038101906102de919061292f565b610a28565b6040516102f0919061299d565b60405180910390f35b610313600480360381019061030e9190612aa1565b610ad9565b6040516103209190612a33565b60405180910390f35b610331610b90565b60405161033e9190612b8c565b60405180910390f35b61034f610c42565b005b610359610cca565b6040516103669190612a33565b60405180910390f35b61038960048036038101906103849190612ce3565b610cdb565b6040516103969190612a33565b60405180910390f35b6103a7610e5e565b6040516103b4919061299d565b60405180910390f35b6103c5610e87565b6040516103d291906128d7565b60405180910390f35b6103f560048036038101906103f09190612d87565b610f19565b005b610411600480360381019061040c9190612e68565b611099565b005b61042d6004803603810190610428919061292f565b6110fb565b60405161043a91906128d7565b60405180910390f35b61045d60048036038101906104589190612eeb565b61110d565b60405161046a9190612823565b60405180910390f35b61048d60048036038101906104889190612aa1565b6111a1565b005b6104a960048036038101906104a4919061292f565b611298565b6040516104b691906128d7565b60405180910390f35b60006104ca82611340565b9050919050565b6060600180546104e090612f5a565b80601f016020809104026020016040519081016040528092919081815260200182805461050c90612f5a565b80156105595780601f1061052e57610100808354040283529160200191610559565b820191906000526020600020905b81548152906001019060200180831161053c57829003601f168201915b5050505050905090565b600061056e826113ba565b6105ad576040517f08c379a00000000000000000000000000000000000000000000000000000000081526004016105a490612ffd565b60405180910390fd5b6005600083815260200190815260200160002060009054906101000a900473ffffffffffffffffffffffffffffffffffffffff169050919050565b60006105f382610a28565b90508073ffffffffffffffffffffffffffffffffffffffff168373ffffffffffffffffffffffffffffffffffffffff1603610663576040517f08c379a000000000000000000000000000000000000000000000000000000000815260040161065a9061308f565b60405180910390fd5b8073ffffffffffffffffffffffffffffffffffffffff16610682611426565b73ffffffffffffffffffffffffffffffffffffffff1614806106b157506106b0816106ab611426565b61110d565b5b6106f0576040517f08c379a00000000000000000000000000000000000000000000000000000000081526004016106e790613121565b60405180910390fd5b6106fa838361142e565b505050565b3373ffffffffffffffffffffffffffffffffffffffff1661071f82610a28565b73ffffffffffffffffffffffffffffffffffffffff161461073f57600080fd5b6107926001600e60003373ffffffffffffffffffffffffffffffffffffffff1673ffffffffffffffffffffffffffffffffffffffff168152602001908152602001600020546114e790919063ffffffff16565b600e60003373ffffffffffffffffffffffffffffffffffffffff1673ffffffffffffffffffffffffffffffffffffffff168152602001908152602001600020819055506108286001600e60008573ffffffffffffffffffffffffffffffffffffffff1673ffffffffffffffffffffffffffffffffffffffff168152602001908152602001600020546114fd90919063ffffffff16565b600e60008473ffffffffffffffffffffffffffffffffffffffff1673ffffffffffffffffffffffffffffffffffffffff16815260200190815260200160002081905550610876338383611513565b610881338383610892565b5050565b6000600980549050905090565b6108a361089d611426565b82611523565b6108e2576040517f08c379a00000000000000000000000000000000000000000000000000000000081526004016108d9906131b3565b60405180910390fd5b6108ed838383611601565b505050565b60006108fd83610ad9565b821061093e576040517f08c379a000000000000000000000000000000000000000000000000000000000815260040161093590613245565b60405180910390fd5b600760008473ffffffffffffffffffffffffffffffffffffffff1673ffffffffffffffffffffffffffffffffffffffff168152602001908152602001600020600083815260200190815260200160002054905092915050565b6109b283838360405180602001604052806000815250611099565b505050565b60006109c1610885565b8210610a02576040517f08c379a00000000000000000000000000000000000000000000000000000000081526004016109f9906132d7565b60405180910390fd5b60098281548110610a1657610a156132f7565b5b90600052602060002001549050919050565b6000806003600084815260200190815260200160002060009054906101000a900473ffffffffffffffffffffffffffffffffffffffff169050600073ffffffffffffffffffffffffffffffffffffffff168173ffffffffffffffffffffffffffffffffffffffff1603610ad0576040517f08c379a0000000000000000000000000000000000000000000000000000000008152600401610ac790613398565b60405180910390fd5b80915050919050565b60008073ffffffffffffffffffffffffffffffffffffffff168273ffffffffffffffffffffffffffffffffffffffff1603610b49576040517f08c379a0000000000000000000000000000000000000000000000000000000008152600401610b409061342a565b60405180910390fd5b600460008373ffffffffffffffffffffffffffffffffffffffff1673ffffffffffffffffffffffffffffffffffffffff168152602001908152602001600020549050919050565b60606000610b9d33610ad9565b905060008167ffffffffffffffff811115610bbb57610bba612bb8565b5b604051908082528060200260200182016040528015610be95781602001602082028036833780820191505090505b50905060005b82811015610c39576000610c0333836108f2565b905080838381518110610c1957610c186132f7565b5b602002602001018181525050508080610c3190613479565b915050610bef565b50809250505090565b610c4a611426565b73ffffffffffffffffffffffffffffffffffffffff16610c68610e5e565b73ffffffffffffffffffffffffffffffffffffffff1614610cbe576040517f08c379a0000000000000000000000000000000000000000000000000000000008152600401610cb59061350d565b60405180910390fd5b610cc8600061185c565b565b6000610cd6600c611920565b905090565b60006001600f84604051610cef9190613569565b908152602001604051809103902060009054906101000a900460ff1660ff1603610d1857600080fd5b610d22600c61192e565b6000610d2e600c611920565b90506001600f85604051610d429190613569565b908152602001604051809103902060006101000a81548160ff021916908360ff160217905550610dbb6001600e60003373ffffffffffffffffffffffffffffffffffffffff1673ffffffffffffffffffffffffffffffffffffffff168152602001908152602001600020546114fd90919063ffffffff16565b600e60003373ffffffffffffffffffffffffffffffffffffffff1673ffffffffffffffffffffffffffffffffffffffff16815260200190815260200160002081905550604051806020016040528084815250600d60008381526020019081526020016000206000820151816000019080519060200190610e3c9291906126cc565b50905050610e4a3382611944565b610e548184611962565b8091505092915050565b60008060009054906101000a900473ffffffffffffffffffffffffffffffffffffffff16905090565b606060028054610e9690612f5a565b80601f0160208091040260200160405190810160405280929190818152602001828054610ec290612f5a565b8015610f0f5780601f10610ee457610100808354040283529160200191610f0f565b820191906000526020600020905b815481529060010190602001808311610ef257829003601f168201915b5050505050905090565b610f21611426565b73ffffffffffffffffffffffffffffffffffffffff168273ffffffffffffffffffffffffffffffffffffffff1603610f8e576040517f08c379a0000000000000000000000000000000000000000000000000000000008152600401610f85906135cc565b60405180910390fd5b8060066000610f9b611426565b73ffffffffffffffffffffffffffffffffffffffff1673ffffffffffffffffffffffffffffffffffffffff16815260200190815260200160002060008473ffffffffffffffffffffffffffffffffffffffff1673ffffffffffffffffffffffffffffffffffffffff16815260200190815260200160002060006101000a81548160ff0219169083151502179055508173ffffffffffffffffffffffffffffffffffffffff16611048611426565b73ffffffffffffffffffffffffffffffffffffffff167f17307eab39ab6107e8899845ad3d59bd9653f200f220920489ca2b5937696c318360405161108d9190612823565b60405180910390a35050565b6110aa6110a4611426565b83611523565b6110e9576040517f08c379a00000000000000000000000000000000000000000000000000000000081526004016110e0906131b3565b60405180910390fd5b6110f5848484846119d6565b50505050565b606061110682611a32565b9050919050565b6000600660008473ffffffffffffffffffffffffffffffffffffffff1673ffffffffffffffffffffffffffffffffffffffff16815260200190815260200160002060008373ffffffffffffffffffffffffffffffffffffffff1673ffffffffffffffffffffffffffffffffffffffff16815260200190815260200160002060009054906101000a900460ff16905092915050565b6111a9611426565b73ffffffffffffffffffffffffffffffffffffffff166111c7610e5e565b73ffffffffffffffffffffffffffffffffffffffff161461121d576040517f08c379a00000000000000000000000000000000000000000000000000000000081526004016112149061350d565b60405180910390fd5b600073ffffffffffffffffffffffffffffffffffffffff168173ffffffffffffffffffffffffffffffffffffffff160361128c576040517f08c379a00000000000000000000000000000000000000000000000000000000081526004016112839061365e565b60405180910390fd5b6112958161185c565b50565b6060600d600083815260200190815260200160002060000180546112bb90612f5a565b80601f01602080910402602001604051908101604052809291908181526020018280546112e790612f5a565b80156113345780601f1061130957610100808354040283529160200191611334565b820191906000526020600020905b81548152906001019060200180831161131757829003601f168201915b50505050509050919050565b60007f780e9d63000000000000000000000000000000000000000000000000000000007bffffffffffffffffffffffffffffffffffffffffffffffffffffffff1916827bffffffffffffffffffffffffffffffffffffffffffffffffffffffff191614806113b357506113b282611b83565b5b9050919050565b60008073ffffffffffffffffffffffffffffffffffffffff166003600084815260200190815260200160002060009054906101000a900473ffffffffffffffffffffffffffffffffffffffff1673ffffffffffffffffffffffffffffffffffffffff1614159050919050565b600033905090565b816005600083815260200190815260200160002060006101000a81548173ffffffffffffffffffffffffffffffffffffffff021916908373ffffffffffffffffffffffffffffffffffffffff160217905550808273ffffffffffffffffffffffffffffffffffffffff166114a183610a28565b73ffffffffffffffffffffffffffffffffffffffff167f8c5be1e5ebec7d5bd14f71427d1e84f3dd0314c0f7b2291e5b200ac8c7c3b92560405160405180910390a45050565b600081836114f5919061367e565b905092915050565b6000818361150b91906136b2565b905092915050565b61151e838383611c65565b505050565b600061152e826113ba565b61156d576040517f08c379a00000000000000000000000000000000000000000000000000000000081526004016115649061377a565b60405180910390fd5b600061157883610a28565b90508073ffffffffffffffffffffffffffffffffffffffff168473ffffffffffffffffffffffffffffffffffffffff1614806115e757508373ffffffffffffffffffffffffffffffffffffffff166115cf84610563565b73ffffffffffffffffffffffffffffffffffffffff16145b806115f857506115f7818561110d565b5b91505092915050565b8273ffffffffffffffffffffffffffffffffffffffff1661162182610a28565b73ffffffffffffffffffffffffffffffffffffffff1614611677576040517f08c379a000000000000000000000000000000000000000000000000000000000815260040161166e9061380c565b60405180910390fd5b600073ffffffffffffffffffffffffffffffffffffffff168273ffffffffffffffffffffffffffffffffffffffff16036116e6576040517f08c379a00000000000000000000000000000000000000000000000000000000081526004016116dd9061389e565b60405180910390fd5b6116f1838383611513565b6116fc60008261142e565b6001600460008573ffffffffffffffffffffffffffffffffffffffff1673ffffffffffffffffffffffffffffffffffffffff168152602001908152602001600020600082825461174c919061367e565b925050819055506001600460008473ffffffffffffffffffffffffffffffffffffffff1673ffffffffffffffffffffffffffffffffffffffff16815260200190815260200160002060008282546117a391906136b2565b92505081905550816003600083815260200190815260200160002060006101000a81548173ffffffffffffffffffffffffffffffffffffffff021916908373ffffffffffffffffffffffffffffffffffffffff160217905550808273ffffffffffffffffffffffffffffffffffffffff168473ffffffffffffffffffffffffffffffffffffffff167fddf252ad1be2c89b69c2b068fc378daa952ba7f163c4a11628f55a4df523b3ef60405160405180910390a4505050565b60008060009054906101000a900473ffffffffffffffffffffffffffffffffffffffff169050816000806101000a81548173ffffffffffffffffffffffffffffffffffffffff021916908373ffffffffffffffffffffffffffffffffffffffff1602179055508173ffffffffffffffffffffffffffffffffffffffff168173ffffffffffffffffffffffffffffffffffffffff167f8be0079c531659141344cd1fd0a4f28419497f9722a3daafe3b4186f6b6457e060405160405180910390a35050565b600081600001549050919050565b6001816000016000828254019250508190555050565b61195e828260405180602001604052806000815250611d77565b5050565b61196b826113ba565b6119aa576040517f08c379a00000000000000000000000000000000000000000000000000000000081526004016119a190613930565b60405180910390fd5b80600b600084815260200190815260200160002090805190602001906119d19291906126cc565b505050565b6119e1848484611601565b6119ed84848484611dd2565b611a2c576040517f08c379a0000000000000000000000000000000000000000000000000000000008152600401611a23906139c2565b60405180910390fd5b50505050565b6060611a3d826113ba565b611a7c576040517f08c379a0000000000000000000000000000000000000000000000000000000008152600401611a7390613a54565b60405180910390fd5b6000600b60008481526020019081526020016000208054611a9c90612f5a565b80601f0160208091040260200160405190810160405280929190818152602001828054611ac890612f5a565b8015611b155780601f10611aea57610100808354040283529160200191611b15565b820191906000526020600020905b815481529060010190602001808311611af857829003601f168201915b505050505090506000611b26611f59565b90506000815103611b3b578192505050611b7e565b600082511115611b70578082604051602001611b58929190613a74565b60405160208183030381529060405292505050611b7e565b611b7984611f70565b925050505b919050565b60007f80ac58cd000000000000000000000000000000000000000000000000000000007bffffffffffffffffffffffffffffffffffffffffffffffffffffffff1916827bffffffffffffffffffffffffffffffffffffffffffffffffffffffff19161480611c4e57507f5b5e139f000000000000000000000000000000000000000000000000000000007bffffffffffffffffffffffffffffffffffffffffffffffffffffffff1916827bffffffffffffffffffffffffffffffffffffffffffffffffffffffff1916145b80611c5e5750611c5d82612017565b5b9050919050565b611c70838383612081565b600073ffffffffffffffffffffffffffffffffffffffff168373ffffffffffffffffffffffffffffffffffffffff1603611cb257611cad81612086565b611cf1565b8173ffffffffffffffffffffffffffffffffffffffff168373ffffffffffffffffffffffffffffffffffffffff1614611cf057611cef83826120cf565b5b5b600073ffffffffffffffffffffffffffffffffffffffff168273ffffffffffffffffffffffffffffffffffffffff1603611d3357611d2e8161223c565b611d72565b8273ffffffffffffffffffffffffffffffffffffffff168273ffffffffffffffffffffffffffffffffffffffff1614611d7157611d70828261230d565b5b5b505050565b611d81838361238c565b611d8e6000848484611dd2565b611dcd576040517f08c379a0000000000000000000000000000000000000000000000000000000008152600401611dc4906139c2565b60405180910390fd5b505050565b6000611df38473ffffffffffffffffffffffffffffffffffffffff16612559565b15611f4c578373ffffffffffffffffffffffffffffffffffffffff1663150b7a02611e1c611426565b8786866040518563ffffffff1660e01b8152600401611e3e9493929190613aed565b6020604051808303816000875af1925050508015611e7a57506040513d601f19601f82011682018060405250810190611e779190613b4e565b60015b611efc573d8060008114611eaa576040519150601f19603f3d011682016040523d82523d6000602084013e611eaf565b606091505b506000815103611ef4576040517f08c379a0000000000000000000000000000000000000000000000000000000008152600401611eeb906139c2565b60405180910390fd5b805181602001fd5b63150b7a0260e01b7bffffffffffffffffffffffffffffffffffffffffffffffffffffffff1916817bffffffffffffffffffffffffffffffffffffffffffffffffffffffff191614915050611f51565b600190505b949350505050565b606060405180602001604052806000815250905090565b6060611f7b826113ba565b611fba576040517f08c379a0000000000000000000000000000000000000000000000000000000008152600401611fb190613bed565b60405180910390fd5b6000611fc4611f59565b90506000815111611fe4576040518060200160405280600081525061200f565b80611fee8461256c565b604051602001611fff929190613a74565b6040516020818303038152906040525b915050919050565b60007f01ffc9a7000000000000000000000000000000000000000000000000000000007bffffffffffffffffffffffffffffffffffffffffffffffffffffffff1916827bffffffffffffffffffffffffffffffffffffffffffffffffffffffff1916149050919050565b505050565b600980549050600a600083815260200190815260200160002081905550600981908060018154018082558091505060019003906000526020600020016000909190919091505550565b600060016120dc84610ad9565b6120e6919061367e565b90506000600860008481526020019081526020016000205490508181146121cb576000600760008673ffffffffffffffffffffffffffffffffffffffff1673ffffffffffffffffffffffffffffffffffffffff168152602001908152602001600020600084815260200190815260200160002054905080600760008773ffffffffffffffffffffffffffffffffffffffff1673ffffffffffffffffffffffffffffffffffffffff168152602001908152602001600020600084815260200190815260200160002081905550816008600083815260200190815260200160002081905550505b6008600084815260200190815260200160002060009055600760008573ffffffffffffffffffffffffffffffffffffffff1673ffffffffffffffffffffffffffffffffffffffff16815260200190815260200160002060008381526020019081526020016000206000905550505050565b60006001600980549050612250919061367e565b90506000600a60008481526020019081526020016000205490506000600983815481106122805761227f6132f7565b5b9060005260206000200154905080600983815481106122a2576122a16132f7565b5b906000526020600020018190555081600a600083815260200190815260200160002081905550600a60008581526020019081526020016000206000905560098054806122f1576122f0613c0d565b5b6001900381819060005260206000200160009055905550505050565b600061231883610ad9565b905081600760008573ffffffffffffffffffffffffffffffffffffffff1673ffffffffffffffffffffffffffffffffffffffff168152602001908152602001600020600083815260200190815260200160002081905550806008600084815260200190815260200160002081905550505050565b600073ffffffffffffffffffffffffffffffffffffffff168273ffffffffffffffffffffffffffffffffffffffff16036123fb576040517f08c379a00000000000000000000000000000000000000000000000000000000081526004016123f290613c88565b60405180910390fd5b612404816113ba565b15612444576040517f08c379a000000000000000000000000000000000000000000000000000000000815260040161243b90613cf4565b60405180910390fd5b61245060008383611513565b6001600460008473ffffffffffffffffffffffffffffffffffffffff1673ffffffffffffffffffffffffffffffffffffffff16815260200190815260200160002060008282546124a091906136b2565b92505081905550816003600083815260200190815260200160002060006101000a81548173ffffffffffffffffffffffffffffffffffffffff021916908373ffffffffffffffffffffffffffffffffffffffff160217905550808273ffffffffffffffffffffffffffffffffffffffff16600073ffffffffffffffffffffffffffffffffffffffff167fddf252ad1be2c89b69c2b068fc378daa952ba7f163c4a11628f55a4df523b3ef60405160405180910390a45050565b600080823b905060008111915050919050565b6060600082036125b3576040518060400160405280600181526020017f300000000000000000000000000000000000000000000000000000000000000081525090506126c7565b600082905060005b600082146125e55780806125ce90613479565b915050600a826125de9190613d43565b91506125bb565b60008167ffffffffffffffff81111561260157612600612bb8565b5b6040519080825280601f01601f1916602001820160405280156126335781602001600182028036833780820191505090505b5090505b600085146126c05760018261264c919061367e565b9150600a8561265b9190613d74565b603061266791906136b2565b60f81b81838151811061267d5761267c6132f7565b5b60200101907effffffffffffffffffffffffffffffffffffffffffffffffffffffffffffff1916908160001a905350600a856126b99190613d43565b9450612637565b8093505050505b919050565b8280546126d890612f5a565b90600052602060002090601f0160209004810192826126fa5760008555612741565b82601f1061271357805160ff1916838001178555612741565b82800160010185558215612741579182015b82811115612740578251825591602001919060010190612725565b5b50905061274e9190612752565b5090565b5b8082111561276b576000816000905550600101612753565b5090565b6000604051905090565b600080fd5b600080fd5b60007fffffffff0000000000000000000000000000000000000000000000000000000082169050919050565b6127b881612783565b81146127c357600080fd5b50565b6000813590506127d5816127af565b92915050565b6000602082840312156127f1576127f0612779565b5b60006127ff848285016127c6565b91505092915050565b60008115159050919050565b61281d81612808565b82525050565b60006020820190506128386000830184612814565b92915050565b600081519050919050565b600082825260208201905092915050565b60005b8381101561287857808201518184015260208101905061285d565b83811115612887576000848401525b50505050565b6000601f19601f8301169050919050565b60006128a98261283e565b6128b38185612849565b93506128c381856020860161285a565b6128cc8161288d565b840191505092915050565b600060208201905081810360008301526128f1818461289e565b905092915050565b6000819050919050565b61290c816128f9565b811461291757600080fd5b50565b60008135905061292981612903565b92915050565b60006020828403121561294557612944612779565b5b60006129538482850161291a565b91505092915050565b600073ffffffffffffffffffffffffffffffffffffffff82169050919050565b60006129878261295c565b9050919050565b6129978161297c565b82525050565b60006020820190506129b2600083018461298e565b92915050565b6129c18161297c565b81146129cc57600080fd5b50565b6000813590506129de816129b8565b92915050565b600080604083850312156129fb576129fa612779565b5b6000612a09858286016129cf565b9250506020612a1a8582860161291a565b9150509250929050565b612a2d816128f9565b82525050565b6000602082019050612a486000830184612a24565b92915050565b600080600060608486031215612a6757612a66612779565b5b6000612a75868287016129cf565b9350506020612a86868287016129cf565b9250506040612a978682870161291a565b9150509250925092565b600060208284031215612ab757612ab6612779565b5b6000612ac5848285016129cf565b91505092915050565b600081519050919050565b600082825260208201905092915050565b6000819050602082019050919050565b612b03816128f9565b82525050565b6000612b158383612afa565b60208301905092915050565b6000602082019050919050565b6000612b3982612ace565b612b438185612ad9565b9350612b4e83612aea565b8060005b83811015612b7f578151612b668882612b09565b9750612b7183612b21565b925050600181019050612b52565b5085935050505092915050565b60006020820190508181036000830152612ba68184612b2e565b905092915050565b600080fd5b600080fd5b7f4e487b7100000000000000000000000000000000000000000000000000000000600052604160045260246000fd5b612bf08261288d565b810181811067ffffffffffffffff82111715612c0f57612c0e612bb8565b5b80604052505050565b6000612c2261276f565b9050612c2e8282612be7565b919050565b600067ffffffffffffffff821115612c4e57612c4d612bb8565b5b612c578261288d565b9050602081019050919050565b82818337600083830152505050565b6000612c86612c8184612c33565b612c18565b905082815260208101848484011115612ca257612ca1612bb3565b5b612cad848285612c64565b509392505050565b600082601f830112612cca57612cc9612bae565b5b8135612cda848260208601612c73565b91505092915050565b60008060408385031215612cfa57612cf9612779565b5b600083013567ffffffffffffffff811115612d1857612d1761277e565b5b612d2485828601612cb5565b925050602083013567ffffffffffffffff811115612d4557612d4461277e565b5b612d5185828601612cb5565b9150509250929050565b612d6481612808565b8114612d6f57600080fd5b50565b600081359050612d8181612d5b565b92915050565b60008060408385031215612d9e57612d9d612779565b5b6000612dac858286016129cf565b9250506020612dbd85828601612d72565b9150509250929050565b600067ffffffffffffffff821115612de257612de1612bb8565b5b612deb8261288d565b9050602081019050919050565b6000612e0b612e0684612dc7565b612c18565b905082815260208101848484011115612e2757612e26612bb3565b5b612e32848285612c64565b509392505050565b600082601f830112612e4f57612e4e612bae565b5b8135612e5f848260208601612df8565b91505092915050565b60008060008060808587031215612e8257612e81612779565b5b6000612e90878288016129cf565b9450506020612ea1878288016129cf565b9350506040612eb28782880161291a565b925050606085013567ffffffffffffffff811115612ed357612ed261277e565b5b612edf87828801612e3a565b91505092959194509250565b60008060408385031215612f0257612f01612779565b5b6000612f10858286016129cf565b9250506020612f21858286016129cf565b9150509250929050565b7f4e487b7100000000000000000000000000000000000000000000000000000000600052602260045260246000fd5b60006002820490506001821680612f7257607f821691505b602082108103612f8557612f84612f2b565b5b50919050565b7f4552433732313a20617070726f76656420717565727920666f72206e6f6e657860008201527f697374656e7420746f6b656e0000000000000000000000000000000000000000602082015250565b6000612fe7602c83612849565b9150612ff282612f8b565b604082019050919050565b6000602082019050818103600083015261301681612fda565b9050919050565b7f4552433732313a20617070726f76616c20746f2063757272656e74206f776e6560008201527f7200000000000000000000000000000000000000000000000000000000000000602082015250565b6000613079602183612849565b91506130848261301d565b604082019050919050565b600060208201905081810360008301526130a88161306c565b9050919050565b7f4552433732313a20617070726f76652063616c6c6572206973206e6f74206f7760008201527f6e6572206e6f7220617070726f76656420666f7220616c6c0000000000000000602082015250565b600061310b603883612849565b9150613116826130af565b604082019050919050565b6000602082019050818103600083015261313a816130fe565b9050919050565b7f4552433732313a207472616e736665722063616c6c6572206973206e6f74206f60008201527f776e6572206e6f7220617070726f766564000000000000000000000000000000602082015250565b600061319d603183612849565b91506131a882613141565b604082019050919050565b600060208201905081810360008301526131cc81613190565b9050919050565b7f455243373231456e756d657261626c653a206f776e657220696e646578206f7560008201527f74206f6620626f756e6473000000000000000000000000000000000000000000602082015250565b600061322f602b83612849565b915061323a826131d3565b604082019050919050565b6000602082019050818103600083015261325e81613222565b9050919050565b7f455243373231456e756d657261626c653a20676c6f62616c20696e646578206f60008201527f7574206f6620626f756e64730000000000000000000000000000000000000000602082015250565b60006132c1602c83612849565b91506132cc82613265565b604082019050919050565b600060208201905081810360008301526132f0816132b4565b9050919050565b7f4e487b7100000000000000000000000000000000000000000000000000000000600052603260045260246000fd5b7f4552433732313a206f776e657220717565727920666f72206e6f6e657869737460008201527f656e7420746f6b656e0000000000000000000000000000000000000000000000602082015250565b6000613382602983612849565b915061338d82613326565b604082019050919050565b600060208201905081810360008301526133b181613375565b9050919050565b7f4552433732313a2062616c616e636520717565727920666f7220746865207a6560008201527f726f206164647265737300000000000000000000000000000000000000000000602082015250565b6000613414602a83612849565b915061341f826133b8565b604082019050919050565b6000602082019050818103600083015261344381613407565b9050919050565b7f4e487b7100000000000000000000000000000000000000000000000000000000600052601160045260246000fd5b6000613484826128f9565b91507fffffffffffffffffffffffffffffffffffffffffffffffffffffffffffffffff82036134b6576134b561344a565b5b600182019050919050565b7f4f776e61626c653a2063616c6c6572206973206e6f7420746865206f776e6572600082015250565b60006134f7602083612849565b9150613502826134c1565b602082019050919050565b60006020820190508181036000830152613526816134ea565b9050919050565b600081905092915050565b60006135438261283e565b61354d818561352d565b935061355d81856020860161285a565b80840191505092915050565b60006135758284613538565b915081905092915050565b7f4552433732313a20617070726f766520746f2063616c6c657200000000000000600082015250565b60006135b6601983612849565b91506135c182613580565b602082019050919050565b600060208201905081810360008301526135e5816135a9565b9050919050565b7f4f776e61626c653a206e6577206f776e657220697320746865207a65726f206160008201527f6464726573730000000000000000000000000000000000000000000000000000602082015250565b6000613648602683612849565b9150613653826135ec565b604082019050919050565b600060208201905081810360008301526136778161363b565b9050919050565b6000613689826128f9565b9150613694836128f9565b9250828210156136a7576136a661344a565b5b828203905092915050565b60006136bd826128f9565b91506136c8836128f9565b9250827fffffffffffffffffffffffffffffffffffffffffffffffffffffffffffffffff038211156136fd576136fc61344a565b5b828201905092915050565b7f4552433732313a206f70657261746f7220717565727920666f72206e6f6e657860008201527f697374656e7420746f6b656e0000000000000000000000000000000000000000602082015250565b6000613764602c83612849565b915061376f82613708565b604082019050919050565b6000602082019050818103600083015261379381613757565b9050919050565b7f4552433732313a207472616e73666572206f6620746f6b656e2074686174206960008201527f73206e6f74206f776e0000000000000000000000000000000000000000000000602082015250565b60006137f6602983612849565b91506138018261379a565b604082019050919050565b60006020820190508181036000830152613825816137e9565b9050919050565b7f4552433732313a207472616e7366657220746f20746865207a65726f2061646460008201527f7265737300000000000000000000000000000000000000000000000000000000602082015250565b6000613888602483612849565b91506138938261382c565b604082019050919050565b600060208201905081810360008301526138b78161387b565b9050919050565b7f45524337323155524953746f726167653a2055524920736574206f66206e6f6e60008201527f6578697374656e7420746f6b656e000000000000000000000000000000000000602082015250565b600061391a602e83612849565b9150613925826138be565b604082019050919050565b600060208201905081810360008301526139498161390d565b9050919050565b7f4552433732313a207472616e7366657220746f206e6f6e20455243373231526560008201527f63656976657220696d706c656d656e7465720000000000000000000000000000602082015250565b60006139ac603283612849565b91506139b782613950565b604082019050919050565b600060208201905081810360008301526139db8161399f565b9050919050565b7f45524337323155524953746f726167653a2055524920717565727920666f722060008201527f6e6f6e6578697374656e7420746f6b656e000000000000000000000000000000602082015250565b6000613a3e603183612849565b9150613a49826139e2565b604082019050919050565b60006020820190508181036000830152613a6d81613a31565b9050919050565b6000613a808285613538565b9150613a8c8284613538565b91508190509392505050565b600081519050919050565b600082825260208201905092915050565b6000613abf82613a98565b613ac98185613aa3565b9350613ad981856020860161285a565b613ae28161288d565b840191505092915050565b6000608082019050613b02600083018761298e565b613b0f602083018661298e565b613b1c6040830185612a24565b8181036060830152613b2e8184613ab4565b905095945050505050565b600081519050613b48816127af565b92915050565b600060208284031215613b6457613b63612779565b5b6000613b7284828501613b39565b91505092915050565b7f4552433732314d657461646174613a2055524920717565727920666f72206e6f60008201527f6e6578697374656e7420746f6b656e0000000000000000000000000000000000602082015250565b6000613bd7602f83612849565b9150613be282613b7b565b604082019050919050565b60006020820190508181036000830152613c0681613bca565b9050919050565b7f4e487b7100000000000000000000000000000000000000000000000000000000600052603160045260246000fd5b7f4552433732313a206d696e7420746f20746865207a65726f2061646472657373600082015250565b6000613c72602083612849565b9150613c7d82613c3c565b602082019050919050565b60006020820190508181036000830152613ca181613c65565b9050919050565b7f4552433732313a20746f6b656e20616c7265616479206d696e74656400000000600082015250565b6000613cde601c83612849565b9150613ce982613ca8565b602082019050919050565b60006020820190508181036000830152613d0d81613cd1565b9050919050565b7f4e487b7100000000000000000000000000000000000000000000000000000000600052601260045260246000fd5b6000613d4e826128f9565b9150613d59836128f9565b925082613d6957613d68613d14565b5b828204905092915050565b6000613d7f826128f9565b9150613d8a836128f9565b925082613d9a57613d99613d14565b5b82820690509291505056fea264697066735822122005cf399796232b8249b1150dd1f919d242fa5d36eaa9aae951752aa08afdab6364736f6c634300080d0033",
  "immutableReferences": {},
  "source": "// SPDX-License-Identifier: MIT\r\npragma solidity ^0.8.9;\r\n\r\nimport \"@openzeppelin/contracts/token/ERC721/ERC721.sol\";\r\nimport '@openzeppelin/contracts/utils/Counters.sol';\r\nimport \"@openzeppelin/contracts/access/Ownable.sol\";\r\n\r\nimport \"@openzeppelin/contracts/utils/math/SafeMath.sol\";\r\n\r\nimport \"@openzeppelin/contracts/token/ERC721/extensions/ERC721Enumerable.sol\";\r\n\r\nimport \"@openzeppelin/contracts/token/ERC721/extensions/ERC721URIStorage.sol\";\r\n\r\ncontract MyToken is Ownable, ERC721, ERC721Enumerable, ERC721URIStorage{\r\n\r\n     using SafeMath for uint256;\r\n     using Counters for Counters.Counter;\r\n    Counters.Counter private _tokenIds; \r\n\r\n    constructor() ERC721(\"MyFile\",\"FIL\"){}\r\n\r\n    struct Metadata{\r\n        string text;\r\n    }\r\n\r\n    mapping (uint256 => Metadata) id_to_text;\r\n\r\n    mapping (address => uint) ownerNftCount;\r\n\r\n   mapping(string => uint8) hashes;\r\n\r\n   \r\n\r\n    string private _currentBaseURI;\r\n\r\n\r\n    function mint(string memory hash, string memory metadata) external returns(uint tokenId) {\r\n        require(hashes[hash] != 1);\r\n\r\n        _tokenIds.increment();\r\n\r\n        uint newItemId = _tokenIds.current();\r\n\r\n        hashes[hash] = 1;\r\n\r\n        ownerNftCount[msg.sender] = ownerNftCount[msg.sender].add(1);\r\n\r\n        id_to_text[newItemId] = Metadata(metadata);\r\n\r\n        _safeMint(msg.sender, newItemId);\r\n\r\n         _setTokenURI(newItemId,metadata);\r\n\r\n         return newItemId;\r\n\r\n    }\r\n\r\n    function getNftText(uint _tokenId) public view returns (string memory){\r\n        return id_to_text[_tokenId].text;\r\n    }\r\n\r\n    function getOwnedNfts() public view returns(uint[] memory){\r\n\r\n        uint userBalance = balanceOf(msg.sender);\r\n        uint[] memory tokenIds = new uint[](userBalance);\r\n        for(uint i = 0; i < userBalance; i++){\r\n          uint currTokenId = tokenOfOwnerByIndex(msg.sender,i);\r\n          tokenIds[i] = currTokenId;\r\n        }\r\n\r\n        return tokenIds; \r\n    }\r\n\r\n    function getLastTokenId() public view returns(uint) {\r\n        return _tokenIds.current();\r\n    }\r\n\r\n    function sendNft(address to, uint tokenId) public{\r\n        require(ownerOf(tokenId) == msg.sender);\r\n        ownerNftCount[msg.sender] = ownerNftCount[msg.sender].sub(1);\r\n        ownerNftCount[to] = ownerNftCount[to].add(1);\r\n        _beforeTokenTransfer(msg.sender, to, tokenId);\r\n        transferFrom(msg.sender,to,tokenId);\r\n\r\n    }\r\n\r\n     function supportsInterface(bytes4 interfaceId) public view virtual override(ERC721,ERC721Enumerable) returns (bool) {\r\n        return super.supportsInterface(interfaceId);\r\n    }\r\n\r\n    function _beforeTokenTransfer(address from, address to, uint256 tokenId) internal virtual override(ERC721,ERC721Enumerable) {\r\n        super._beforeTokenTransfer(from, to, tokenId);\r\n    }\r\n\r\n     function tokenURI(uint256 tokenId) public view virtual override(ERC721,ERC721URIStorage) returns (string memory) {\r\n        return super.tokenURI(tokenId);\r\n    }\r\n\r\n      function _burn(uint256 tokenId) internal virtual override(ERC721,ERC721URIStorage) {\r\n          super._burn(tokenId);\r\n      }\r\n\r\n}\r\n\r\n",
  "sourcePath": "C:\\Users\\Acer\\OneDrive\\Ambiente de Trabalho\\NftCreator\\contracts\\MyToken.sol",
  "compiler": {
    "name": "solc",
    "version": "0.8.13+commit.abaa5c0e.Emscripten.clang"
  },
  "schemaVersion": "3.4.4",
  "updatedAt": "2022-05-14T18:01:46.063Z",
  "networkType": "ethereum",
  "devdoc": {
    "kind": "dev",
    "methods": {
      "approve(address,uint256)": {
        "details": "See {IERC721-approve}."
      },
      "balanceOf(address)": {
        "details": "See {IERC721-balanceOf}."
      },
      "getApproved(uint256)": {
        "details": "See {IERC721-getApproved}."
      },
      "isApprovedForAll(address,address)": {
        "details": "See {IERC721-isApprovedForAll}."
      },
      "name()": {
        "details": "See {IERC721Metadata-name}."
      },
      "owner()": {
        "details": "Returns the address of the current owner."
      },
      "ownerOf(uint256)": {
        "details": "See {IERC721-ownerOf}."
      },
      "renounceOwnership()": {
        "details": "Leaves the contract without owner. It will not be possible to call `onlyOwner` functions anymore. Can only be called by the current owner. NOTE: Renouncing ownership will leave the contract without an owner, thereby removing any functionality that is only available to the owner."
      },
      "safeTransferFrom(address,address,uint256)": {
        "details": "See {IERC721-safeTransferFrom}."
      },
      "safeTransferFrom(address,address,uint256,bytes)": {
        "details": "See {IERC721-safeTransferFrom}."
      },
      "setApprovalForAll(address,bool)": {
        "details": "See {IERC721-setApprovalForAll}."
      },
      "symbol()": {
        "details": "See {IERC721Metadata-symbol}."
      },
      "tokenByIndex(uint256)": {
        "details": "See {IERC721Enumerable-tokenByIndex}."
      },
      "tokenOfOwnerByIndex(address,uint256)": {
        "details": "See {IERC721Enumerable-tokenOfOwnerByIndex}."
      },
      "totalSupply()": {
        "details": "See {IERC721Enumerable-totalSupply}."
      },
      "transferFrom(address,address,uint256)": {
        "details": "See {IERC721-transferFrom}."
      },
      "transferOwnership(address)": {
        "details": "Transfers ownership of the contract to a new account (`newOwner`). Can only be called by the current owner."
      }
    },
    "version": 1
  },
  "userdoc": {
    "kind": "user",
    "methods": {},
    "version": 1
  }
}