{
  "contractName": "MyToken",
  "abi": [
    {
      "inputs": [],
      "stateMutability": "nonpayable",
      "type": "constructor"
    },
    {
      "anonymous": false,
      "inputs": [
        {
          "indexed": true,
          "internalType": "address",
          "name": "owner",
          "type": "address"
        },
        {
          "indexed": true,
          "internalType": "address",
          "name": "approved",
          "type": "address"
        },
        {
          "indexed": true,
          "internalType": "uint256",
          "name": "tokenId",
          "type": "uint256"
        }
      ],
      "name": "Approval",
      "type": "event"
    },
    {
      "anonymous": false,
      "inputs": [
        {
          "indexed": true,
          "internalType": "address",
          "name": "owner",
          "type": "address"
        },
        {
          "indexed": true,
          "internalType": "address",
          "name": "operator",
          "type": "address"
        },
        {
          "indexed": false,
          "internalType": "bool",
          "name": "approved",
          "type": "bool"
        }
      ],
      "name": "ApprovalForAll",
      "type": "event"
    },
    {
      "anonymous": false,
      "inputs": [
        {
          "indexed": true,
          "internalType": "address",
          "name": "previousOwner",
          "type": "address"
        },
        {
          "indexed": true,
          "internalType": "address",
          "name": "newOwner",
          "type": "address"
        }
      ],
      "name": "OwnershipTransferred",
      "type": "event"
    },
    {
      "anonymous": false,
      "inputs": [
        {
          "indexed": true,
          "internalType": "address",
          "name": "from",
          "type": "address"
        },
        {
          "indexed": true,
          "internalType": "address",
          "name": "to",
          "type": "address"
        },
        {
          "indexed": true,
          "internalType": "uint256",
          "name": "tokenId",
          "type": "uint256"
        }
      ],
      "name": "Transfer",
      "type": "event"
    },
    {
      "anonymous": false,
      "inputs": [
        {
          "indexed": false,
          "internalType": "uint256",
          "name": "tokenId",
          "type": "uint256"
        }
      ],
      "name": "tokenMint",
      "type": "event"
    },
    {
      "inputs": [
        {
          "internalType": "address",
          "name": "to",
          "type": "address"
        },
        {
          "internalType": "uint256",
          "name": "tokenId",
          "type": "uint256"
        }
      ],
      "name": "approve",
      "outputs": [],
      "stateMutability": "nonpayable",
      "type": "function"
    },
    {
      "inputs": [
        {
          "internalType": "address",
          "name": "owner",
          "type": "address"
        }
      ],
      "name": "balanceOf",
      "outputs": [
        {
          "internalType": "uint256",
          "name": "",
          "type": "uint256"
        }
      ],
      "stateMutability": "view",
      "type": "function",
      "constant": true
    },
    {
      "inputs": [
        {
          "internalType": "uint256",
          "name": "tokenId",
          "type": "uint256"
        }
      ],
      "name": "getApproved",
      "outputs": [
        {
          "internalType": "address",
          "name": "",
          "type": "address"
        }
      ],
      "stateMutability": "view",
      "type": "function",
      "constant": true
    },
    {
      "inputs": [
        {
          "internalType": "address",
          "name": "owner",
          "type": "address"
        },
        {
          "internalType": "address",
          "name": "operator",
          "type": "address"
        }
      ],
      "name": "isApprovedForAll",
      "outputs": [
        {
          "internalType": "bool",
          "name": "",
          "type": "bool"
        }
      ],
      "stateMutability": "view",
      "type": "function",
      "constant": true
    },
    {
      "inputs": [],
      "name": "name",
      "outputs": [
        {
          "internalType": "string",
          "name": "",
          "type": "string"
        }
      ],
      "stateMutability": "view",
      "type": "function",
      "constant": true
    },
    {
      "inputs": [
        {
          "internalType": "address",
          "name": "",
          "type": "address"
        },
        {
          "internalType": "address",
          "name": "",
          "type": "address"
        },
        {
          "internalType": "uint256",
          "name": "",
          "type": "uint256"
        },
        {
          "internalType": "bytes",
          "name": "",
          "type": "bytes"
        }
      ],
      "name": "onERC721Received",
      "outputs": [
        {
          "internalType": "bytes4",
          "name": "",
          "type": "bytes4"
        }
      ],
      "stateMutability": "nonpayable",
      "type": "function"
    },
    {
      "inputs": [],
      "name": "owner",
      "outputs": [
        {
          "internalType": "address",
          "name": "",
          "type": "address"
        }
      ],
      "stateMutability": "view",
      "type": "function",
      "constant": true
    },
    {
      "inputs": [
        {
          "internalType": "uint256",
          "name": "tokenId",
          "type": "uint256"
        }
      ],
      "name": "ownerOf",
      "outputs": [
        {
          "internalType": "address",
          "name": "",
          "type": "address"
        }
      ],
      "stateMutability": "view",
      "type": "function",
      "constant": true
    },
    {
      "inputs": [],
      "name": "renounceOwnership",
      "outputs": [],
      "stateMutability": "nonpayable",
      "type": "function"
    },
    {
      "inputs": [
        {
          "internalType": "address",
          "name": "from",
          "type": "address"
        },
        {
          "internalType": "address",
          "name": "to",
          "type": "address"
        },
        {
          "internalType": "uint256",
          "name": "tokenId",
          "type": "uint256"
        }
      ],
      "name": "safeTransferFrom",
      "outputs": [],
      "stateMutability": "nonpayable",
      "type": "function"
    },
    {
      "inputs": [
        {
          "internalType": "address",
          "name": "from",
          "type": "address"
        },
        {
          "internalType": "address",
          "name": "to",
          "type": "address"
        },
        {
          "internalType": "uint256",
          "name": "tokenId",
          "type": "uint256"
        },
        {
          "internalType": "bytes",
          "name": "_data",
          "type": "bytes"
        }
      ],
      "name": "safeTransferFrom",
      "outputs": [],
      "stateMutability": "nonpayable",
      "type": "function"
    },
    {
      "inputs": [
        {
          "internalType": "address",
          "name": "operator",
          "type": "address"
        },
        {
          "internalType": "bool",
          "name": "approved",
          "type": "bool"
        }
      ],
      "name": "setApprovalForAll",
      "outputs": [],
      "stateMutability": "nonpayable",
      "type": "function"
    },
    {
      "inputs": [],
      "name": "symbol",
      "outputs": [
        {
          "internalType": "string",
          "name": "",
          "type": "string"
        }
      ],
      "stateMutability": "view",
      "type": "function",
      "constant": true
    },
    {
      "inputs": [
        {
          "internalType": "uint256",
          "name": "index",
          "type": "uint256"
        }
      ],
      "name": "tokenByIndex",
      "outputs": [
        {
          "internalType": "uint256",
          "name": "",
          "type": "uint256"
        }
      ],
      "stateMutability": "view",
      "type": "function",
      "constant": true
    },
    {
      "inputs": [
        {
          "internalType": "address",
          "name": "owner",
          "type": "address"
        },
        {
          "internalType": "uint256",
          "name": "index",
          "type": "uint256"
        }
      ],
      "name": "tokenOfOwnerByIndex",
      "outputs": [
        {
          "internalType": "uint256",
          "name": "",
          "type": "uint256"
        }
      ],
      "stateMutability": "view",
      "type": "function",
      "constant": true
    },
    {
      "inputs": [],
      "name": "totalSupply",
      "outputs": [
        {
          "internalType": "uint256",
          "name": "",
          "type": "uint256"
        }
      ],
      "stateMutability": "view",
      "type": "function",
      "constant": true
    },
    {
      "inputs": [
        {
          "internalType": "address",
          "name": "from",
          "type": "address"
        },
        {
          "internalType": "address",
          "name": "to",
          "type": "address"
        },
        {
          "internalType": "uint256",
          "name": "tokenId",
          "type": "uint256"
        }
      ],
      "name": "transferFrom",
      "outputs": [],
      "stateMutability": "nonpayable",
      "type": "function"
    },
    {
      "inputs": [
        {
          "internalType": "address",
          "name": "newOwner",
          "type": "address"
        }
      ],
      "name": "transferOwnership",
      "outputs": [],
      "stateMutability": "nonpayable",
      "type": "function"
    },
    {
      "inputs": [
        {
          "internalType": "string",
          "name": "hash",
          "type": "string"
        },
        {
          "internalType": "string",
          "name": "metadata",
          "type": "string"
        }
      ],
      "name": "mint",
      "outputs": [
        {
          "internalType": "uint256",
          "name": "tokenId",
          "type": "uint256"
        }
      ],
      "stateMutability": "nonpayable",
      "type": "function"
    },
    {
      "inputs": [
        {
          "internalType": "uint256",
          "name": "_tokenId",
          "type": "uint256"
        }
      ],
      "name": "getNftText",
      "outputs": [
        {
          "internalType": "string",
          "name": "",
          "type": "string"
        }
      ],
      "stateMutability": "view",
      "type": "function",
      "constant": true
    },
    {
      "inputs": [],
      "name": "getOwnedNfts",
      "outputs": [
        {
          "internalType": "uint256[]",
          "name": "",
          "type": "uint256[]"
        }
      ],
      "stateMutability": "view",
      "type": "function",
      "constant": true
    },
    {
      "inputs": [],
      "name": "getLastTokenId",
      "outputs": [
        {
          "internalType": "uint256",
          "name": "",
          "type": "uint256"
        }
      ],
      "stateMutability": "view",
      "type": "function",
      "constant": true
    },
    {
      "inputs": [
        {
          "internalType": "address",
          "name": "to",
          "type": "address"
        },
        {
          "internalType": "uint256",
          "name": "tokenId",
          "type": "uint256"
        }
      ],
      "name": "sendNft",
      "outputs": [],
      "stateMutability": "nonpayable",
      "type": "function"
    },
    {
      "inputs": [
        {
          "internalType": "bytes4",
          "name": "interfaceId",
          "type": "bytes4"
        }
      ],
      "name": "supportsInterface",
      "outputs": [
        {
          "internalType": "bool",
          "name": "",
          "type": "bool"
        }
      ],
      "stateMutability": "view",
      "type": "function",
      "constant": true
    },
    {
      "inputs": [
        {
          "internalType": "uint256",
          "name": "tokenId",
          "type": "uint256"
        }
      ],
      "name": "tokenURI",
      "outputs": [
        {
          "internalType": "string",
          "name": "",
          "type": "string"
        }
      ],
      "stateMutability": "view",
      "type": "function",
      "constant": true
    }
  ],
  "bytecode": "0x60806040523480156200001157600080fd5b506040518060400160405280600a81526020017f5075746f20546f6b656e000000000000000000000000000000000000000000008152506040518060400160405280600381526020017f50545400000000000000000000000000000000000000000000000000000000008152506200009e62000092620000d860201b60201c565b620000e060201b60201c565b8160019080519060200190620000b6929190620001a4565b508060029080519060200190620000cf929190620001a4565b505050620002b8565b600033905090565b60008060009054906101000a900473ffffffffffffffffffffffffffffffffffffffff169050816000806101000a81548173ffffffffffffffffffffffffffffffffffffffff021916908373ffffffffffffffffffffffffffffffffffffffff1602179055508173ffffffffffffffffffffffffffffffffffffffff168173ffffffffffffffffffffffffffffffffffffffff167f8be0079c531659141344cd1fd0a4f28419497f9722a3daafe3b4186f6b6457e060405160405180910390a35050565b828054620001b29062000283565b90600052602060002090601f016020900481019282620001d6576000855562000222565b82601f10620001f157805160ff191683800117855562000222565b8280016001018555821562000222579182015b828111156200022157825182559160200191906001019062000204565b5b50905062000231919062000235565b5090565b5b808211156200025057600081600090555060010162000236565b5090565b7f4e487b7100000000000000000000000000000000000000000000000000000000600052602260045260246000fd5b600060028204905060018216806200029c57607f821691505b602082108103620002b257620002b162000254565b5b50919050565b613e9b80620002c86000396000f3fe608060405234801561001057600080fd5b50600436106101735760003560e01c806370a08231116100de57806395d89b4111610097578063c87b56dd11610071578063c87b56dd1461045e578063e985e9c51461048e578063f2fde38b146104be578063fcf36851146104da57610173565b806395d89b4114610408578063a22cb46514610426578063b88d4fde1461044257610173565b806370a082311461034457806370cbcb4314610374578063715018a61461039257806383c4c00d1461039c5780638aa0fdad146103ba5780638da5cb5b146103ea57610173565b806318160ddd1161013057806318160ddd1461025e57806323b872dd1461027c5780632f745c591461029857806342842e0e146102c85780634f6ccce7146102e45780636352211e1461031457610173565b806301ffc9a71461017857806306fdde03146101a8578063081812fc146101c6578063095ea7b3146101f65780630f15683714610212578063150b7a021461022e575b600080fd5b610192600480360381019061018d9190612871565b61050a565b60405161019f91906128b9565b60405180910390f35b6101b061051c565b6040516101bd919061296d565b60405180910390f35b6101e060048036038101906101db91906129c5565b6105ae565b6040516101ed9190612a33565b60405180910390f35b610210600480360381019061020b9190612a7a565b610633565b005b61022c60048036038101906102279190612a7a565b61074a565b005b61024860048036038101906102439190612bef565b6108d0565b6040516102559190612c81565b60405180910390f35b6102666108e4565b6040516102739190612cab565b60405180910390f35b61029660048036038101906102919190612cc6565b6108f1565b005b6102b260048036038101906102ad9190612a7a565b610951565b6040516102bf9190612cab565b60405180910390f35b6102e260048036038101906102dd9190612cc6565b6109f6565b005b6102fe60048036038101906102f991906129c5565b610a16565b60405161030b9190612cab565b60405180910390f35b61032e600480360381019061032991906129c5565b610a87565b60405161033b9190612a33565b60405180910390f35b61035e60048036038101906103599190612d19565b610b38565b60405161036b9190612cab565b60405180910390f35b61037c610bef565b6040516103899190612e04565b60405180910390f35b61039a610ca1565b005b6103a4610d29565b6040516103b19190612cab565b60405180910390f35b6103d460048036038101906103cf9190612ec7565b610d3a565b6040516103e19190612cab565b60405180910390f35b6103f2610ef4565b6040516103ff9190612a33565b60405180910390f35b610410610f1d565b60405161041d919061296d565b60405180910390f35b610440600480360381019061043b9190612f6b565b610faf565b005b61045c60048036038101906104579190612bef565b61112f565b005b610478600480360381019061047391906129c5565b611191565b604051610485919061296d565b60405180910390f35b6104a860048036038101906104a39190612fab565b6111a3565b6040516104b591906128b9565b60405180910390f35b6104d860048036038101906104d39190612d19565b611237565b005b6104f460048036038101906104ef91906129c5565b61132e565b604051610501919061296d565b60405180910390f35b6000610515826113d6565b9050919050565b60606001805461052b9061301a565b80601f01602080910402602001604051908101604052809291908181526020018280546105579061301a565b80156105a45780601f10610579576101008083540402835291602001916105a4565b820191906000526020600020905b81548152906001019060200180831161058757829003601f168201915b5050505050905090565b60006105b982611450565b6105f8576040517f08c379a00000000000000000000000000000000000000000000000000000000081526004016105ef906130bd565b60405180910390fd5b6005600083815260200190815260200160002060009054906101000a900473ffffffffffffffffffffffffffffffffffffffff169050919050565b600061063e82610a87565b90508073ffffffffffffffffffffffffffffffffffffffff168373ffffffffffffffffffffffffffffffffffffffff16036106ae576040517f08c379a00000000000000000000000000000000000000000000000000000000081526004016106a59061314f565b60405180910390fd5b8073ffffffffffffffffffffffffffffffffffffffff166106cd6114bc565b73ffffffffffffffffffffffffffffffffffffffff1614806106fc57506106fb816106f66114bc565b6111a3565b5b61073b576040517f08c379a0000000000000000000000000000000000000000000000000000000008152600401610732906131e1565b60405180910390fd5b61074583836114c4565b505050565b3373ffffffffffffffffffffffffffffffffffffffff1661076a82610a87565b73ffffffffffffffffffffffffffffffffffffffff161461078a57600080fd5b6107dd6001600e60003373ffffffffffffffffffffffffffffffffffffffff1673ffffffffffffffffffffffffffffffffffffffff1681526020019081526020016000205461157d90919063ffffffff16565b600e60003373ffffffffffffffffffffffffffffffffffffffff1673ffffffffffffffffffffffffffffffffffffffff168152602001908152602001600020819055506108736001600e60008573ffffffffffffffffffffffffffffffffffffffff1673ffffffffffffffffffffffffffffffffffffffff1681526020019081526020016000205461159390919063ffffffff16565b600e60008473ffffffffffffffffffffffffffffffffffffffff1673ffffffffffffffffffffffffffffffffffffffff168152602001908152602001600020819055506108c13383836115a9565b6108cc3383836108f1565b5050565b600063150b7a0260e01b9050949350505050565b6000600980549050905090565b6109026108fc6114bc565b826115b9565b610941576040517f08c379a000000000000000000000000000000000000000000000000000000000815260040161093890613273565b60405180910390fd5b61094c838383611697565b505050565b600061095c83610b38565b821061099d576040517f08c379a000000000000000000000000000000000000000000000000000000000815260040161099490613305565b60405180910390fd5b600760008473ffffffffffffffffffffffffffffffffffffffff1673ffffffffffffffffffffffffffffffffffffffff168152602001908152602001600020600083815260200190815260200160002054905092915050565b610a118383836040518060200160405280600081525061112f565b505050565b6000610a206108e4565b8210610a61576040517f08c379a0000000000000000000000000000000000000000000000000000000008152600401610a5890613397565b60405180910390fd5b60098281548110610a7557610a746133b7565b5b90600052602060002001549050919050565b6000806003600084815260200190815260200160002060009054906101000a900473ffffffffffffffffffffffffffffffffffffffff169050600073ffffffffffffffffffffffffffffffffffffffff168173ffffffffffffffffffffffffffffffffffffffff1603610b2f576040517f08c379a0000000000000000000000000000000000000000000000000000000008152600401610b2690613458565b60405180910390fd5b80915050919050565b60008073ffffffffffffffffffffffffffffffffffffffff168273ffffffffffffffffffffffffffffffffffffffff1603610ba8576040517f08c379a0000000000000000000000000000000000000000000000000000000008152600401610b9f906134ea565b60405180910390fd5b600460008373ffffffffffffffffffffffffffffffffffffffff1673ffffffffffffffffffffffffffffffffffffffff168152602001908152602001600020549050919050565b60606000610bfc33610b38565b905060008167ffffffffffffffff811115610c1a57610c19612ac4565b5b604051908082528060200260200182016040528015610c485781602001602082028036833780820191505090505b50905060005b82811015610c98576000610c623383610951565b905080838381518110610c7857610c776133b7565b5b602002602001018181525050508080610c9090613539565b915050610c4e565b50809250505090565b610ca96114bc565b73ffffffffffffffffffffffffffffffffffffffff16610cc7610ef4565b73ffffffffffffffffffffffffffffffffffffffff1614610d1d576040517f08c379a0000000000000000000000000000000000000000000000000000000008152600401610d14906135cd565b60405180910390fd5b610d2760006118f2565b565b6000610d35600c6119b6565b905090565b60006001600f84604051610d4e9190613629565b908152602001604051809103902060009054906101000a900460ff1660ff1603610d7757600080fd5b610d81600c6119c4565b6000610d8d600c6119b6565b90506001600f85604051610da19190613629565b908152602001604051809103902060006101000a81548160ff021916908360ff160217905550610e1a6001600e60003373ffffffffffffffffffffffffffffffffffffffff1673ffffffffffffffffffffffffffffffffffffffff1681526020019081526020016000205461159390919063ffffffff16565b600e60003373ffffffffffffffffffffffffffffffffffffffff1673ffffffffffffffffffffffffffffffffffffffff16815260200190815260200160002081905550604051806020016040528084815250600d60008381526020019081526020016000206000820151816000019080519060200190610e9b929190612762565b50905050610ea933826119da565b610eb381846119f8565b7f306c9697ef0cafc80c79e10f0ddb896e2164892c09af84cf16eb61c0c28eb56d81604051610ee29190612cab565b60405180910390a18091505092915050565b60008060009054906101000a900473ffffffffffffffffffffffffffffffffffffffff16905090565b606060028054610f2c9061301a565b80601f0160208091040260200160405190810160405280929190818152602001828054610f589061301a565b8015610fa55780601f10610f7a57610100808354040283529160200191610fa5565b820191906000526020600020905b815481529060010190602001808311610f8857829003601f168201915b5050505050905090565b610fb76114bc565b73ffffffffffffffffffffffffffffffffffffffff168273ffffffffffffffffffffffffffffffffffffffff1603611024576040517f08c379a000000000000000000000000000000000000000000000000000000000815260040161101b9061368c565b60405180910390fd5b80600660006110316114bc565b73ffffffffffffffffffffffffffffffffffffffff1673ffffffffffffffffffffffffffffffffffffffff16815260200190815260200160002060008473ffffffffffffffffffffffffffffffffffffffff1673ffffffffffffffffffffffffffffffffffffffff16815260200190815260200160002060006101000a81548160ff0219169083151502179055508173ffffffffffffffffffffffffffffffffffffffff166110de6114bc565b73ffffffffffffffffffffffffffffffffffffffff167f17307eab39ab6107e8899845ad3d59bd9653f200f220920489ca2b5937696c318360405161112391906128b9565b60405180910390a35050565b61114061113a6114bc565b836115b9565b61117f576040517f08c379a000000000000000000000000000000000000000000000000000000000815260040161117690613273565b60405180910390fd5b61118b84848484611a6c565b50505050565b606061119c82611ac8565b9050919050565b6000600660008473ffffffffffffffffffffffffffffffffffffffff1673ffffffffffffffffffffffffffffffffffffffff16815260200190815260200160002060008373ffffffffffffffffffffffffffffffffffffffff1673ffffffffffffffffffffffffffffffffffffffff16815260200190815260200160002060009054906101000a900460ff16905092915050565b61123f6114bc565b73ffffffffffffffffffffffffffffffffffffffff1661125d610ef4565b73ffffffffffffffffffffffffffffffffffffffff16146112b3576040517f08c379a00000000000000000000000000000000000000000000000000000000081526004016112aa906135cd565b60405180910390fd5b600073ffffffffffffffffffffffffffffffffffffffff168173ffffffffffffffffffffffffffffffffffffffff1603611322576040517f08c379a00000000000000000000000000000000000000000000000000000000081526004016113199061371e565b60405180910390fd5b61132b816118f2565b50565b6060600d600083815260200190815260200160002060000180546113519061301a565b80601f016020809104026020016040519081016040528092919081815260200182805461137d9061301a565b80156113ca5780601f1061139f576101008083540402835291602001916113ca565b820191906000526020600020905b8154815290600101906020018083116113ad57829003601f168201915b50505050509050919050565b60007f780e9d63000000000000000000000000000000000000000000000000000000007bffffffffffffffffffffffffffffffffffffffffffffffffffffffff1916827bffffffffffffffffffffffffffffffffffffffffffffffffffffffff19161480611449575061144882611c19565b5b9050919050565b60008073ffffffffffffffffffffffffffffffffffffffff166003600084815260200190815260200160002060009054906101000a900473ffffffffffffffffffffffffffffffffffffffff1673ffffffffffffffffffffffffffffffffffffffff1614159050919050565b600033905090565b816005600083815260200190815260200160002060006101000a81548173ffffffffffffffffffffffffffffffffffffffff021916908373ffffffffffffffffffffffffffffffffffffffff160217905550808273ffffffffffffffffffffffffffffffffffffffff1661153783610a87565b73ffffffffffffffffffffffffffffffffffffffff167f8c5be1e5ebec7d5bd14f71427d1e84f3dd0314c0f7b2291e5b200ac8c7c3b92560405160405180910390a45050565b6000818361158b919061373e565b905092915050565b600081836115a19190613772565b905092915050565b6115b4838383611cfb565b505050565b60006115c482611450565b611603576040517f08c379a00000000000000000000000000000000000000000000000000000000081526004016115fa9061383a565b60405180910390fd5b600061160e83610a87565b90508073ffffffffffffffffffffffffffffffffffffffff168473ffffffffffffffffffffffffffffffffffffffff16148061167d57508373ffffffffffffffffffffffffffffffffffffffff16611665846105ae565b73ffffffffffffffffffffffffffffffffffffffff16145b8061168e575061168d81856111a3565b5b91505092915050565b8273ffffffffffffffffffffffffffffffffffffffff166116b782610a87565b73ffffffffffffffffffffffffffffffffffffffff161461170d576040517f08c379a0000000000000000000000000000000000000000000000000000000008152600401611704906138cc565b60405180910390fd5b600073ffffffffffffffffffffffffffffffffffffffff168273ffffffffffffffffffffffffffffffffffffffff160361177c576040517f08c379a00000000000000000000000000000000000000000000000000000000081526004016117739061395e565b60405180910390fd5b6117878383836115a9565b6117926000826114c4565b6001600460008573ffffffffffffffffffffffffffffffffffffffff1673ffffffffffffffffffffffffffffffffffffffff16815260200190815260200160002060008282546117e2919061373e565b925050819055506001600460008473ffffffffffffffffffffffffffffffffffffffff1673ffffffffffffffffffffffffffffffffffffffff16815260200190815260200160002060008282546118399190613772565b92505081905550816003600083815260200190815260200160002060006101000a81548173ffffffffffffffffffffffffffffffffffffffff021916908373ffffffffffffffffffffffffffffffffffffffff160217905550808273ffffffffffffffffffffffffffffffffffffffff168473ffffffffffffffffffffffffffffffffffffffff167fddf252ad1be2c89b69c2b068fc378daa952ba7f163c4a11628f55a4df523b3ef60405160405180910390a4505050565b60008060009054906101000a900473ffffffffffffffffffffffffffffffffffffffff169050816000806101000a81548173ffffffffffffffffffffffffffffffffffffffff021916908373ffffffffffffffffffffffffffffffffffffffff1602179055508173ffffffffffffffffffffffffffffffffffffffff168173ffffffffffffffffffffffffffffffffffffffff167f8be0079c531659141344cd1fd0a4f28419497f9722a3daafe3b4186f6b6457e060405160405180910390a35050565b600081600001549050919050565b6001816000016000828254019250508190555050565b6119f4828260405180602001604052806000815250611e0d565b5050565b611a0182611450565b611a40576040517f08c379a0000000000000000000000000000000000000000000000000000000008152600401611a37906139f0565b60405180910390fd5b80600b60008481526020019081526020016000209080519060200190611a67929190612762565b505050565b611a77848484611697565b611a8384848484611e68565b611ac2576040517f08c379a0000000000000000000000000000000000000000000000000000000008152600401611ab990613a82565b60405180910390fd5b50505050565b6060611ad382611450565b611b12576040517f08c379a0000000000000000000000000000000000000000000000000000000008152600401611b0990613b14565b60405180910390fd5b6000600b60008481526020019081526020016000208054611b329061301a565b80601f0160208091040260200160405190810160405280929190818152602001828054611b5e9061301a565b8015611bab5780601f10611b8057610100808354040283529160200191611bab565b820191906000526020600020905b815481529060010190602001808311611b8e57829003601f168201915b505050505090506000611bbc611fef565b90506000815103611bd1578192505050611c14565b600082511115611c06578082604051602001611bee929190613b34565b60405160208183030381529060405292505050611c14565b611c0f84612006565b925050505b919050565b60007f80ac58cd000000000000000000000000000000000000000000000000000000007bffffffffffffffffffffffffffffffffffffffffffffffffffffffff1916827bffffffffffffffffffffffffffffffffffffffffffffffffffffffff19161480611ce457507f5b5e139f000000000000000000000000000000000000000000000000000000007bffffffffffffffffffffffffffffffffffffffffffffffffffffffff1916827bffffffffffffffffffffffffffffffffffffffffffffffffffffffff1916145b80611cf45750611cf3826120ad565b5b9050919050565b611d06838383612117565b600073ffffffffffffffffffffffffffffffffffffffff168373ffffffffffffffffffffffffffffffffffffffff1603611d4857611d438161211c565b611d87565b8173ffffffffffffffffffffffffffffffffffffffff168373ffffffffffffffffffffffffffffffffffffffff1614611d8657611d858382612165565b5b5b600073ffffffffffffffffffffffffffffffffffffffff168273ffffffffffffffffffffffffffffffffffffffff1603611dc957611dc4816122d2565b611e08565b8273ffffffffffffffffffffffffffffffffffffffff168273ffffffffffffffffffffffffffffffffffffffff1614611e0757611e0682826123a3565b5b5b505050565b611e178383612422565b611e246000848484611e68565b611e63576040517f08c379a0000000000000000000000000000000000000000000000000000000008152600401611e5a90613a82565b60405180910390fd5b505050565b6000611e898473ffffffffffffffffffffffffffffffffffffffff166125ef565b15611fe2578373ffffffffffffffffffffffffffffffffffffffff1663150b7a02611eb26114bc565b8786866040518563ffffffff1660e01b8152600401611ed49493929190613bad565b6020604051808303816000875af1925050508015611f1057506040513d601f19601f82011682018060405250810190611f0d9190613c0e565b60015b611f92573d8060008114611f40576040519150601f19603f3d011682016040523d82523d6000602084013e611f45565b606091505b506000815103611f8a576040517f08c379a0000000000000000000000000000000000000000000000000000000008152600401611f8190613a82565b60405180910390fd5b805181602001fd5b63150b7a0260e01b7bffffffffffffffffffffffffffffffffffffffffffffffffffffffff1916817bffffffffffffffffffffffffffffffffffffffffffffffffffffffff191614915050611fe7565b600190505b949350505050565b606060405180602001604052806000815250905090565b606061201182611450565b612050576040517f08c379a000000000000000000000000000000000000000000000000000000000815260040161204790613cad565b60405180910390fd5b600061205a611fef565b9050600081511161207a57604051806020016040528060008152506120a5565b8061208484612602565b604051602001612095929190613b34565b6040516020818303038152906040525b915050919050565b60007f01ffc9a7000000000000000000000000000000000000000000000000000000007bffffffffffffffffffffffffffffffffffffffffffffffffffffffff1916827bffffffffffffffffffffffffffffffffffffffffffffffffffffffff1916149050919050565b505050565b600980549050600a600083815260200190815260200160002081905550600981908060018154018082558091505060019003906000526020600020016000909190919091505550565b6000600161217284610b38565b61217c919061373e565b9050600060086000848152602001908152602001600020549050818114612261576000600760008673ffffffffffffffffffffffffffffffffffffffff1673ffffffffffffffffffffffffffffffffffffffff168152602001908152602001600020600084815260200190815260200160002054905080600760008773ffffffffffffffffffffffffffffffffffffffff1673ffffffffffffffffffffffffffffffffffffffff168152602001908152602001600020600084815260200190815260200160002081905550816008600083815260200190815260200160002081905550505b6008600084815260200190815260200160002060009055600760008573ffffffffffffffffffffffffffffffffffffffff1673ffffffffffffffffffffffffffffffffffffffff16815260200190815260200160002060008381526020019081526020016000206000905550505050565b600060016009805490506122e6919061373e565b90506000600a6000848152602001908152602001600020549050600060098381548110612316576123156133b7565b5b906000526020600020015490508060098381548110612338576123376133b7565b5b906000526020600020018190555081600a600083815260200190815260200160002081905550600a600085815260200190815260200160002060009055600980548061238757612386613ccd565b5b6001900381819060005260206000200160009055905550505050565b60006123ae83610b38565b905081600760008573ffffffffffffffffffffffffffffffffffffffff1673ffffffffffffffffffffffffffffffffffffffff168152602001908152602001600020600083815260200190815260200160002081905550806008600084815260200190815260200160002081905550505050565b600073ffffffffffffffffffffffffffffffffffffffff168273ffffffffffffffffffffffffffffffffffffffff1603612491576040517f08c379a000000000000000000000000000000000000000000000000000000000815260040161248890613d48565b60405180910390fd5b61249a81611450565b156124da576040517f08c379a00000000000000000000000000000000000000000000000000000000081526004016124d190613db4565b60405180910390fd5b6124e6600083836115a9565b6001600460008473ffffffffffffffffffffffffffffffffffffffff1673ffffffffffffffffffffffffffffffffffffffff16815260200190815260200160002060008282546125369190613772565b92505081905550816003600083815260200190815260200160002060006101000a81548173ffffffffffffffffffffffffffffffffffffffff021916908373ffffffffffffffffffffffffffffffffffffffff160217905550808273ffffffffffffffffffffffffffffffffffffffff16600073ffffffffffffffffffffffffffffffffffffffff167fddf252ad1be2c89b69c2b068fc378daa952ba7f163c4a11628f55a4df523b3ef60405160405180910390a45050565b600080823b905060008111915050919050565b606060008203612649576040518060400160405280600181526020017f3000000000000000000000000000000000000000000000000000000000000000815250905061275d565b600082905060005b6000821461267b57808061266490613539565b915050600a826126749190613e03565b9150612651565b60008167ffffffffffffffff81111561269757612696612ac4565b5b6040519080825280601f01601f1916602001820160405280156126c95781602001600182028036833780820191505090505b5090505b60008514612756576001826126e2919061373e565b9150600a856126f19190613e34565b60306126fd9190613772565b60f81b818381518110612713576127126133b7565b5b60200101907effffffffffffffffffffffffffffffffffffffffffffffffffffffffffffff1916908160001a905350600a8561274f9190613e03565b94506126cd565b8093505050505b919050565b82805461276e9061301a565b90600052602060002090601f01602090048101928261279057600085556127d7565b82601f106127a957805160ff19168380011785556127d7565b828001600101855582156127d7579182015b828111156127d65782518255916020019190600101906127bb565b5b5090506127e491906127e8565b5090565b5b808211156128015760008160009055506001016127e9565b5090565b6000604051905090565b600080fd5b600080fd5b60007fffffffff0000000000000000000000000000000000000000000000000000000082169050919050565b61284e81612819565b811461285957600080fd5b50565b60008135905061286b81612845565b92915050565b6000602082840312156128875761288661280f565b5b60006128958482850161285c565b91505092915050565b60008115159050919050565b6128b38161289e565b82525050565b60006020820190506128ce60008301846128aa565b92915050565b600081519050919050565b600082825260208201905092915050565b60005b8381101561290e5780820151818401526020810190506128f3565b8381111561291d576000848401525b50505050565b6000601f19601f8301169050919050565b600061293f826128d4565b61294981856128df565b93506129598185602086016128f0565b61296281612923565b840191505092915050565b600060208201905081810360008301526129878184612934565b905092915050565b6000819050919050565b6129a28161298f565b81146129ad57600080fd5b50565b6000813590506129bf81612999565b92915050565b6000602082840312156129db576129da61280f565b5b60006129e9848285016129b0565b91505092915050565b600073ffffffffffffffffffffffffffffffffffffffff82169050919050565b6000612a1d826129f2565b9050919050565b612a2d81612a12565b82525050565b6000602082019050612a486000830184612a24565b92915050565b612a5781612a12565b8114612a6257600080fd5b50565b600081359050612a7481612a4e565b92915050565b60008060408385031215612a9157612a9061280f565b5b6000612a9f85828601612a65565b9250506020612ab0858286016129b0565b9150509250929050565b600080fd5b600080fd5b7f4e487b7100000000000000000000000000000000000000000000000000000000600052604160045260246000fd5b612afc82612923565b810181811067ffffffffffffffff82111715612b1b57612b1a612ac4565b5b80604052505050565b6000612b2e612805565b9050612b3a8282612af3565b919050565b600067ffffffffffffffff821115612b5a57612b59612ac4565b5b612b6382612923565b9050602081019050919050565b82818337600083830152505050565b6000612b92612b8d84612b3f565b612b24565b905082815260208101848484011115612bae57612bad612abf565b5b612bb9848285612b70565b509392505050565b600082601f830112612bd657612bd5612aba565b5b8135612be6848260208601612b7f565b91505092915050565b60008060008060808587031215612c0957612c0861280f565b5b6000612c1787828801612a65565b9450506020612c2887828801612a65565b9350506040612c39878288016129b0565b925050606085013567ffffffffffffffff811115612c5a57612c59612814565b5b612c6687828801612bc1565b91505092959194509250565b612c7b81612819565b82525050565b6000602082019050612c966000830184612c72565b92915050565b612ca58161298f565b82525050565b6000602082019050612cc06000830184612c9c565b92915050565b600080600060608486031215612cdf57612cde61280f565b5b6000612ced86828701612a65565b9350506020612cfe86828701612a65565b9250506040612d0f868287016129b0565b9150509250925092565b600060208284031215612d2f57612d2e61280f565b5b6000612d3d84828501612a65565b91505092915050565b600081519050919050565b600082825260208201905092915050565b6000819050602082019050919050565b612d7b8161298f565b82525050565b6000612d8d8383612d72565b60208301905092915050565b6000602082019050919050565b6000612db182612d46565b612dbb8185612d51565b9350612dc683612d62565b8060005b83811015612df7578151612dde8882612d81565b9750612de983612d99565b925050600181019050612dca565b5085935050505092915050565b60006020820190508181036000830152612e1e8184612da6565b905092915050565b600067ffffffffffffffff821115612e4157612e40612ac4565b5b612e4a82612923565b9050602081019050919050565b6000612e6a612e6584612e26565b612b24565b905082815260208101848484011115612e8657612e85612abf565b5b612e91848285612b70565b509392505050565b600082601f830112612eae57612ead612aba565b5b8135612ebe848260208601612e57565b91505092915050565b60008060408385031215612ede57612edd61280f565b5b600083013567ffffffffffffffff811115612efc57612efb612814565b5b612f0885828601612e99565b925050602083013567ffffffffffffffff811115612f2957612f28612814565b5b612f3585828601612e99565b9150509250929050565b612f488161289e565b8114612f5357600080fd5b50565b600081359050612f6581612f3f565b92915050565b60008060408385031215612f8257612f8161280f565b5b6000612f9085828601612a65565b9250506020612fa185828601612f56565b9150509250929050565b60008060408385031215612fc257612fc161280f565b5b6000612fd085828601612a65565b9250506020612fe185828601612a65565b9150509250929050565b7f4e487b7100000000000000000000000000000000000000000000000000000000600052602260045260246000fd5b6000600282049050600182168061303257607f821691505b60208210810361304557613044612feb565b5b50919050565b7f4552433732313a20617070726f76656420717565727920666f72206e6f6e657860008201527f697374656e7420746f6b656e0000000000000000000000000000000000000000602082015250565b60006130a7602c836128df565b91506130b28261304b565b604082019050919050565b600060208201905081810360008301526130d68161309a565b9050919050565b7f4552433732313a20617070726f76616c20746f2063757272656e74206f776e6560008201527f7200000000000000000000000000000000000000000000000000000000000000602082015250565b60006131396021836128df565b9150613144826130dd565b604082019050919050565b600060208201905081810360008301526131688161312c565b9050919050565b7f4552433732313a20617070726f76652063616c6c6572206973206e6f74206f7760008201527f6e6572206e6f7220617070726f76656420666f7220616c6c0000000000000000602082015250565b60006131cb6038836128df565b91506131d68261316f565b604082019050919050565b600060208201905081810360008301526131fa816131be565b9050919050565b7f4552433732313a207472616e736665722063616c6c6572206973206e6f74206f60008201527f776e6572206e6f7220617070726f766564000000000000000000000000000000602082015250565b600061325d6031836128df565b915061326882613201565b604082019050919050565b6000602082019050818103600083015261328c81613250565b9050919050565b7f455243373231456e756d657261626c653a206f776e657220696e646578206f7560008201527f74206f6620626f756e6473000000000000000000000000000000000000000000602082015250565b60006132ef602b836128df565b91506132fa82613293565b604082019050919050565b6000602082019050818103600083015261331e816132e2565b9050919050565b7f455243373231456e756d657261626c653a20676c6f62616c20696e646578206f60008201527f7574206f6620626f756e64730000000000000000000000000000000000000000602082015250565b6000613381602c836128df565b915061338c82613325565b604082019050919050565b600060208201905081810360008301526133b081613374565b9050919050565b7f4e487b7100000000000000000000000000000000000000000000000000000000600052603260045260246000fd5b7f4552433732313a206f776e657220717565727920666f72206e6f6e657869737460008201527f656e7420746f6b656e0000000000000000000000000000000000000000000000602082015250565b60006134426029836128df565b915061344d826133e6565b604082019050919050565b6000602082019050818103600083015261347181613435565b9050919050565b7f4552433732313a2062616c616e636520717565727920666f7220746865207a6560008201527f726f206164647265737300000000000000000000000000000000000000000000602082015250565b60006134d4602a836128df565b91506134df82613478565b604082019050919050565b60006020820190508181036000830152613503816134c7565b9050919050565b7f4e487b7100000000000000000000000000000000000000000000000000000000600052601160045260246000fd5b60006135448261298f565b91507fffffffffffffffffffffffffffffffffffffffffffffffffffffffffffffffff82036135765761357561350a565b5b600182019050919050565b7f4f776e61626c653a2063616c6c6572206973206e6f7420746865206f776e6572600082015250565b60006135b76020836128df565b91506135c282613581565b602082019050919050565b600060208201905081810360008301526135e6816135aa565b9050919050565b600081905092915050565b6000613603826128d4565b61360d81856135ed565b935061361d8185602086016128f0565b80840191505092915050565b600061363582846135f8565b915081905092915050565b7f4552433732313a20617070726f766520746f2063616c6c657200000000000000600082015250565b60006136766019836128df565b915061368182613640565b602082019050919050565b600060208201905081810360008301526136a581613669565b9050919050565b7f4f776e61626c653a206e6577206f776e657220697320746865207a65726f206160008201527f6464726573730000000000000000000000000000000000000000000000000000602082015250565b60006137086026836128df565b9150613713826136ac565b604082019050919050565b60006020820190508181036000830152613737816136fb565b9050919050565b60006137498261298f565b91506137548361298f565b9250828210156137675761376661350a565b5b828203905092915050565b600061377d8261298f565b91506137888361298f565b9250827fffffffffffffffffffffffffffffffffffffffffffffffffffffffffffffffff038211156137bd576137bc61350a565b5b828201905092915050565b7f4552433732313a206f70657261746f7220717565727920666f72206e6f6e657860008201527f697374656e7420746f6b656e0000000000000000000000000000000000000000602082015250565b6000613824602c836128df565b915061382f826137c8565b604082019050919050565b6000602082019050818103600083015261385381613817565b9050919050565b7f4552433732313a207472616e73666572206f6620746f6b656e2074686174206960008201527f73206e6f74206f776e0000000000000000000000000000000000000000000000602082015250565b60006138b66029836128df565b91506138c18261385a565b604082019050919050565b600060208201905081810360008301526138e5816138a9565b9050919050565b7f4552433732313a207472616e7366657220746f20746865207a65726f2061646460008201527f7265737300000000000000000000000000000000000000000000000000000000602082015250565b60006139486024836128df565b9150613953826138ec565b604082019050919050565b600060208201905081810360008301526139778161393b565b9050919050565b7f45524337323155524953746f726167653a2055524920736574206f66206e6f6e60008201527f6578697374656e7420746f6b656e000000000000000000000000000000000000602082015250565b60006139da602e836128df565b91506139e58261397e565b604082019050919050565b60006020820190508181036000830152613a09816139cd565b9050919050565b7f4552433732313a207472616e7366657220746f206e6f6e20455243373231526560008201527f63656976657220696d706c656d656e7465720000000000000000000000000000602082015250565b6000613a6c6032836128df565b9150613a7782613a10565b604082019050919050565b60006020820190508181036000830152613a9b81613a5f565b9050919050565b7f45524337323155524953746f726167653a2055524920717565727920666f722060008201527f6e6f6e6578697374656e7420746f6b656e000000000000000000000000000000602082015250565b6000613afe6031836128df565b9150613b0982613aa2565b604082019050919050565b60006020820190508181036000830152613b2d81613af1565b9050919050565b6000613b4082856135f8565b9150613b4c82846135f8565b91508190509392505050565b600081519050919050565b600082825260208201905092915050565b6000613b7f82613b58565b613b898185613b63565b9350613b998185602086016128f0565b613ba281612923565b840191505092915050565b6000608082019050613bc26000830187612a24565b613bcf6020830186612a24565b613bdc6040830185612c9c565b8181036060830152613bee8184613b74565b905095945050505050565b600081519050613c0881612845565b92915050565b600060208284031215613c2457613c2361280f565b5b6000613c3284828501613bf9565b91505092915050565b7f4552433732314d657461646174613a2055524920717565727920666f72206e6f60008201527f6e6578697374656e7420746f6b656e0000000000000000000000000000000000602082015250565b6000613c97602f836128df565b9150613ca282613c3b565b604082019050919050565b60006020820190508181036000830152613cc681613c8a565b9050919050565b7f4e487b7100000000000000000000000000000000000000000000000000000000600052603160045260246000fd5b7f4552433732313a206d696e7420746f20746865207a65726f2061646472657373600082015250565b6000613d326020836128df565b9150613d3d82613cfc565b602082019050919050565b60006020820190508181036000830152613d6181613d25565b9050919050565b7f4552433732313a20746f6b656e20616c7265616479206d696e74656400000000600082015250565b6000613d9e601c836128df565b9150613da982613d68565b602082019050919050565b60006020820190508181036000830152613dcd81613d91565b9050919050565b7f4e487b7100000000000000000000000000000000000000000000000000000000600052601260045260246000fd5b6000613e0e8261298f565b9150613e198361298f565b925082613e2957613e28613dd4565b5b828204905092915050565b6000613e3f8261298f565b9150613e4a8361298f565b925082613e5a57613e59613dd4565b5b82820690509291505056fea2646970667358221220f753046e06a4ddd1ba980deaa030c0543a842e39220109e2a930ee3bf60efe1964736f6c634300080e0033",
  "immutableReferences": {},
  "source": "// SPDX-License-Identifier: MIT\r\npragma solidity ^0.8.9;\r\n\r\nimport \"@openzeppelin/contracts/token/ERC721/ERC721.sol\";\r\nimport \"@openzeppelin/contracts/utils/Counters.sol\";\r\nimport \"@openzeppelin/contracts/access/Ownable.sol\";\r\nimport \"@openzeppelin/contracts/utils/math/SafeMath.sol\";\r\nimport \"@openzeppelin/contracts/token/ERC721/extensions/ERC721Enumerable.sol\";\r\nimport \"@openzeppelin/contracts/token/ERC721/extensions/ERC721URIStorage.sol\";\r\nimport \"@openzeppelin/contracts/token/ERC721/utils/ERC721Holder.sol\";\r\n\r\ncontract MyToken is\r\n    Ownable,\r\n    ERC721,\r\n    ERC721Enumerable,\r\n    ERC721URIStorage,\r\n    ERC721Holder\r\n{\r\n    using SafeMath for uint256;\r\n    using Counters for Counters.Counter;\r\n    Counters.Counter private _tokenIds;\r\n\r\n    constructor() ERC721(\"Puto Token\", \"PTT\") {}\r\n\r\n    struct Metadata {\r\n        string text;\r\n    }\r\n\r\n    mapping(uint256 => Metadata) id_to_text;\r\n\r\n    mapping(address => uint256) ownerNftCount;\r\n\r\n    mapping(string => uint8) hashes;\r\n\r\n    string private _currentBaseURI;\r\n\r\n    event tokenMint (uint256 tokenId);\r\n\r\n    function mint(string memory hash, string memory metadata)\r\n        external\r\n        returns (uint256 tokenId)\r\n    {\r\n        require(hashes[hash] != 1);\r\n\r\n        _tokenIds.increment();\r\n\r\n        uint256 newItemId = _tokenIds.current();\r\n\r\n        hashes[hash] = 1;\r\n\r\n        ownerNftCount[msg.sender] = ownerNftCount[msg.sender].add(1);\r\n\r\n        id_to_text[newItemId] = Metadata(metadata);\r\n\r\n        _safeMint(msg.sender, newItemId);\r\n\r\n        _setTokenURI(newItemId, metadata);\r\n\r\n        emit tokenMint(newItemId);\r\n\r\n        return newItemId;\r\n    }\r\n\r\n    function getNftText(uint256 _tokenId) public view returns (string memory) {\r\n        return id_to_text[_tokenId].text;\r\n    }\r\n\r\n    function getOwnedNfts() public view returns (uint256[] memory) {\r\n        uint256 userBalance = balanceOf(msg.sender);\r\n        uint256[] memory tokenIds = new uint256[](userBalance);\r\n        for (uint256 i = 0; i < userBalance; i++) {\r\n            uint256 currTokenId = tokenOfOwnerByIndex(msg.sender, i);\r\n            tokenIds[i] = currTokenId;\r\n        }\r\n\r\n        return tokenIds;\r\n    }\r\n\r\n    function getLastTokenId() public view returns (uint256) {\r\n        return _tokenIds.current();\r\n    }\r\n\r\n    function sendNft(address to, uint256 tokenId) public {\r\n        require(ownerOf(tokenId) == msg.sender);\r\n        ownerNftCount[msg.sender] = ownerNftCount[msg.sender].sub(1);\r\n        ownerNftCount[to] = ownerNftCount[to].add(1);\r\n        _beforeTokenTransfer(msg.sender, to, tokenId);\r\n        transferFrom(msg.sender, to, tokenId);\r\n    }\r\n\r\n    function supportsInterface(bytes4 interfaceId)\r\n        public\r\n        view\r\n        virtual\r\n        override(ERC721, ERC721Enumerable)\r\n        returns (bool)\r\n    {\r\n        return super.supportsInterface(interfaceId);\r\n    }\r\n\r\n    function _beforeTokenTransfer(\r\n        address from,\r\n        address to,\r\n        uint256 tokenId\r\n    ) internal virtual override(ERC721, ERC721Enumerable) {\r\n        super._beforeTokenTransfer(from, to, tokenId);\r\n    }\r\n\r\n    function tokenURI(uint256 tokenId)\r\n        public\r\n        view\r\n        virtual\r\n        override(ERC721, ERC721URIStorage)\r\n        returns (string memory)\r\n    {\r\n        return super.tokenURI(tokenId);\r\n    }\r\n\r\n    function _burn(uint256 tokenId)\r\n        internal\r\n        virtual\r\n        override(ERC721, ERC721URIStorage)\r\n    {\r\n        super._burn(tokenId);\r\n    }\r\n}\r\n",
  "sourcePath": "C:\\Users\\Acer\\OneDrive\\Ambiente de Trabalho\\NftCreator\\contracts\\MyToken.sol",
  "compiler": {
    "name": "solc",
    "version": "0.8.14+commit.80d49f37.Emscripten.clang"
  },
  "schemaVersion": "3.4.4",
  "updatedAt": "2022-05-29T15:32:36.859Z",
  "networkType": "ethereum",
  "devdoc": {
    "kind": "dev",
    "methods": {
      "approve(address,uint256)": {
        "details": "See {IERC721-approve}."
      },
      "balanceOf(address)": {
        "details": "See {IERC721-balanceOf}."
      },
      "getApproved(uint256)": {
        "details": "See {IERC721-getApproved}."
      },
      "isApprovedForAll(address,address)": {
        "details": "See {IERC721-isApprovedForAll}."
      },
      "name()": {
        "details": "See {IERC721Metadata-name}."
      },
      "onERC721Received(address,address,uint256,bytes)": {
        "details": "See {IERC721Receiver-onERC721Received}. Always returns `IERC721Receiver.onERC721Received.selector`."
      },
      "owner()": {
        "details": "Returns the address of the current owner."
      },
      "ownerOf(uint256)": {
        "details": "See {IERC721-ownerOf}."
      },
      "renounceOwnership()": {
        "details": "Leaves the contract without owner. It will not be possible to call `onlyOwner` functions anymore. Can only be called by the current owner. NOTE: Renouncing ownership will leave the contract without an owner, thereby removing any functionality that is only available to the owner."
      },
      "safeTransferFrom(address,address,uint256)": {
        "details": "See {IERC721-safeTransferFrom}."
      },
      "safeTransferFrom(address,address,uint256,bytes)": {
        "details": "See {IERC721-safeTransferFrom}."
      },
      "setApprovalForAll(address,bool)": {
        "details": "See {IERC721-setApprovalForAll}."
      },
      "symbol()": {
        "details": "See {IERC721Metadata-symbol}."
      },
      "tokenByIndex(uint256)": {
        "details": "See {IERC721Enumerable-tokenByIndex}."
      },
      "tokenOfOwnerByIndex(address,uint256)": {
        "details": "See {IERC721Enumerable-tokenOfOwnerByIndex}."
      },
      "totalSupply()": {
        "details": "See {IERC721Enumerable-totalSupply}."
      },
      "transferFrom(address,address,uint256)": {
        "details": "See {IERC721-transferFrom}."
      },
      "transferOwnership(address)": {
        "details": "Transfers ownership of the contract to a new account (`newOwner`). Can only be called by the current owner."
      }
    },
    "version": 1
  },
  "userdoc": {
    "kind": "user",
    "methods": {},
    "version": 1
  }
}